{
  "address": "0x2e1771fcEFFA28Fd49910AC8aAc647f01A86b58A",
  "abi": [
    {
      "inputs": [
        {
          "internalType": "uint256",
          "name": "iL",
          "type": "uint256"
        },
        {
          "internalType": "uint256",
          "name": "iR",
          "type": "uint256"
        },
        {
          "internalType": "uint256",
          "name": "k",
          "type": "uint256"
        }
      ],
      "name": "MiMC5Feisel",
      "outputs": [
        {
          "internalType": "uint256",
          "name": "",
          "type": "uint256"
        },
        {
          "internalType": "uint256",
          "name": "",
          "type": "uint256"
        }
      ],
      "stateMutability": "view",
      "type": "function"
    },
    {
      "inputs": [
        {
          "internalType": "uint256[]",
          "name": "elements",
          "type": "uint256[]"
        },
        {
          "internalType": "uint256",
          "name": "k",
          "type": "uint256"
        }
      ],
      "name": "MiMC5Sponge",
      "outputs": [
        {
          "internalType": "uint256",
          "name": "",
          "type": "uint256"
        }
      ],
      "stateMutability": "view",
      "type": "function"
    }
  ],
  "transactionHash": "0x2c051a7202246d13e5c0260a00c960fd8d960ed10cd2df73854f26fd2b345e8d",
  "args": [],
  "numDeployments": 1,
  "solcInputHash": "1b4072aafd2258e407ae208877268c40",
  "bytecode": "0x60806040527f30644e72e131a029b85045b68181585d2833e84879b9709143e1f593f0000001600055604051806102800160405280600081526020017fe927df602a297668ecff04490dc0b6c06162fabc9a23aa295f0902a5f0c1166a81526020017f62d421ebec0ab4b25609beb99607d8d544ef6fc4157cad1a24e9035f9371ea5481526020017f5aef03c3c3c4de6faf310e0e05bd8af19d191de4a1cb8e79ced18a0044c8c7f381526020017f3dfab3a1d85f39f29214c13eff57c2d0e6733fd27fc7eda9224a51584ef02bad81526020017f95f94e9d00eefff4795c62b2875b556def83c7e65c81953b74e855006d28828881526020017faa523eededf73217483be02c92bf04d26e5d2d0eb12333be0fb10056768312cd81526020017fe722106974e2baf22fb322a262e41cf80af6644f7f86d5c272e4db7e86b6c6ac81526020017f310ca29f5e75497e2820c266876e3e7f8bfa3813e057078b0542b6a3248b3bee81526020017f1a2f0343ac47719c495e7432b89887bc5c821e68ce5ab1fea0fb235d1295faed81526020017fa76dc98ea05609d296487ca69d135247b43dfe362aef4b52583a2f516d18912981526020017f8b5dbd986b03646b3f1eaf9564b827059a6a7899a2d83844f863649a0396c49281526020017fdd93f797c844c60c4a234014c69b714a07d19b378eed7cba3fb6fdfece82dab681526020017f247e5da506ee091f9843242b8bc3c00ad1d5fe05dc1171f146ccd64c9a7448e181526020017f3932460433b9b4ca74ab45accf1fa8324cd0be33fce8c7c77b4e338cc68f773e81526020017f085986a4f46cbd706b4c9debe62c56f62c81a0a654cc64d12ef85a5a4e355cd581526020017f3eeff131cf8e61ee54b4df1e2af9bbe4f13f11d9e5a6e67e5214c6cb48fd39ef81526020017f9345dfd21582029f7c030ec0c699e161f34a7033dd305b090ab413c4f5ef6c4481526020017f134d37e8a004de52df3248b7e540bc2d586cc0a1be8f565b78ba528a5078fe2881526020017f9d5fc13ba8fd47f24c79f3a7f9adb87b434f304a9f0e7a9f0ff48a0c57abef0c815250600190601461031b92919061032e565b5034801561032857600080fd5b5061038b565b826014810192821561035d579160200282015b8281111561035c578251825591602001919060010190610341565b5b50905061036a919061036e565b5090565b5b8082111561038757600081600090555060010161036f565b5090565b6105a68061039a6000396000f3fe608060405234801561001057600080fd5b50600436106100365760003560e01c80631627d7fc1461003b5780632357940f1461006c575b600080fd5b61005560048036038101906100509190610240565b61009c565b6040516100639291906102a2565b60405180910390f35b61008660048036038101906100819190610424565b610181565b6040516100939190610480565b60405180910390f35b60008060006014905060008087915086905060008060008060005b8781101561016b57600054806100d0576100cf61049b565b5b600182601481106100e4576100e36104ca565b5b0154600054806100f7576100f661049b565b5b8d89080894506000548061010e5761010d61049b565b5b8586099350600054806101245761012361049b565b5b84850992508591506000548061013d5761013c61049b565b5b6000548061014e5761014d61049b565b5b84870988089550819650808061016390610528565b9150506100b7565b5085859850985050505050505050935093915050565b6000806000808551905060005b818110156101e9576101ce600054806101aa576101a961049b565b5b8883815181106101bd576101bc6104ca565b5b60200260200101518608848861009c565b809450819550505080806101e190610528565b91505061018e565b5082935050505092915050565b6000604051905090565b600080fd5b600080fd5b6000819050919050565b61021d8161020a565b811461022857600080fd5b50565b60008135905061023a81610214565b92915050565b60008060006060848603121561025957610258610200565b5b60006102678682870161022b565b93505060206102788682870161022b565b92505060406102898682870161022b565b9150509250925092565b61029c8161020a565b82525050565b60006040820190506102b76000830185610293565b6102c46020830184610293565b9392505050565b600080fd5b6000601f19601f8301169050919050565b7f4e487b7100000000000000000000000000000000000000000000000000000000600052604160045260246000fd5b610319826102d0565b810181811067ffffffffffffffff82111715610338576103376102e1565b5b80604052505050565b600061034b6101f6565b90506103578282610310565b919050565b600067ffffffffffffffff821115610377576103766102e1565b5b602082029050602081019050919050565b600080fd5b60006103a061039b8461035c565b610341565b905080838252602082019050602084028301858111156103c3576103c2610388565b5b835b818110156103ec57806103d8888261022b565b8452602084019350506020810190506103c5565b5050509392505050565b600082601f83011261040b5761040a6102cb565b5b813561041b84826020860161038d565b91505092915050565b6000806040838503121561043b5761043a610200565b5b600083013567ffffffffffffffff81111561045957610458610205565b5b610465858286016103f6565b92505060206104768582860161022b565b9150509250929050565b60006020820190506104956000830184610293565b92915050565b7f4e487b7100000000000000000000000000000000000000000000000000000000600052601260045260246000fd5b7f4e487b7100000000000000000000000000000000000000000000000000000000600052603260045260246000fd5b7f4e487b7100000000000000000000000000000000000000000000000000000000600052601160045260246000fd5b60006105338261020a565b91507fffffffffffffffffffffffffffffffffffffffffffffffffffffffffffffffff8203610565576105646104f9565b5b60018201905091905056fea2646970667358221220dc10f5430021fb251825199408c95eb538d27087ced068e8128b9ea9cd5325fe64736f6c63430008140033",
  "devdoc": {
    "kind": "dev",
    "methods": {},
    "version": 1
  },
  "userdoc": {
    "kind": "user",
    "methods": {},
    "version": 1
  },
  "storageLayout": {
    "storage": [
      {
        "astId": 73,
        "contract": "src/Hasher.sol:Hasher",
        "label": "p",
        "offset": 0,
        "slot": "0",
        "type": "t_uint256"
      },
      {
        "astId": 98,
        "contract": "src/Hasher.sol:Hasher",
        "label": "c",
        "offset": 0,
        "slot": "1",
        "type": "t_array(t_uint256)20_storage"
      }
    ],
    "types": {
      "t_array(t_uint256)20_storage": {
        "base": "t_uint256",
        "encoding": "inplace",
        "label": "uint256[20]",
        "numberOfBytes": "640"
      },
      "t_uint256": {
        "encoding": "inplace",
        "label": "uint256",
        "numberOfBytes": "32"
      }
    }
  }
}