{"src/Hasher.sol":{"Hasher":{"abi":[{"inputs":[{"internalType":"uint256","name":"iL","type":"uint256"},{"internalType":"uint256","name":"iR","type":"uint256"},{"internalType":"uint256","name":"k","type":"uint256"}],"name":"MiMC5Feisel","outputs":[{"internalType":"uint256","name":"","type":"uint256"},{"internalType":"uint256","name":"","type":"uint256"}],"stateMutability":"view","type":"function"},{"inputs":[{"internalType":"uint256[]","name":"elements","type":"uint256[]"},{"internalType":"uint256","name":"k","type":"uint256"}],"name":"MiMC5Sponge","outputs":[{"internalType":"uint256","name":"","type":"uint256"}],"stateMutability":"view","type":"function"}],"devdoc":{"kind":"dev","methods":{},"version":1},"evm":{"bytecode":{"linkReferences":{},"object":"60806040527f30644e72e131a029b85045b68181585d2833e84879b9709143e1f593f0000001600055604051806102800160405280600081526020017fe927df602a297668ecff04490dc0b6c06162fabc9a23aa295f0902a5f0c1166a81526020017f62d421ebec0ab4b25609beb99607d8d544ef6fc4157cad1a24e9035f9371ea5481526020017f5aef03c3c3c4de6faf310e0e05bd8af19d191de4a1cb8e79ced18a0044c8c7f381526020017f3dfab3a1d85f39f29214c13eff57c2d0e6733fd27fc7eda9224a51584ef02bad81526020017f95f94e9d00eefff4795c62b2875b556def83c7e65c81953b74e855006d28828881526020017faa523eededf73217483be02c92bf04d26e5d2d0eb12333be0fb10056768312cd81526020017fe722106974e2baf22fb322a262e41cf80af6644f7f86d5c272e4db7e86b6c6ac81526020017f310ca29f5e75497e2820c266876e3e7f8bfa3813e057078b0542b6a3248b3bee81526020017f1a2f0343ac47719c495e7432b89887bc5c821e68ce5ab1fea0fb235d1295faed81526020017fa76dc98ea05609d296487ca69d135247b43dfe362aef4b52583a2f516d18912981526020017f8b5dbd986b03646b3f1eaf9564b827059a6a7899a2d83844f863649a0396c49281526020017fdd93f797c844c60c4a234014c69b714a07d19b378eed7cba3fb6fdfece82dab681526020017f247e5da506ee091f9843242b8bc3c00ad1d5fe05dc1171f146ccd64c9a7448e181526020017f3932460433b9b4ca74ab45accf1fa8324cd0be33fce8c7c77b4e338cc68f773e81526020017f085986a4f46cbd706b4c9debe62c56f62c81a0a654cc64d12ef85a5a4e355cd581526020017f3eeff131cf8e61ee54b4df1e2af9bbe4f13f11d9e5a6e67e5214c6cb48fd39ef81526020017f9345dfd21582029f7c030ec0c699e161f34a7033dd305b090ab413c4f5ef6c4481526020017f134d37e8a004de52df3248b7e540bc2d586cc0a1be8f565b78ba528a5078fe2881526020017f9d5fc13ba8fd47f24c79f3a7f9adb87b434f304a9f0e7a9f0ff48a0c57abef0c815250600190601461031b92919061032e565b5034801561032857600080fd5b5061038b565b826014810192821561035d579160200282015b8281111561035c578251825591602001919060010190610341565b5b50905061036a919061036e565b5090565b5b8082111561038757600081600090555060010161036f565b5090565b6105a68061039a6000396000f3fe608060405234801561001057600080fd5b50600436106100365760003560e01c80631627d7fc1461003b5780632357940f1461006c575b600080fd5b61005560048036038101906100509190610240565b61009c565b6040516100639291906102a2565b60405180910390f35b61008660048036038101906100819190610424565b610181565b6040516100939190610480565b60405180910390f35b60008060006014905060008087915086905060008060008060005b8781101561016b57600054806100d0576100cf61049b565b5b600182601481106100e4576100e36104ca565b5b0154600054806100f7576100f661049b565b5b8d89080894506000548061010e5761010d61049b565b5b8586099350600054806101245761012361049b565b5b84850992508591506000548061013d5761013c61049b565b5b6000548061014e5761014d61049b565b5b84870988089550819650808061016390610528565b9150506100b7565b5085859850985050505050505050935093915050565b6000806000808551905060005b818110156101e9576101ce600054806101aa576101a961049b565b5b8883815181106101bd576101bc6104ca565b5b60200260200101518608848861009c565b809450819550505080806101e190610528565b91505061018e565b5082935050505092915050565b6000604051905090565b600080fd5b600080fd5b6000819050919050565b61021d8161020a565b811461022857600080fd5b50565b60008135905061023a81610214565b92915050565b60008060006060848603121561025957610258610200565b5b60006102678682870161022b565b93505060206102788682870161022b565b92505060406102898682870161022b565b9150509250925092565b61029c8161020a565b82525050565b60006040820190506102b76000830185610293565b6102c46020830184610293565b9392505050565b600080fd5b6000601f19601f8301169050919050565b7f4e487b7100000000000000000000000000000000000000000000000000000000600052604160045260246000fd5b610319826102d0565b810181811067ffffffffffffffff82111715610338576103376102e1565b5b80604052505050565b600061034b6101f6565b90506103578282610310565b919050565b600067ffffffffffffffff821115610377576103766102e1565b5b602082029050602081019050919050565b600080fd5b60006103a061039b8461035c565b610341565b905080838252602082019050602084028301858111156103c3576103c2610388565b5b835b818110156103ec57806103d8888261022b565b8452602084019350506020810190506103c5565b5050509392505050565b600082601f83011261040b5761040a6102cb565b5b813561041b84826020860161038d565b91505092915050565b6000806040838503121561043b5761043a610200565b5b600083013567ffffffffffffffff81111561045957610458610205565b5b610465858286016103f6565b92505060206104768582860161022b565b9150509250929050565b60006020820190506104956000830184610293565b92915050565b7f4e487b7100000000000000000000000000000000000000000000000000000000600052601260045260246000fd5b7f4e487b7100000000000000000000000000000000000000000000000000000000600052603260045260246000fd5b7f4e487b7100000000000000000000000000000000000000000000000000000000600052601160045260246000fd5b60006105338261020a565b91507fffffffffffffffffffffffffffffffffffffffffffffffffffffffffffffffff8203610565576105646104f9565b5b60018201905091905056fea2646970667358221220dc10f5430021fb251825199408c95eb538d27087ced068e8128b9ea9cd5325fe64736f6c63430008140033","opcodes":"PUSH1 0x80 PUSH1 0x40 MSTORE PUSH32 0x30644E72E131A029B85045B68181585D2833E84879B9709143E1F593F0000001 PUSH1 0x0 SSTORE PUSH1 0x40 MLOAD DUP1 PUSH2 0x280 ADD PUSH1 0x40 MSTORE DUP1 PUSH1 0x0 DUP2 MSTORE PUSH1 0x20 ADD PUSH32 0xE927DF602A297668ECFF04490DC0B6C06162FABC9A23AA295F0902A5F0C1166A DUP2 MSTORE PUSH1 0x20 ADD PUSH32 0x62D421EBEC0AB4B25609BEB99607D8D544EF6FC4157CAD1A24E9035F9371EA54 DUP2 MSTORE PUSH1 0x20 ADD PUSH32 0x5AEF03C3C3C4DE6FAF310E0E05BD8AF19D191DE4A1CB8E79CED18A0044C8C7F3 DUP2 MSTORE PUSH1 0x20 ADD PUSH32 0x3DFAB3A1D85F39F29214C13EFF57C2D0E6733FD27FC7EDA9224A51584EF02BAD DUP2 MSTORE PUSH1 0x20 ADD PUSH32 0x95F94E9D00EEFFF4795C62B2875B556DEF83C7E65C81953B74E855006D288288 DUP2 MSTORE PUSH1 0x20 ADD PUSH32 0xAA523EEDEDF73217483BE02C92BF04D26E5D2D0EB12333BE0FB10056768312CD DUP2 MSTORE PUSH1 0x20 ADD PUSH32 0xE722106974E2BAF22FB322A262E41CF80AF6644F7F86D5C272E4DB7E86B6C6AC DUP2 MSTORE PUSH1 0x20 ADD PUSH32 0x310CA29F5E75497E2820C266876E3E7F8BFA3813E057078B0542B6A3248B3BEE DUP2 MSTORE PUSH1 0x20 ADD PUSH32 0x1A2F0343AC47719C495E7432B89887BC5C821E68CE5AB1FEA0FB235D1295FAED DUP2 MSTORE PUSH1 0x20 ADD PUSH32 0xA76DC98EA05609D296487CA69D135247B43DFE362AEF4B52583A2F516D189129 DUP2 MSTORE PUSH1 0x20 ADD PUSH32 0x8B5DBD986B03646B3F1EAF9564B827059A6A7899A2D83844F863649A0396C492 DUP2 MSTORE PUSH1 0x20 ADD PUSH32 0xDD93F797C844C60C4A234014C69B714A07D19B378EED7CBA3FB6FDFECE82DAB6 DUP2 MSTORE PUSH1 0x20 ADD PUSH32 0x247E5DA506EE091F9843242B8BC3C00AD1D5FE05DC1171F146CCD64C9A7448E1 DUP2 MSTORE PUSH1 0x20 ADD PUSH32 0x3932460433B9B4CA74AB45ACCF1FA8324CD0BE33FCE8C7C77B4E338CC68F773E DUP2 MSTORE PUSH1 0x20 ADD PUSH32 0x85986A4F46CBD706B4C9DEBE62C56F62C81A0A654CC64D12EF85A5A4E355CD5 DUP2 MSTORE PUSH1 0x20 ADD PUSH32 0x3EEFF131CF8E61EE54B4DF1E2AF9BBE4F13F11D9E5A6E67E5214C6CB48FD39EF DUP2 MSTORE PUSH1 0x20 ADD PUSH32 0x9345DFD21582029F7C030EC0C699E161F34A7033DD305B090AB413C4F5EF6C44 DUP2 MSTORE PUSH1 0x20 ADD PUSH32 0x134D37E8A004DE52DF3248B7E540BC2D586CC0A1BE8F565B78BA528A5078FE28 DUP2 MSTORE PUSH1 0x20 ADD PUSH32 0x9D5FC13BA8FD47F24C79F3A7F9ADB87B434F304A9F0E7A9F0FF48A0C57ABEF0C DUP2 MSTORE POP PUSH1 0x1 SWAP1 PUSH1 0x14 PUSH2 0x31B SWAP3 SWAP2 SWAP1 PUSH2 0x32E JUMP JUMPDEST POP CALLVALUE DUP1 ISZERO PUSH2 0x328 JUMPI PUSH1 0x0 DUP1 REVERT JUMPDEST POP PUSH2 0x38B JUMP JUMPDEST DUP3 PUSH1 0x14 DUP2 ADD SWAP3 DUP3 ISZERO PUSH2 0x35D JUMPI SWAP2 PUSH1 0x20 MUL DUP3 ADD JUMPDEST DUP3 DUP2 GT ISZERO PUSH2 0x35C JUMPI DUP3 MLOAD DUP3 SSTORE SWAP2 PUSH1 0x20 ADD SWAP2 SWAP1 PUSH1 0x1 ADD SWAP1 PUSH2 0x341 JUMP JUMPDEST JUMPDEST POP SWAP1 POP PUSH2 0x36A SWAP2 SWAP1 PUSH2 0x36E JUMP JUMPDEST POP SWAP1 JUMP JUMPDEST JUMPDEST DUP1 DUP3 GT ISZERO PUSH2 0x387 JUMPI PUSH1 0x0 DUP2 PUSH1 0x0 SWAP1 SSTORE POP PUSH1 0x1 ADD PUSH2 0x36F JUMP JUMPDEST POP SWAP1 JUMP JUMPDEST PUSH2 0x5A6 DUP1 PUSH2 0x39A PUSH1 0x0 CODECOPY PUSH1 0x0 RETURN INVALID PUSH1 0x80 PUSH1 0x40 MSTORE CALLVALUE DUP1 ISZERO PUSH2 0x10 JUMPI PUSH1 0x0 DUP1 REVERT JUMPDEST POP PUSH1 0x4 CALLDATASIZE LT PUSH2 0x36 JUMPI PUSH1 0x0 CALLDATALOAD PUSH1 0xE0 SHR DUP1 PUSH4 0x1627D7FC EQ PUSH2 0x3B JUMPI DUP1 PUSH4 0x2357940F EQ PUSH2 0x6C JUMPI JUMPDEST PUSH1 0x0 DUP1 REVERT JUMPDEST PUSH2 0x55 PUSH1 0x4 DUP1 CALLDATASIZE SUB DUP2 ADD SWAP1 PUSH2 0x50 SWAP2 SWAP1 PUSH2 0x240 JUMP JUMPDEST PUSH2 0x9C JUMP JUMPDEST PUSH1 0x40 MLOAD PUSH2 0x63 SWAP3 SWAP2 SWAP1 PUSH2 0x2A2 JUMP JUMPDEST PUSH1 0x40 MLOAD DUP1 SWAP2 SUB SWAP1 RETURN JUMPDEST PUSH2 0x86 PUSH1 0x4 DUP1 CALLDATASIZE SUB DUP2 ADD SWAP1 PUSH2 0x81 SWAP2 SWAP1 PUSH2 0x424 JUMP JUMPDEST PUSH2 0x181 JUMP JUMPDEST PUSH1 0x40 MLOAD PUSH2 0x93 SWAP2 SWAP1 PUSH2 0x480 JUMP JUMPDEST PUSH1 0x40 MLOAD DUP1 SWAP2 SUB SWAP1 RETURN JUMPDEST PUSH1 0x0 DUP1 PUSH1 0x0 PUSH1 0x14 SWAP1 POP PUSH1 0x0 DUP1 DUP8 SWAP2 POP DUP7 SWAP1 POP PUSH1 0x0 DUP1 PUSH1 0x0 DUP1 PUSH1 0x0 JUMPDEST DUP8 DUP2 LT ISZERO PUSH2 0x16B JUMPI PUSH1 0x0 SLOAD DUP1 PUSH2 0xD0 JUMPI PUSH2 0xCF PUSH2 0x49B JUMP JUMPDEST JUMPDEST PUSH1 0x1 DUP3 PUSH1 0x14 DUP2 LT PUSH2 0xE4 JUMPI PUSH2 0xE3 PUSH2 0x4CA JUMP JUMPDEST JUMPDEST ADD SLOAD PUSH1 0x0 SLOAD DUP1 PUSH2 0xF7 JUMPI PUSH2 0xF6 PUSH2 0x49B JUMP JUMPDEST JUMPDEST DUP14 DUP10 ADDMOD ADDMOD SWAP5 POP PUSH1 0x0 SLOAD DUP1 PUSH2 0x10E JUMPI PUSH2 0x10D PUSH2 0x49B JUMP JUMPDEST JUMPDEST DUP6 DUP7 MULMOD SWAP4 POP PUSH1 0x0 SLOAD DUP1 PUSH2 0x124 JUMPI PUSH2 0x123 PUSH2 0x49B JUMP JUMPDEST JUMPDEST DUP5 DUP6 MULMOD SWAP3 POP DUP6 SWAP2 POP PUSH1 0x0 SLOAD DUP1 PUSH2 0x13D JUMPI PUSH2 0x13C PUSH2 0x49B JUMP JUMPDEST JUMPDEST PUSH1 0x0 SLOAD DUP1 PUSH2 0x14E JUMPI PUSH2 0x14D PUSH2 0x49B JUMP JUMPDEST JUMPDEST DUP5 DUP8 MULMOD DUP9 ADDMOD SWAP6 POP DUP2 SWAP7 POP DUP1 DUP1 PUSH2 0x163 SWAP1 PUSH2 0x528 JUMP JUMPDEST SWAP2 POP POP PUSH2 0xB7 JUMP JUMPDEST POP DUP6 DUP6 SWAP9 POP SWAP9 POP POP POP POP POP POP POP POP SWAP4 POP SWAP4 SWAP2 POP POP JUMP JUMPDEST PUSH1 0x0 DUP1 PUSH1 0x0 DUP1 DUP6 MLOAD SWAP1 POP PUSH1 0x0 JUMPDEST DUP2 DUP2 LT ISZERO PUSH2 0x1E9 JUMPI PUSH2 0x1CE PUSH1 0x0 SLOAD DUP1 PUSH2 0x1AA JUMPI PUSH2 0x1A9 PUSH2 0x49B JUMP JUMPDEST JUMPDEST DUP9 DUP4 DUP2 MLOAD DUP2 LT PUSH2 0x1BD JUMPI PUSH2 0x1BC PUSH2 0x4CA JUMP JUMPDEST JUMPDEST PUSH1 0x20 MUL PUSH1 0x20 ADD ADD MLOAD DUP7 ADDMOD DUP5 DUP9 PUSH2 0x9C JUMP JUMPDEST DUP1 SWAP5 POP DUP2 SWAP6 POP POP POP DUP1 DUP1 PUSH2 0x1E1 SWAP1 PUSH2 0x528 JUMP JUMPDEST SWAP2 POP POP PUSH2 0x18E JUMP JUMPDEST POP DUP3 SWAP4 POP POP POP POP SWAP3 SWAP2 POP POP JUMP JUMPDEST PUSH1 0x0 PUSH1 0x40 MLOAD SWAP1 POP SWAP1 JUMP JUMPDEST PUSH1 0x0 DUP1 REVERT JUMPDEST PUSH1 0x0 DUP1 REVERT JUMPDEST PUSH1 0x0 DUP2 SWAP1 POP SWAP2 SWAP1 POP JUMP JUMPDEST PUSH2 0x21D DUP2 PUSH2 0x20A JUMP JUMPDEST DUP2 EQ PUSH2 0x228 JUMPI PUSH1 0x0 DUP1 REVERT JUMPDEST POP JUMP JUMPDEST PUSH1 0x0 DUP2 CALLDATALOAD SWAP1 POP PUSH2 0x23A DUP2 PUSH2 0x214 JUMP JUMPDEST SWAP3 SWAP2 POP POP JUMP JUMPDEST PUSH1 0x0 DUP1 PUSH1 0x0 PUSH1 0x60 DUP5 DUP7 SUB SLT ISZERO PUSH2 0x259 JUMPI PUSH2 0x258 PUSH2 0x200 JUMP JUMPDEST JUMPDEST PUSH1 0x0 PUSH2 0x267 DUP7 DUP3 DUP8 ADD PUSH2 0x22B JUMP JUMPDEST SWAP4 POP POP PUSH1 0x20 PUSH2 0x278 DUP7 DUP3 DUP8 ADD PUSH2 0x22B JUMP JUMPDEST SWAP3 POP POP PUSH1 0x40 PUSH2 0x289 DUP7 DUP3 DUP8 ADD PUSH2 0x22B JUMP JUMPDEST SWAP2 POP POP SWAP3 POP SWAP3 POP SWAP3 JUMP JUMPDEST PUSH2 0x29C DUP2 PUSH2 0x20A JUMP JUMPDEST DUP3 MSTORE POP POP JUMP JUMPDEST PUSH1 0x0 PUSH1 0x40 DUP3 ADD SWAP1 POP PUSH2 0x2B7 PUSH1 0x0 DUP4 ADD DUP6 PUSH2 0x293 JUMP JUMPDEST PUSH2 0x2C4 PUSH1 0x20 DUP4 ADD DUP5 PUSH2 0x293 JUMP JUMPDEST SWAP4 SWAP3 POP POP POP JUMP JUMPDEST PUSH1 0x0 DUP1 REVERT JUMPDEST PUSH1 0x0 PUSH1 0x1F NOT PUSH1 0x1F DUP4 ADD AND SWAP1 POP SWAP2 SWAP1 POP JUMP JUMPDEST PUSH32 0x4E487B7100000000000000000000000000000000000000000000000000000000 PUSH1 0x0 MSTORE PUSH1 0x41 PUSH1 0x4 MSTORE PUSH1 0x24 PUSH1 0x0 REVERT JUMPDEST PUSH2 0x319 DUP3 PUSH2 0x2D0 JUMP JUMPDEST DUP2 ADD DUP2 DUP2 LT PUSH8 0xFFFFFFFFFFFFFFFF DUP3 GT OR ISZERO PUSH2 0x338 JUMPI PUSH2 0x337 PUSH2 0x2E1 JUMP JUMPDEST JUMPDEST DUP1 PUSH1 0x40 MSTORE POP POP POP JUMP JUMPDEST PUSH1 0x0 PUSH2 0x34B PUSH2 0x1F6 JUMP JUMPDEST SWAP1 POP PUSH2 0x357 DUP3 DUP3 PUSH2 0x310 JUMP JUMPDEST SWAP2 SWAP1 POP JUMP JUMPDEST PUSH1 0x0 PUSH8 0xFFFFFFFFFFFFFFFF DUP3 GT ISZERO PUSH2 0x377 JUMPI PUSH2 0x376 PUSH2 0x2E1 JUMP JUMPDEST JUMPDEST PUSH1 0x20 DUP3 MUL SWAP1 POP PUSH1 0x20 DUP2 ADD SWAP1 POP SWAP2 SWAP1 POP JUMP JUMPDEST PUSH1 0x0 DUP1 REVERT JUMPDEST PUSH1 0x0 PUSH2 0x3A0 PUSH2 0x39B DUP5 PUSH2 0x35C JUMP JUMPDEST PUSH2 0x341 JUMP JUMPDEST SWAP1 POP DUP1 DUP4 DUP3 MSTORE PUSH1 0x20 DUP3 ADD SWAP1 POP PUSH1 0x20 DUP5 MUL DUP4 ADD DUP6 DUP2 GT ISZERO PUSH2 0x3C3 JUMPI PUSH2 0x3C2 PUSH2 0x388 JUMP JUMPDEST JUMPDEST DUP4 JUMPDEST DUP2 DUP2 LT ISZERO PUSH2 0x3EC JUMPI DUP1 PUSH2 0x3D8 DUP9 DUP3 PUSH2 0x22B JUMP JUMPDEST DUP5 MSTORE PUSH1 0x20 DUP5 ADD SWAP4 POP POP PUSH1 0x20 DUP2 ADD SWAP1 POP PUSH2 0x3C5 JUMP JUMPDEST POP POP POP SWAP4 SWAP3 POP POP POP JUMP JUMPDEST PUSH1 0x0 DUP3 PUSH1 0x1F DUP4 ADD SLT PUSH2 0x40B JUMPI PUSH2 0x40A PUSH2 0x2CB JUMP JUMPDEST JUMPDEST DUP2 CALLDATALOAD PUSH2 0x41B DUP5 DUP3 PUSH1 0x20 DUP7 ADD PUSH2 0x38D JUMP JUMPDEST SWAP2 POP POP SWAP3 SWAP2 POP POP JUMP JUMPDEST PUSH1 0x0 DUP1 PUSH1 0x40 DUP4 DUP6 SUB SLT ISZERO PUSH2 0x43B JUMPI PUSH2 0x43A PUSH2 0x200 JUMP JUMPDEST JUMPDEST PUSH1 0x0 DUP4 ADD CALLDATALOAD PUSH8 0xFFFFFFFFFFFFFFFF DUP2 GT ISZERO PUSH2 0x459 JUMPI PUSH2 0x458 PUSH2 0x205 JUMP JUMPDEST JUMPDEST PUSH2 0x465 DUP6 DUP3 DUP7 ADD PUSH2 0x3F6 JUMP JUMPDEST SWAP3 POP POP PUSH1 0x20 PUSH2 0x476 DUP6 DUP3 DUP7 ADD PUSH2 0x22B JUMP JUMPDEST SWAP2 POP POP SWAP3 POP SWAP3 SWAP1 POP JUMP JUMPDEST PUSH1 0x0 PUSH1 0x20 DUP3 ADD SWAP1 POP PUSH2 0x495 PUSH1 0x0 DUP4 ADD DUP5 PUSH2 0x293 JUMP JUMPDEST SWAP3 SWAP2 POP POP JUMP JUMPDEST PUSH32 0x4E487B7100000000000000000000000000000000000000000000000000000000 PUSH1 0x0 MSTORE PUSH1 0x12 PUSH1 0x4 MSTORE PUSH1 0x24 PUSH1 0x0 REVERT JUMPDEST PUSH32 0x4E487B7100000000000000000000000000000000000000000000000000000000 PUSH1 0x0 MSTORE PUSH1 0x32 PUSH1 0x4 MSTORE PUSH1 0x24 PUSH1 0x0 REVERT JUMPDEST PUSH32 0x4E487B7100000000000000000000000000000000000000000000000000000000 PUSH1 0x0 MSTORE PUSH1 0x11 PUSH1 0x4 MSTORE PUSH1 0x24 PUSH1 0x0 REVERT JUMPDEST PUSH1 0x0 PUSH2 0x533 DUP3 PUSH2 0x20A JUMP JUMPDEST SWAP2 POP PUSH32 0xFFFFFFFFFFFFFFFFFFFFFFFFFFFFFFFFFFFFFFFFFFFFFFFFFFFFFFFFFFFFFFFF DUP3 SUB PUSH2 0x565 JUMPI PUSH2 0x564 PUSH2 0x4F9 JUMP JUMPDEST JUMPDEST PUSH1 0x1 DUP3 ADD SWAP1 POP SWAP2 SWAP1 POP JUMP INVALID LOG2 PUSH5 0x6970667358 0x22 SLT KECCAK256 0xDC LT CREATE2 NUMBER STOP 0x21 0xFB 0x25 XOR 0x25 NOT SWAP5 ADDMOD 0xC9 0x5E 0xB5 CODESIZE 0xD2 PUSH17 0x87CED068E8128B9EA9CD5325FE64736F6C PUSH4 0x43000814 STOP CALLER "},"gasEstimates":{"creation":{"codeDepositCost":"289200","executionCost":"infinite","totalCost":"infinite"},"external":{"MiMC5Feisel(uint256,uint256,uint256)":"infinite","MiMC5Sponge(uint256[],uint256)":"infinite"}},"methodIdentifiers":{"MiMC5Feisel(uint256,uint256,uint256)":"1627d7fc","MiMC5Sponge(uint256[],uint256)":"2357940f"}},"storageLayout":{"storage":[{"astId":76,"contract":"src/Hasher.sol:Hasher","label":"p","offset":0,"slot":"0","type":"t_uint256"},{"astId":101,"contract":"src/Hasher.sol:Hasher","label":"c","offset":0,"slot":"1","type":"t_array(t_uint256)20_storage"}],"types":{"t_array(t_uint256)20_storage":{"base":"t_uint256","encoding":"inplace","label":"uint256[20]","numberOfBytes":"640"},"t_uint256":{"encoding":"inplace","label":"uint256","numberOfBytes":"32"}}},"userdoc":{"kind":"user","methods":{},"version":1}}}}