{"src/Tornado.sol":{"Tornado":{"abi":[{"inputs":[{"internalType":"address","name":"_hasher","type":"address"},{"internalType":"address","name":"_verifier","type":"address"}],"stateMutability":"nonpayable","type":"constructor"},{"inputs":[{"internalType":"uint256","name":"commitment","type":"uint256"}],"name":"CommitmentAlreadyRegistered","type":"error"},{"inputs":[{"internalType":"uint256","name":"index","type":"uint256"}],"name":"IndexOutOfBound","type":"error"},{"inputs":[],"name":"InvalidProof","type":"error"},{"inputs":[],"name":"InvalidRoot","type":"error"},{"inputs":[],"name":"MerkleTreeFull","type":"error"},{"inputs":[],"name":"NullifierAlreadyUsed","type":"error"},{"inputs":[],"name":"PaymentFailed","type":"error"},{"inputs":[],"name":"ReentrancyGuardReentrantCall","type":"error"},{"inputs":[{"internalType":"uint256","name":"amount","type":"uint256"}],"name":"WrongAmountDeposited","type":"error"},{"anonymous":false,"inputs":[{"indexed":false,"internalType":"uint256","name":"root","type":"uint256"},{"indexed":false,"internalType":"uint256[10]","name":"hashPairings","type":"uint256[10]"},{"indexed":false,"internalType":"uint8[10]","name":"pairDirections","type":"uint8[10]"}],"name":"Deposit","type":"event"},{"anonymous":false,"inputs":[{"indexed":false,"internalType":"address","name":"to","type":"address"},{"indexed":false,"internalType":"uint256","name":"nullifierHash","type":"uint256"}],"name":"Withdrawal","type":"event"},{"inputs":[{"internalType":"uint256","name":"commitment","type":"uint256"}],"name":"commitments","outputs":[{"internalType":"bool","name":"isRegistered","type":"bool"}],"stateMutability":"view","type":"function"},{"inputs":[],"name":"denomination","outputs":[{"internalType":"uint256","name":"","type":"uint256"}],"stateMutability":"view","type":"function"},{"inputs":[{"internalType":"uint256","name":"_commitment","type":"uint256"}],"name":"deposit","outputs":[],"stateMutability":"payable","type":"function"},{"inputs":[],"name":"hasher","outputs":[{"internalType":"contract Hasher","name":"","type":"address"}],"stateMutability":"view","type":"function"},{"inputs":[{"internalType":"uint256","name":"root","type":"uint256"}],"name":"knownRoots","outputs":[{"internalType":"bool","name":"isKnown","type":"bool"}],"stateMutability":"view","type":"function"},{"inputs":[{"internalType":"uint8","name":"level","type":"uint8"}],"name":"lastLevelHash","outputs":[{"internalType":"uint256","name":"levelHash","type":"uint256"}],"stateMutability":"view","type":"function"},{"inputs":[],"name":"nextLeafIndex","outputs":[{"internalType":"uint256","name":"","type":"uint256"}],"stateMutability":"view","type":"function"},{"inputs":[{"internalType":"uint256","name":"nullifier","type":"uint256"}],"name":"nullifiers","outputs":[{"internalType":"bool","name":"hasBeenUsed","type":"bool"}],"stateMutability":"view","type":"function"},{"inputs":[],"name":"treeLevel","outputs":[{"internalType":"uint8","name":"","type":"uint8"}],"stateMutability":"view","type":"function"},{"inputs":[],"name":"verifier","outputs":[{"internalType":"address","name":"","type":"address"}],"stateMutability":"view","type":"function"},{"inputs":[{"internalType":"uint256[2]","name":"a","type":"uint256[2]"},{"internalType":"uint256[2][2]","name":"b","type":"uint256[2][2]"},{"internalType":"uint256[2]","name":"c","type":"uint256[2]"},{"internalType":"uint256[2]","name":"input","type":"uint256[2]"}],"name":"withdraw","outputs":[],"stateMutability":"nonpayable","type":"function"}],"devdoc":{"errors":{"ReentrancyGuardReentrantCall()":[{"details":"Unauthorized reentrant call."}]},"kind":"dev","methods":{},"version":1},"evm":{"bytecode":{"linkReferences":{},"object":"6080604052600a600260146101000a81548160ff021916908360ff16021790555067016345785d8a00006003553480156200003957600080fd5b5060405162001db038038062001db083398181016040528101906200005f91906200015b565b600160008190555081600160006101000a81548173ffffffffffffffffffffffffffffffffffffffff021916908373ffffffffffffffffffffffffffffffffffffffff16021790555080600260006101000a81548173ffffffffffffffffffffffffffffffffffffffff021916908373ffffffffffffffffffffffffffffffffffffffff1602179055505050620001a2565b600080fd5b600073ffffffffffffffffffffffffffffffffffffffff82169050919050565b60006200012382620000f6565b9050919050565b620001358162000116565b81146200014157600080fd5b50565b60008151905062000155816200012a565b92915050565b60008060408385031215620001755762000174620000f1565b5b6000620001858582860162000144565b9250506020620001988582860162000144565b9150509250929050565b611bfe80620001b26000396000f3fe60806040526004361061009c5760003560e01c8063b6b55f2511610064578063b6b55f251461019c578063b8e79564146101b8578063c78784d7146101e3578063d21e82ab1461020c578063d540004714610249578063ed33639f146102865761009c565b80630be4f422146100a157806312ad7381146100cc5780632b7ac3f31461010957806349ce8997146101345780638bca6d1614610171575b600080fd5b3480156100ad57600080fd5b506100b66102b1565b6040516100c39190610e65565b60405180910390f35b3480156100d857600080fd5b506100f360048036038101906100ee9190610ebb565b6102b7565b6040516101009190610f03565b60405180910390f35b34801561011557600080fd5b5061011e6102d7565b60405161012b9190610f5f565b60405180910390f35b34801561014057600080fd5b5061015b60048036038101906101569190610ebb565b6102fd565b6040516101689190610f03565b60405180910390f35b34801561017d57600080fd5b5061018661031d565b6040516101939190610e65565b60405180910390f35b6101b660048036038101906101b19190610ebb565b610323565b005b3480156101c457600080fd5b506101cd6107bd565b6040516101da9190610f96565b60405180910390f35b3480156101ef57600080fd5b5061020a600480360381019061020591906111a9565b6107d0565b005b34801561021857600080fd5b50610233600480360381019061022e9190610ebb565b610b66565b6040516102409190610f03565b60405180910390f35b34801561025557600080fd5b50610270600480360381019061026b919061123e565b610b86565b60405161027d9190610e65565b60405180910390f35b34801561029257600080fd5b5061029b610b9e565b6040516102a891906112ca565b60405180910390f35b60045481565b60056020528060005260406000206000915054906101000a900460ff1681565b600260009054906101000a900473ffffffffffffffffffffffffffffffffffffffff1681565b60086020528060005260406000206000915054906101000a900460ff1681565b60035481565b61032b610bc4565b600354341461037157346040517f172624de0000000000000000000000000000000000000000000000000000000081526004016103689190610e65565b60405180910390fd5b6008600082815260200190815260200160002060009054906101000a900460ff16156103d457806040517f758b55390000000000000000000000000000000000000000000000000000000081526004016103cb9190610e65565b60405180910390fd5b6001600260149054906101000a900460ff1660026103f29190611447565b6103fc9190611492565b6004541115610437576040517fef5ccf6600000000000000000000000000000000000000000000000000000000815260040160405180910390fd5b6000610441610e06565b610449610e29565b6000600454905060008590506000806000600267ffffffffffffffff81111561047557610474610fc7565b5b6040519080825280602002602001820160405280156104a35781602001602082028036833780820191505090505b50905060005b600260149054906101000a900460ff1660ff168160ff1610156106fd578460066000600260149054906101000a900460ff1660ff1660ff16815260200190815260200160002081905550600060028761050291906114f5565b03610571578492506105168160ff16610c0a565b93506105248160ff16610c0a565b888260ff16600a811061053a57610539611526565b5b6020020181815250506000878260ff16600a811061055b5761055a611526565b5b602002019060ff16908160ff16815250506105f3565b600660008260ff1660ff168152602001908152602001600020549250849350600660008260ff1660ff16815260200190815260200160002054888260ff16600a81106105c0576105bf611526565b5b6020020181815250506001878260ff16600a81106105e1576105e0611526565b5b602002019060ff16908160ff16815250505b828260008151811061060857610607611526565b5b602002602001018181525050838260018151811061062957610628611526565b5b6020026020010181815250506000600160009054906101000a900473ffffffffffffffffffffffffffffffffffffffff1673ffffffffffffffffffffffffffffffffffffffff16632357940f848d6040518363ffffffff1660e01b8152600401610694929190611613565b602060405180830381865afa1580156106b1573d6000803e3d6000fd5b505050506040513d601f19601f820116820180604052508101906106d59190611658565b90508095506002876106e79190611685565b96505080806106f5906116b6565b9150506104a9565b508397506001600560008a815260200190815260200160002060006101000a81548160ff02191690831515021790555060046000815461073c906116df565b919050819055506001600860008b815260200190815260200160002060006101000a81548160ff0219169083151502179055507fe6ab8667cb740d6c65a4ad321c031eb42f6c5085d5753238d1b2e1e370c134838888886040516107a293929190611856565b60405180910390a150505050505050506107ba610dfc565b50565b600260149054906101000a900460ff1681565b6107d8610bc4565b6000816000600281106107ee576107ed611526565b5b6020020151905060008260016002811061080b5761080a611526565b5b602002015190506005600083815260200190815260200160002060009054906101000a900460ff16610869576040517f504570e300000000000000000000000000000000000000000000000000000000815260040160405180910390fd5b6007600082815260200190815260200160002060009054906101000a900460ff16156108c1576040517fcad2ae0200000000000000000000000000000000000000000000000000000000815260040160405180910390fd5b6000600260009054906101000a900473ffffffffffffffffffffffffffffffffffffffff1673ffffffffffffffffffffffffffffffffffffffff1687878760405180606001604052808881526020018781526020013373ffffffffffffffffffffffffffffffffffffffff168152506040516024016109439493929190611a95565b6040516020818303038152906040527f11479fea000000000000000000000000000000000000000000000000000000007bffffffffffffffffffffffffffffffffffffffffffffffffffffffff19166020820180517bffffffffffffffffffffffffffffffffffffffffffffffffffffffff83818316178352505050506040516109cd9190611b4d565b6000604051808303816000865af19150503d8060008114610a0a576040519150601f19603f3d011682016040523d82523d6000602084013e610a0f565b606091505b5050905080610a4a576040517f09bde33900000000000000000000000000000000000000000000000000000000815260040160405180910390fd5b60016007600084815260200190815260200160002060006101000a81548160ff02191690831515021790555060003373ffffffffffffffffffffffffffffffffffffffff16600354604051610a9e90611b8a565b60006040518083038185875af1925050503d8060008114610adb576040519150601f19603f3d011682016040523d82523d6000602084013e610ae0565b606091505b5050905080610b1b576040517ff499da2000000000000000000000000000000000000000000000000000000000815260040160405180910390fd5b7f7fcf532c15f0a6db0bd6d0e038bea71d30d808c7d98cb3bf7268a95bf5081b653384604051610b4c929190611b9f565b60405180910390a150505050610b60610dfc565b50505050565b60076020528060005260406000206000915054906101000a900460ff1681565b60066020528060005260406000206000915090505481565b600160009054906101000a900473ffffffffffffffffffffffffffffffffffffffff1681565b600260005403610c00576040517f3ee5aeb500000000000000000000000000000000000000000000000000000000815260040160405180910390fd5b6002600081905550565b60006009821115610c5257816040517f696ae7e4000000000000000000000000000000000000000000000000000000008152600401610c499190610e65565b60405180910390fd5b60006040518061014001604052807f1952870011f8830de55c2491b3afa717413f52441bf1fcd3136fb7db58fb09a581526020017f301b795fb7344f3bf046234240a5b66b895524cbcf47cf4be534e117a176b60181526020017f06313472f32745f4a521938f01c60cc112d03546cb00a6014607c4d1d985be8a81526020017fc0e7c514ac37d3720b1811f4ba3af0175987a80987688a44422d8724e8a1b56281526020017f239370c99c1b403ec0799e0e65a43bf2af3172b3a9a27ec4fe877137f579a76a81526020017ff3ce4c667c8f9d139ec60c5ed39d42d9cd3b641c57005657baea83e9788ca5f881526020017f35dc57b3893c812248537f75b0d7754dc4d61e5608c15d970f21736add549f8481526020017f0868e6a8756aba8fbffbab4d2d495b88473b0beeeb86fe14a5d2c70a571a196881526020017f02c1605f06250f45141948a5224dc808254a48270efadeae1be45b4b668004cf81526020017f866271d47cfa03017c5985181022d999d84730e0e8648a5ad9805bafb866d4b881525090508083600a8110610def57610dee611526565b5b6020020151915050919050565b6001600081905550565b604051806101400160405280600a90602082028036833780820191505090505090565b604051806101400160405280600a90602082028036833780820191505090505090565b6000819050919050565b610e5f81610e4c565b82525050565b6000602082019050610e7a6000830184610e56565b92915050565b6000604051905090565b600080fd5b610e9881610e4c565b8114610ea357600080fd5b50565b600081359050610eb581610e8f565b92915050565b600060208284031215610ed157610ed0610e8a565b5b6000610edf84828501610ea6565b91505092915050565b60008115159050919050565b610efd81610ee8565b82525050565b6000602082019050610f186000830184610ef4565b92915050565b600073ffffffffffffffffffffffffffffffffffffffff82169050919050565b6000610f4982610f1e565b9050919050565b610f5981610f3e565b82525050565b6000602082019050610f746000830184610f50565b92915050565b600060ff82169050919050565b610f9081610f7a565b82525050565b6000602082019050610fab6000830184610f87565b92915050565b600080fd5b6000601f19601f8301169050919050565b7f4e487b7100000000000000000000000000000000000000000000000000000000600052604160045260246000fd5b610fff82610fb6565b810181811067ffffffffffffffff8211171561101e5761101d610fc7565b5b80604052505050565b6000611031610e80565b905061103d8282610ff6565b919050565b600067ffffffffffffffff82111561105d5761105c610fc7565b5b602082029050919050565b600080fd5b600061108061107b84611042565b611027565b9050806020840283018581111561109a57611099611068565b5b835b818110156110c357806110af8882610ea6565b84526020840193505060208101905061109c565b5050509392505050565b600082601f8301126110e2576110e1610fb1565b5b60026110ef84828561106d565b91505092915050565b600067ffffffffffffffff82111561111357611112610fc7565b5b602082029050919050565b600061113161112c846110f8565b611027565b9050806040840283018581111561114b5761114a611068565b5b835b81811015611174578061116088826110cd565b84526020840193505060408101905061114d565b5050509392505050565b600082601f83011261119357611192610fb1565b5b60026111a084828561111e565b91505092915050565b60008060008061014085870312156111c4576111c3610e8a565b5b60006111d2878288016110cd565b94505060406111e38782880161117e565b93505060c06111f4878288016110cd565b925050610100611206878288016110cd565b91505092959194509250565b61121b81610f7a565b811461122657600080fd5b50565b60008135905061123881611212565b92915050565b60006020828403121561125457611253610e8a565b5b600061126284828501611229565b91505092915050565b6000819050919050565b600061129061128b61128684610f1e565b61126b565b610f1e565b9050919050565b60006112a282611275565b9050919050565b60006112b482611297565b9050919050565b6112c4816112a9565b82525050565b60006020820190506112df60008301846112bb565b92915050565b7f4e487b7100000000000000000000000000000000000000000000000000000000600052601160045260246000fd5b60008160011c9050919050565b6000808291508390505b600185111561136b57808604811115611347576113466112e5565b5b60018516156113565780820291505b808102905061136485611314565b945061132b565b94509492505050565b6000826113845760019050611440565b816113925760009050611440565b81600181146113a857600281146113b2576113e1565b6001915050611440565b60ff8411156113c4576113c36112e5565b5b8360020a9150848211156113db576113da6112e5565b5b50611440565b5060208310610133831016604e8410600b84101617156114165782820a905083811115611411576114106112e5565b5b611440565b6114238484846001611321565b9250905081840481111561143a576114396112e5565b5b81810290505b9392505050565b600061145282610e4c565b915061145d83610f7a565b925061148a7fffffffffffffffffffffffffffffffffffffffffffffffffffffffffffffffff8484611374565b905092915050565b600061149d82610e4c565b91506114a883610e4c565b92508282039050818111156114c0576114bf6112e5565b5b92915050565b7f4e487b7100000000000000000000000000000000000000000000000000000000600052601260045260246000fd5b600061150082610e4c565b915061150b83610e4c565b92508261151b5761151a6114c6565b5b828206905092915050565b7f4e487b7100000000000000000000000000000000000000000000000000000000600052603260045260246000fd5b600081519050919050565b600082825260208201905092915050565b6000819050602082019050919050565b61158a81610e4c565b82525050565b600061159c8383611581565b60208301905092915050565b6000602082019050919050565b60006115c082611555565b6115ca8185611560565b93506115d583611571565b8060005b838110156116065781516115ed8882611590565b97506115f8836115a8565b9250506001810190506115d9565b5085935050505092915050565b6000604082019050818103600083015261162d81856115b5565b905061163c6020830184610e56565b9392505050565b60008151905061165281610e8f565b92915050565b60006020828403121561166e5761166d610e8a565b5b600061167c84828501611643565b91505092915050565b600061169082610e4c565b915061169b83610e4c565b9250826116ab576116aa6114c6565b5b828204905092915050565b60006116c182610f7a565b915060ff82036116d4576116d36112e5565b5b600182019050919050565b60006116ea82610e4c565b91507fffffffffffffffffffffffffffffffffffffffffffffffffffffffffffffffff820361171c5761171b6112e5565b5b600182019050919050565b6000600a9050919050565b600081905092915050565b6000819050919050565b6000602082019050919050565b61175d81611727565b6117678184611732565b92506117728261173d565b8060005b838110156117a357815161178a8782611590565b965061179583611747565b925050600181019050611776565b505050505050565b6000600a9050919050565b600081905092915050565b6000819050919050565b6117d481610f7a565b82525050565b60006117e683836117cb565b60208301905092915050565b6000602082019050919050565b611808816117ab565b61181281846117b6565b925061181d826117c1565b8060005b8381101561184e57815161183587826117da565b9650611840836117f2565b925050600181019050611821565b505050505050565b60006102a08201905061186c6000830186610e56565b6118796020830185611754565b6118876101608301846117ff565b949350505050565b600060029050919050565b600081905092915050565b6000819050919050565b6000602082019050919050565b6118c58161188f565b6118cf818461189a565b92506118da826118a5565b8060005b8381101561190b5781516118f28782611590565b96506118fd836118af565b9250506001810190506118de565b505050505050565b600060029050919050565b600081905092915050565b6000819050919050565b600081905092915050565b6119478161188f565b6119518184611933565b925061195c826118a5565b8060005b8381101561198d5781516119748782611590565b965061197f836118af565b925050600181019050611960565b505050505050565b60006119a1838361193e565b60408301905092915050565b6000602082019050919050565b6119c381611913565b6119cd818461191e565b92506119d882611929565b8060005b83811015611a095781516119f08782611995565b96506119fb836119ad565b9250506001810190506119dc565b505050505050565b600060039050919050565b600081905092915050565b6000819050919050565b6000602082019050919050565b611a4781611a11565b611a518184611a1c565b9250611a5c82611a27565b8060005b83811015611a8d578151611a748782611590565b9650611a7f83611a31565b925050600181019050611a60565b505050505050565b600061016082019050611aab60008301876118bc565b611ab860408301866119ba565b611ac560c08301856118bc565b611ad3610100830184611a3e565b95945050505050565b600081519050919050565b600081905092915050565b60005b83811015611b10578082015181840152602081019050611af5565b60008484015250505050565b6000611b2782611adc565b611b318185611ae7565b9350611b41818560208601611af2565b80840191505092915050565b6000611b598284611b1c565b915081905092915050565b50565b6000611b74600083611ae7565b9150611b7f82611b64565b600082019050919050565b6000611b9582611b67565b9150819050919050565b6000604082019050611bb46000830185610f50565b611bc16020830184610e56565b939250505056fea2646970667358221220e5176d6481ea43745da49c88699254c1acfb229ea782c2a2340fb920a71ef68564736f6c63430008140033","opcodes":"PUSH1 0x80 PUSH1 0x40 MSTORE PUSH1 0xA PUSH1 0x2 PUSH1 0x14 PUSH2 0x100 EXP DUP2 SLOAD DUP2 PUSH1 0xFF MUL NOT AND SWAP1 DUP4 PUSH1 0xFF AND MUL OR SWAP1 SSTORE POP PUSH8 0x16345785D8A0000 PUSH1 0x3 SSTORE CALLVALUE DUP1 ISZERO PUSH3 0x39 JUMPI PUSH1 0x0 DUP1 REVERT JUMPDEST POP PUSH1 0x40 MLOAD PUSH3 0x1DB0 CODESIZE SUB DUP1 PUSH3 0x1DB0 DUP4 CODECOPY DUP2 DUP2 ADD PUSH1 0x40 MSTORE DUP2 ADD SWAP1 PUSH3 0x5F SWAP2 SWAP1 PUSH3 0x15B JUMP JUMPDEST PUSH1 0x1 PUSH1 0x0 DUP2 SWAP1 SSTORE POP DUP2 PUSH1 0x1 PUSH1 0x0 PUSH2 0x100 EXP DUP2 SLOAD DUP2 PUSH20 0xFFFFFFFFFFFFFFFFFFFFFFFFFFFFFFFFFFFFFFFF MUL NOT AND SWAP1 DUP4 PUSH20 0xFFFFFFFFFFFFFFFFFFFFFFFFFFFFFFFFFFFFFFFF AND MUL OR SWAP1 SSTORE POP DUP1 PUSH1 0x2 PUSH1 0x0 PUSH2 0x100 EXP DUP2 SLOAD DUP2 PUSH20 0xFFFFFFFFFFFFFFFFFFFFFFFFFFFFFFFFFFFFFFFF MUL NOT AND SWAP1 DUP4 PUSH20 0xFFFFFFFFFFFFFFFFFFFFFFFFFFFFFFFFFFFFFFFF AND MUL OR SWAP1 SSTORE POP POP POP PUSH3 0x1A2 JUMP JUMPDEST PUSH1 0x0 DUP1 REVERT JUMPDEST PUSH1 0x0 PUSH20 0xFFFFFFFFFFFFFFFFFFFFFFFFFFFFFFFFFFFFFFFF DUP3 AND SWAP1 POP SWAP2 SWAP1 POP JUMP JUMPDEST PUSH1 0x0 PUSH3 0x123 DUP3 PUSH3 0xF6 JUMP JUMPDEST SWAP1 POP SWAP2 SWAP1 POP JUMP JUMPDEST PUSH3 0x135 DUP2 PUSH3 0x116 JUMP JUMPDEST DUP2 EQ PUSH3 0x141 JUMPI PUSH1 0x0 DUP1 REVERT JUMPDEST POP JUMP JUMPDEST PUSH1 0x0 DUP2 MLOAD SWAP1 POP PUSH3 0x155 DUP2 PUSH3 0x12A JUMP JUMPDEST SWAP3 SWAP2 POP POP JUMP JUMPDEST PUSH1 0x0 DUP1 PUSH1 0x40 DUP4 DUP6 SUB SLT ISZERO PUSH3 0x175 JUMPI PUSH3 0x174 PUSH3 0xF1 JUMP JUMPDEST JUMPDEST PUSH1 0x0 PUSH3 0x185 DUP6 DUP3 DUP7 ADD PUSH3 0x144 JUMP JUMPDEST SWAP3 POP POP PUSH1 0x20 PUSH3 0x198 DUP6 DUP3 DUP7 ADD PUSH3 0x144 JUMP JUMPDEST SWAP2 POP POP SWAP3 POP SWAP3 SWAP1 POP JUMP JUMPDEST PUSH2 0x1BFE DUP1 PUSH3 0x1B2 PUSH1 0x0 CODECOPY PUSH1 0x0 RETURN INVALID PUSH1 0x80 PUSH1 0x40 MSTORE PUSH1 0x4 CALLDATASIZE LT PUSH2 0x9C JUMPI PUSH1 0x0 CALLDATALOAD PUSH1 0xE0 SHR DUP1 PUSH4 0xB6B55F25 GT PUSH2 0x64 JUMPI DUP1 PUSH4 0xB6B55F25 EQ PUSH2 0x19C JUMPI DUP1 PUSH4 0xB8E79564 EQ PUSH2 0x1B8 JUMPI DUP1 PUSH4 0xC78784D7 EQ PUSH2 0x1E3 JUMPI DUP1 PUSH4 0xD21E82AB EQ PUSH2 0x20C JUMPI DUP1 PUSH4 0xD5400047 EQ PUSH2 0x249 JUMPI DUP1 PUSH4 0xED33639F EQ PUSH2 0x286 JUMPI PUSH2 0x9C JUMP JUMPDEST DUP1 PUSH4 0xBE4F422 EQ PUSH2 0xA1 JUMPI DUP1 PUSH4 0x12AD7381 EQ PUSH2 0xCC JUMPI DUP1 PUSH4 0x2B7AC3F3 EQ PUSH2 0x109 JUMPI DUP1 PUSH4 0x49CE8997 EQ PUSH2 0x134 JUMPI DUP1 PUSH4 0x8BCA6D16 EQ PUSH2 0x171 JUMPI JUMPDEST PUSH1 0x0 DUP1 REVERT JUMPDEST CALLVALUE DUP1 ISZERO PUSH2 0xAD JUMPI PUSH1 0x0 DUP1 REVERT JUMPDEST POP PUSH2 0xB6 PUSH2 0x2B1 JUMP JUMPDEST PUSH1 0x40 MLOAD PUSH2 0xC3 SWAP2 SWAP1 PUSH2 0xE65 JUMP JUMPDEST PUSH1 0x40 MLOAD DUP1 SWAP2 SUB SWAP1 RETURN JUMPDEST CALLVALUE DUP1 ISZERO PUSH2 0xD8 JUMPI PUSH1 0x0 DUP1 REVERT JUMPDEST POP PUSH2 0xF3 PUSH1 0x4 DUP1 CALLDATASIZE SUB DUP2 ADD SWAP1 PUSH2 0xEE SWAP2 SWAP1 PUSH2 0xEBB JUMP JUMPDEST PUSH2 0x2B7 JUMP JUMPDEST PUSH1 0x40 MLOAD PUSH2 0x100 SWAP2 SWAP1 PUSH2 0xF03 JUMP JUMPDEST PUSH1 0x40 MLOAD DUP1 SWAP2 SUB SWAP1 RETURN JUMPDEST CALLVALUE DUP1 ISZERO PUSH2 0x115 JUMPI PUSH1 0x0 DUP1 REVERT JUMPDEST POP PUSH2 0x11E PUSH2 0x2D7 JUMP JUMPDEST PUSH1 0x40 MLOAD PUSH2 0x12B SWAP2 SWAP1 PUSH2 0xF5F JUMP JUMPDEST PUSH1 0x40 MLOAD DUP1 SWAP2 SUB SWAP1 RETURN JUMPDEST CALLVALUE DUP1 ISZERO PUSH2 0x140 JUMPI PUSH1 0x0 DUP1 REVERT JUMPDEST POP PUSH2 0x15B PUSH1 0x4 DUP1 CALLDATASIZE SUB DUP2 ADD SWAP1 PUSH2 0x156 SWAP2 SWAP1 PUSH2 0xEBB JUMP JUMPDEST PUSH2 0x2FD JUMP JUMPDEST PUSH1 0x40 MLOAD PUSH2 0x168 SWAP2 SWAP1 PUSH2 0xF03 JUMP JUMPDEST PUSH1 0x40 MLOAD DUP1 SWAP2 SUB SWAP1 RETURN JUMPDEST CALLVALUE DUP1 ISZERO PUSH2 0x17D JUMPI PUSH1 0x0 DUP1 REVERT JUMPDEST POP PUSH2 0x186 PUSH2 0x31D JUMP JUMPDEST PUSH1 0x40 MLOAD PUSH2 0x193 SWAP2 SWAP1 PUSH2 0xE65 JUMP JUMPDEST PUSH1 0x40 MLOAD DUP1 SWAP2 SUB SWAP1 RETURN JUMPDEST PUSH2 0x1B6 PUSH1 0x4 DUP1 CALLDATASIZE SUB DUP2 ADD SWAP1 PUSH2 0x1B1 SWAP2 SWAP1 PUSH2 0xEBB JUMP JUMPDEST PUSH2 0x323 JUMP JUMPDEST STOP JUMPDEST CALLVALUE DUP1 ISZERO PUSH2 0x1C4 JUMPI PUSH1 0x0 DUP1 REVERT JUMPDEST POP PUSH2 0x1CD PUSH2 0x7BD JUMP JUMPDEST PUSH1 0x40 MLOAD PUSH2 0x1DA SWAP2 SWAP1 PUSH2 0xF96 JUMP JUMPDEST PUSH1 0x40 MLOAD DUP1 SWAP2 SUB SWAP1 RETURN JUMPDEST CALLVALUE DUP1 ISZERO PUSH2 0x1EF JUMPI PUSH1 0x0 DUP1 REVERT JUMPDEST POP PUSH2 0x20A PUSH1 0x4 DUP1 CALLDATASIZE SUB DUP2 ADD SWAP1 PUSH2 0x205 SWAP2 SWAP1 PUSH2 0x11A9 JUMP JUMPDEST PUSH2 0x7D0 JUMP JUMPDEST STOP JUMPDEST CALLVALUE DUP1 ISZERO PUSH2 0x218 JUMPI PUSH1 0x0 DUP1 REVERT JUMPDEST POP PUSH2 0x233 PUSH1 0x4 DUP1 CALLDATASIZE SUB DUP2 ADD SWAP1 PUSH2 0x22E SWAP2 SWAP1 PUSH2 0xEBB JUMP JUMPDEST PUSH2 0xB66 JUMP JUMPDEST PUSH1 0x40 MLOAD PUSH2 0x240 SWAP2 SWAP1 PUSH2 0xF03 JUMP JUMPDEST PUSH1 0x40 MLOAD DUP1 SWAP2 SUB SWAP1 RETURN JUMPDEST CALLVALUE DUP1 ISZERO PUSH2 0x255 JUMPI PUSH1 0x0 DUP1 REVERT JUMPDEST POP PUSH2 0x270 PUSH1 0x4 DUP1 CALLDATASIZE SUB DUP2 ADD SWAP1 PUSH2 0x26B SWAP2 SWAP1 PUSH2 0x123E JUMP JUMPDEST PUSH2 0xB86 JUMP JUMPDEST PUSH1 0x40 MLOAD PUSH2 0x27D SWAP2 SWAP1 PUSH2 0xE65 JUMP JUMPDEST PUSH1 0x40 MLOAD DUP1 SWAP2 SUB SWAP1 RETURN JUMPDEST CALLVALUE DUP1 ISZERO PUSH2 0x292 JUMPI PUSH1 0x0 DUP1 REVERT JUMPDEST POP PUSH2 0x29B PUSH2 0xB9E JUMP JUMPDEST PUSH1 0x40 MLOAD PUSH2 0x2A8 SWAP2 SWAP1 PUSH2 0x12CA JUMP JUMPDEST PUSH1 0x40 MLOAD DUP1 SWAP2 SUB SWAP1 RETURN JUMPDEST PUSH1 0x4 SLOAD DUP2 JUMP JUMPDEST PUSH1 0x5 PUSH1 0x20 MSTORE DUP1 PUSH1 0x0 MSTORE PUSH1 0x40 PUSH1 0x0 KECCAK256 PUSH1 0x0 SWAP2 POP SLOAD SWAP1 PUSH2 0x100 EXP SWAP1 DIV PUSH1 0xFF AND DUP2 JUMP JUMPDEST PUSH1 0x2 PUSH1 0x0 SWAP1 SLOAD SWAP1 PUSH2 0x100 EXP SWAP1 DIV PUSH20 0xFFFFFFFFFFFFFFFFFFFFFFFFFFFFFFFFFFFFFFFF AND DUP2 JUMP JUMPDEST PUSH1 0x8 PUSH1 0x20 MSTORE DUP1 PUSH1 0x0 MSTORE PUSH1 0x40 PUSH1 0x0 KECCAK256 PUSH1 0x0 SWAP2 POP SLOAD SWAP1 PUSH2 0x100 EXP SWAP1 DIV PUSH1 0xFF AND DUP2 JUMP JUMPDEST PUSH1 0x3 SLOAD DUP2 JUMP JUMPDEST PUSH2 0x32B PUSH2 0xBC4 JUMP JUMPDEST PUSH1 0x3 SLOAD CALLVALUE EQ PUSH2 0x371 JUMPI CALLVALUE PUSH1 0x40 MLOAD PUSH32 0x172624DE00000000000000000000000000000000000000000000000000000000 DUP2 MSTORE PUSH1 0x4 ADD PUSH2 0x368 SWAP2 SWAP1 PUSH2 0xE65 JUMP JUMPDEST PUSH1 0x40 MLOAD DUP1 SWAP2 SUB SWAP1 REVERT JUMPDEST PUSH1 0x8 PUSH1 0x0 DUP3 DUP2 MSTORE PUSH1 0x20 ADD SWAP1 DUP2 MSTORE PUSH1 0x20 ADD PUSH1 0x0 KECCAK256 PUSH1 0x0 SWAP1 SLOAD SWAP1 PUSH2 0x100 EXP SWAP1 DIV PUSH1 0xFF AND ISZERO PUSH2 0x3D4 JUMPI DUP1 PUSH1 0x40 MLOAD PUSH32 0x758B553900000000000000000000000000000000000000000000000000000000 DUP2 MSTORE PUSH1 0x4 ADD PUSH2 0x3CB SWAP2 SWAP1 PUSH2 0xE65 JUMP JUMPDEST PUSH1 0x40 MLOAD DUP1 SWAP2 SUB SWAP1 REVERT JUMPDEST PUSH1 0x1 PUSH1 0x2 PUSH1 0x14 SWAP1 SLOAD SWAP1 PUSH2 0x100 EXP SWAP1 DIV PUSH1 0xFF AND PUSH1 0x2 PUSH2 0x3F2 SWAP2 SWAP1 PUSH2 0x1447 JUMP JUMPDEST PUSH2 0x3FC SWAP2 SWAP1 PUSH2 0x1492 JUMP JUMPDEST PUSH1 0x4 SLOAD GT ISZERO PUSH2 0x437 JUMPI PUSH1 0x40 MLOAD PUSH32 0xEF5CCF6600000000000000000000000000000000000000000000000000000000 DUP2 MSTORE PUSH1 0x4 ADD PUSH1 0x40 MLOAD DUP1 SWAP2 SUB SWAP1 REVERT JUMPDEST PUSH1 0x0 PUSH2 0x441 PUSH2 0xE06 JUMP JUMPDEST PUSH2 0x449 PUSH2 0xE29 JUMP JUMPDEST PUSH1 0x0 PUSH1 0x4 SLOAD SWAP1 POP PUSH1 0x0 DUP6 SWAP1 POP PUSH1 0x0 DUP1 PUSH1 0x0 PUSH1 0x2 PUSH8 0xFFFFFFFFFFFFFFFF DUP2 GT ISZERO PUSH2 0x475 JUMPI PUSH2 0x474 PUSH2 0xFC7 JUMP JUMPDEST JUMPDEST PUSH1 0x40 MLOAD SWAP1 DUP1 DUP3 MSTORE DUP1 PUSH1 0x20 MUL PUSH1 0x20 ADD DUP3 ADD PUSH1 0x40 MSTORE DUP1 ISZERO PUSH2 0x4A3 JUMPI DUP2 PUSH1 0x20 ADD PUSH1 0x20 DUP3 MUL DUP1 CALLDATASIZE DUP4 CALLDATACOPY DUP1 DUP3 ADD SWAP2 POP POP SWAP1 POP JUMPDEST POP SWAP1 POP PUSH1 0x0 JUMPDEST PUSH1 0x2 PUSH1 0x14 SWAP1 SLOAD SWAP1 PUSH2 0x100 EXP SWAP1 DIV PUSH1 0xFF AND PUSH1 0xFF AND DUP2 PUSH1 0xFF AND LT ISZERO PUSH2 0x6FD JUMPI DUP5 PUSH1 0x6 PUSH1 0x0 PUSH1 0x2 PUSH1 0x14 SWAP1 SLOAD SWAP1 PUSH2 0x100 EXP SWAP1 DIV PUSH1 0xFF AND PUSH1 0xFF AND PUSH1 0xFF AND DUP2 MSTORE PUSH1 0x20 ADD SWAP1 DUP2 MSTORE PUSH1 0x20 ADD PUSH1 0x0 KECCAK256 DUP2 SWAP1 SSTORE POP PUSH1 0x0 PUSH1 0x2 DUP8 PUSH2 0x502 SWAP2 SWAP1 PUSH2 0x14F5 JUMP JUMPDEST SUB PUSH2 0x571 JUMPI DUP5 SWAP3 POP PUSH2 0x516 DUP2 PUSH1 0xFF AND PUSH2 0xC0A JUMP JUMPDEST SWAP4 POP PUSH2 0x524 DUP2 PUSH1 0xFF AND PUSH2 0xC0A JUMP JUMPDEST DUP9 DUP3 PUSH1 0xFF AND PUSH1 0xA DUP2 LT PUSH2 0x53A JUMPI PUSH2 0x539 PUSH2 0x1526 JUMP JUMPDEST JUMPDEST PUSH1 0x20 MUL ADD DUP2 DUP2 MSTORE POP POP PUSH1 0x0 DUP8 DUP3 PUSH1 0xFF AND PUSH1 0xA DUP2 LT PUSH2 0x55B JUMPI PUSH2 0x55A PUSH2 0x1526 JUMP JUMPDEST JUMPDEST PUSH1 0x20 MUL ADD SWAP1 PUSH1 0xFF AND SWAP1 DUP2 PUSH1 0xFF AND DUP2 MSTORE POP POP PUSH2 0x5F3 JUMP JUMPDEST PUSH1 0x6 PUSH1 0x0 DUP3 PUSH1 0xFF AND PUSH1 0xFF AND DUP2 MSTORE PUSH1 0x20 ADD SWAP1 DUP2 MSTORE PUSH1 0x20 ADD PUSH1 0x0 KECCAK256 SLOAD SWAP3 POP DUP5 SWAP4 POP PUSH1 0x6 PUSH1 0x0 DUP3 PUSH1 0xFF AND PUSH1 0xFF AND DUP2 MSTORE PUSH1 0x20 ADD SWAP1 DUP2 MSTORE PUSH1 0x20 ADD PUSH1 0x0 KECCAK256 SLOAD DUP9 DUP3 PUSH1 0xFF AND PUSH1 0xA DUP2 LT PUSH2 0x5C0 JUMPI PUSH2 0x5BF PUSH2 0x1526 JUMP JUMPDEST JUMPDEST PUSH1 0x20 MUL ADD DUP2 DUP2 MSTORE POP POP PUSH1 0x1 DUP8 DUP3 PUSH1 0xFF AND PUSH1 0xA DUP2 LT PUSH2 0x5E1 JUMPI PUSH2 0x5E0 PUSH2 0x1526 JUMP JUMPDEST JUMPDEST PUSH1 0x20 MUL ADD SWAP1 PUSH1 0xFF AND SWAP1 DUP2 PUSH1 0xFF AND DUP2 MSTORE POP POP JUMPDEST DUP3 DUP3 PUSH1 0x0 DUP2 MLOAD DUP2 LT PUSH2 0x608 JUMPI PUSH2 0x607 PUSH2 0x1526 JUMP JUMPDEST JUMPDEST PUSH1 0x20 MUL PUSH1 0x20 ADD ADD DUP2 DUP2 MSTORE POP POP DUP4 DUP3 PUSH1 0x1 DUP2 MLOAD DUP2 LT PUSH2 0x629 JUMPI PUSH2 0x628 PUSH2 0x1526 JUMP JUMPDEST JUMPDEST PUSH1 0x20 MUL PUSH1 0x20 ADD ADD DUP2 DUP2 MSTORE POP POP PUSH1 0x0 PUSH1 0x1 PUSH1 0x0 SWAP1 SLOAD SWAP1 PUSH2 0x100 EXP SWAP1 DIV PUSH20 0xFFFFFFFFFFFFFFFFFFFFFFFFFFFFFFFFFFFFFFFF AND PUSH20 0xFFFFFFFFFFFFFFFFFFFFFFFFFFFFFFFFFFFFFFFF AND PUSH4 0x2357940F DUP5 DUP14 PUSH1 0x40 MLOAD DUP4 PUSH4 0xFFFFFFFF AND PUSH1 0xE0 SHL DUP2 MSTORE PUSH1 0x4 ADD PUSH2 0x694 SWAP3 SWAP2 SWAP1 PUSH2 0x1613 JUMP JUMPDEST PUSH1 0x20 PUSH1 0x40 MLOAD DUP1 DUP4 SUB DUP2 DUP7 GAS STATICCALL ISZERO DUP1 ISZERO PUSH2 0x6B1 JUMPI RETURNDATASIZE PUSH1 0x0 DUP1 RETURNDATACOPY RETURNDATASIZE PUSH1 0x0 REVERT JUMPDEST POP POP POP POP PUSH1 0x40 MLOAD RETURNDATASIZE PUSH1 0x1F NOT PUSH1 0x1F DUP3 ADD AND DUP3 ADD DUP1 PUSH1 0x40 MSTORE POP DUP2 ADD SWAP1 PUSH2 0x6D5 SWAP2 SWAP1 PUSH2 0x1658 JUMP JUMPDEST SWAP1 POP DUP1 SWAP6 POP PUSH1 0x2 DUP8 PUSH2 0x6E7 SWAP2 SWAP1 PUSH2 0x1685 JUMP JUMPDEST SWAP7 POP POP DUP1 DUP1 PUSH2 0x6F5 SWAP1 PUSH2 0x16B6 JUMP JUMPDEST SWAP2 POP POP PUSH2 0x4A9 JUMP JUMPDEST POP DUP4 SWAP8 POP PUSH1 0x1 PUSH1 0x5 PUSH1 0x0 DUP11 DUP2 MSTORE PUSH1 0x20 ADD SWAP1 DUP2 MSTORE PUSH1 0x20 ADD PUSH1 0x0 KECCAK256 PUSH1 0x0 PUSH2 0x100 EXP DUP2 SLOAD DUP2 PUSH1 0xFF MUL NOT AND SWAP1 DUP4 ISZERO ISZERO MUL OR SWAP1 SSTORE POP PUSH1 0x4 PUSH1 0x0 DUP2 SLOAD PUSH2 0x73C SWAP1 PUSH2 0x16DF JUMP JUMPDEST SWAP2 SWAP1 POP DUP2 SWAP1 SSTORE POP PUSH1 0x1 PUSH1 0x8 PUSH1 0x0 DUP12 DUP2 MSTORE PUSH1 0x20 ADD SWAP1 DUP2 MSTORE PUSH1 0x20 ADD PUSH1 0x0 KECCAK256 PUSH1 0x0 PUSH2 0x100 EXP DUP2 SLOAD DUP2 PUSH1 0xFF MUL NOT AND SWAP1 DUP4 ISZERO ISZERO MUL OR SWAP1 SSTORE POP PUSH32 0xE6AB8667CB740D6C65A4AD321C031EB42F6C5085D5753238D1B2E1E370C13483 DUP9 DUP9 DUP9 PUSH1 0x40 MLOAD PUSH2 0x7A2 SWAP4 SWAP3 SWAP2 SWAP1 PUSH2 0x1856 JUMP JUMPDEST PUSH1 0x40 MLOAD DUP1 SWAP2 SUB SWAP1 LOG1 POP POP POP POP POP POP POP POP PUSH2 0x7BA PUSH2 0xDFC JUMP JUMPDEST POP JUMP JUMPDEST PUSH1 0x2 PUSH1 0x14 SWAP1 SLOAD SWAP1 PUSH2 0x100 EXP SWAP1 DIV PUSH1 0xFF AND DUP2 JUMP JUMPDEST PUSH2 0x7D8 PUSH2 0xBC4 JUMP JUMPDEST PUSH1 0x0 DUP2 PUSH1 0x0 PUSH1 0x2 DUP2 LT PUSH2 0x7EE JUMPI PUSH2 0x7ED PUSH2 0x1526 JUMP JUMPDEST JUMPDEST PUSH1 0x20 MUL ADD MLOAD SWAP1 POP PUSH1 0x0 DUP3 PUSH1 0x1 PUSH1 0x2 DUP2 LT PUSH2 0x80B JUMPI PUSH2 0x80A PUSH2 0x1526 JUMP JUMPDEST JUMPDEST PUSH1 0x20 MUL ADD MLOAD SWAP1 POP PUSH1 0x5 PUSH1 0x0 DUP4 DUP2 MSTORE PUSH1 0x20 ADD SWAP1 DUP2 MSTORE PUSH1 0x20 ADD PUSH1 0x0 KECCAK256 PUSH1 0x0 SWAP1 SLOAD SWAP1 PUSH2 0x100 EXP SWAP1 DIV PUSH1 0xFF AND PUSH2 0x869 JUMPI PUSH1 0x40 MLOAD PUSH32 0x504570E300000000000000000000000000000000000000000000000000000000 DUP2 MSTORE PUSH1 0x4 ADD PUSH1 0x40 MLOAD DUP1 SWAP2 SUB SWAP1 REVERT JUMPDEST PUSH1 0x7 PUSH1 0x0 DUP3 DUP2 MSTORE PUSH1 0x20 ADD SWAP1 DUP2 MSTORE PUSH1 0x20 ADD PUSH1 0x0 KECCAK256 PUSH1 0x0 SWAP1 SLOAD SWAP1 PUSH2 0x100 EXP SWAP1 DIV PUSH1 0xFF AND ISZERO PUSH2 0x8C1 JUMPI PUSH1 0x40 MLOAD PUSH32 0xCAD2AE0200000000000000000000000000000000000000000000000000000000 DUP2 MSTORE PUSH1 0x4 ADD PUSH1 0x40 MLOAD DUP1 SWAP2 SUB SWAP1 REVERT JUMPDEST PUSH1 0x0 PUSH1 0x2 PUSH1 0x0 SWAP1 SLOAD SWAP1 PUSH2 0x100 EXP SWAP1 DIV PUSH20 0xFFFFFFFFFFFFFFFFFFFFFFFFFFFFFFFFFFFFFFFF AND PUSH20 0xFFFFFFFFFFFFFFFFFFFFFFFFFFFFFFFFFFFFFFFF AND DUP8 DUP8 DUP8 PUSH1 0x40 MLOAD DUP1 PUSH1 0x60 ADD PUSH1 0x40 MSTORE DUP1 DUP9 DUP2 MSTORE PUSH1 0x20 ADD DUP8 DUP2 MSTORE PUSH1 0x20 ADD CALLER PUSH20 0xFFFFFFFFFFFFFFFFFFFFFFFFFFFFFFFFFFFFFFFF AND DUP2 MSTORE POP PUSH1 0x40 MLOAD PUSH1 0x24 ADD PUSH2 0x943 SWAP5 SWAP4 SWAP3 SWAP2 SWAP1 PUSH2 0x1A95 JUMP JUMPDEST PUSH1 0x40 MLOAD PUSH1 0x20 DUP2 DUP4 SUB SUB DUP2 MSTORE SWAP1 PUSH1 0x40 MSTORE PUSH32 0x11479FEA00000000000000000000000000000000000000000000000000000000 PUSH28 0xFFFFFFFFFFFFFFFFFFFFFFFFFFFFFFFFFFFFFFFFFFFFFFFFFFFFFFFF NOT AND PUSH1 0x20 DUP3 ADD DUP1 MLOAD PUSH28 0xFFFFFFFFFFFFFFFFFFFFFFFFFFFFFFFFFFFFFFFFFFFFFFFFFFFFFFFF DUP4 DUP2 DUP4 AND OR DUP4 MSTORE POP POP POP POP PUSH1 0x40 MLOAD PUSH2 0x9CD SWAP2 SWAP1 PUSH2 0x1B4D JUMP JUMPDEST PUSH1 0x0 PUSH1 0x40 MLOAD DUP1 DUP4 SUB DUP2 PUSH1 0x0 DUP7 GAS CALL SWAP2 POP POP RETURNDATASIZE DUP1 PUSH1 0x0 DUP2 EQ PUSH2 0xA0A JUMPI PUSH1 0x40 MLOAD SWAP2 POP PUSH1 0x1F NOT PUSH1 0x3F RETURNDATASIZE ADD AND DUP3 ADD PUSH1 0x40 MSTORE RETURNDATASIZE DUP3 MSTORE RETURNDATASIZE PUSH1 0x0 PUSH1 0x20 DUP5 ADD RETURNDATACOPY PUSH2 0xA0F JUMP JUMPDEST PUSH1 0x60 SWAP2 POP JUMPDEST POP POP SWAP1 POP DUP1 PUSH2 0xA4A JUMPI PUSH1 0x40 MLOAD PUSH32 0x9BDE33900000000000000000000000000000000000000000000000000000000 DUP2 MSTORE PUSH1 0x4 ADD PUSH1 0x40 MLOAD DUP1 SWAP2 SUB SWAP1 REVERT JUMPDEST PUSH1 0x1 PUSH1 0x7 PUSH1 0x0 DUP5 DUP2 MSTORE PUSH1 0x20 ADD SWAP1 DUP2 MSTORE PUSH1 0x20 ADD PUSH1 0x0 KECCAK256 PUSH1 0x0 PUSH2 0x100 EXP DUP2 SLOAD DUP2 PUSH1 0xFF MUL NOT AND SWAP1 DUP4 ISZERO ISZERO MUL OR SWAP1 SSTORE POP PUSH1 0x0 CALLER PUSH20 0xFFFFFFFFFFFFFFFFFFFFFFFFFFFFFFFFFFFFFFFF AND PUSH1 0x3 SLOAD PUSH1 0x40 MLOAD PUSH2 0xA9E SWAP1 PUSH2 0x1B8A JUMP JUMPDEST PUSH1 0x0 PUSH1 0x40 MLOAD DUP1 DUP4 SUB DUP2 DUP6 DUP8 GAS CALL SWAP3 POP POP POP RETURNDATASIZE DUP1 PUSH1 0x0 DUP2 EQ PUSH2 0xADB JUMPI PUSH1 0x40 MLOAD SWAP2 POP PUSH1 0x1F NOT PUSH1 0x3F RETURNDATASIZE ADD AND DUP3 ADD PUSH1 0x40 MSTORE RETURNDATASIZE DUP3 MSTORE RETURNDATASIZE PUSH1 0x0 PUSH1 0x20 DUP5 ADD RETURNDATACOPY PUSH2 0xAE0 JUMP JUMPDEST PUSH1 0x60 SWAP2 POP JUMPDEST POP POP SWAP1 POP DUP1 PUSH2 0xB1B JUMPI PUSH1 0x40 MLOAD PUSH32 0xF499DA2000000000000000000000000000000000000000000000000000000000 DUP2 MSTORE PUSH1 0x4 ADD PUSH1 0x40 MLOAD DUP1 SWAP2 SUB SWAP1 REVERT JUMPDEST PUSH32 0x7FCF532C15F0A6DB0BD6D0E038BEA71D30D808C7D98CB3BF7268A95BF5081B65 CALLER DUP5 PUSH1 0x40 MLOAD PUSH2 0xB4C SWAP3 SWAP2 SWAP1 PUSH2 0x1B9F JUMP JUMPDEST PUSH1 0x40 MLOAD DUP1 SWAP2 SUB SWAP1 LOG1 POP POP POP POP PUSH2 0xB60 PUSH2 0xDFC JUMP JUMPDEST POP POP POP POP JUMP JUMPDEST PUSH1 0x7 PUSH1 0x20 MSTORE DUP1 PUSH1 0x0 MSTORE PUSH1 0x40 PUSH1 0x0 KECCAK256 PUSH1 0x0 SWAP2 POP SLOAD SWAP1 PUSH2 0x100 EXP SWAP1 DIV PUSH1 0xFF AND DUP2 JUMP JUMPDEST PUSH1 0x6 PUSH1 0x20 MSTORE DUP1 PUSH1 0x0 MSTORE PUSH1 0x40 PUSH1 0x0 KECCAK256 PUSH1 0x0 SWAP2 POP SWAP1 POP SLOAD DUP2 JUMP JUMPDEST PUSH1 0x1 PUSH1 0x0 SWAP1 SLOAD SWAP1 PUSH2 0x100 EXP SWAP1 DIV PUSH20 0xFFFFFFFFFFFFFFFFFFFFFFFFFFFFFFFFFFFFFFFF AND DUP2 JUMP JUMPDEST PUSH1 0x2 PUSH1 0x0 SLOAD SUB PUSH2 0xC00 JUMPI PUSH1 0x40 MLOAD PUSH32 0x3EE5AEB500000000000000000000000000000000000000000000000000000000 DUP2 MSTORE PUSH1 0x4 ADD PUSH1 0x40 MLOAD DUP1 SWAP2 SUB SWAP1 REVERT JUMPDEST PUSH1 0x2 PUSH1 0x0 DUP2 SWAP1 SSTORE POP JUMP JUMPDEST PUSH1 0x0 PUSH1 0x9 DUP3 GT ISZERO PUSH2 0xC52 JUMPI DUP2 PUSH1 0x40 MLOAD PUSH32 0x696AE7E400000000000000000000000000000000000000000000000000000000 DUP2 MSTORE PUSH1 0x4 ADD PUSH2 0xC49 SWAP2 SWAP1 PUSH2 0xE65 JUMP JUMPDEST PUSH1 0x40 MLOAD DUP1 SWAP2 SUB SWAP1 REVERT JUMPDEST PUSH1 0x0 PUSH1 0x40 MLOAD DUP1 PUSH2 0x140 ADD PUSH1 0x40 MSTORE DUP1 PUSH32 0x1952870011F8830DE55C2491B3AFA717413F52441BF1FCD3136FB7DB58FB09A5 DUP2 MSTORE PUSH1 0x20 ADD PUSH32 0x301B795FB7344F3BF046234240A5B66B895524CBCF47CF4BE534E117A176B601 DUP2 MSTORE PUSH1 0x20 ADD PUSH32 0x6313472F32745F4A521938F01C60CC112D03546CB00A6014607C4D1D985BE8A DUP2 MSTORE PUSH1 0x20 ADD PUSH32 0xC0E7C514AC37D3720B1811F4BA3AF0175987A80987688A44422D8724E8A1B562 DUP2 MSTORE PUSH1 0x20 ADD PUSH32 0x239370C99C1B403EC0799E0E65A43BF2AF3172B3A9A27EC4FE877137F579A76A DUP2 MSTORE PUSH1 0x20 ADD PUSH32 0xF3CE4C667C8F9D139EC60C5ED39D42D9CD3B641C57005657BAEA83E9788CA5F8 DUP2 MSTORE PUSH1 0x20 ADD PUSH32 0x35DC57B3893C812248537F75B0D7754DC4D61E5608C15D970F21736ADD549F84 DUP2 MSTORE PUSH1 0x20 ADD PUSH32 0x868E6A8756ABA8FBFFBAB4D2D495B88473B0BEEEB86FE14A5D2C70A571A1968 DUP2 MSTORE PUSH1 0x20 ADD PUSH32 0x2C1605F06250F45141948A5224DC808254A48270EFADEAE1BE45B4B668004CF DUP2 MSTORE PUSH1 0x20 ADD PUSH32 0x866271D47CFA03017C5985181022D999D84730E0E8648A5AD9805BAFB866D4B8 DUP2 MSTORE POP SWAP1 POP DUP1 DUP4 PUSH1 0xA DUP2 LT PUSH2 0xDEF JUMPI PUSH2 0xDEE PUSH2 0x1526 JUMP JUMPDEST JUMPDEST PUSH1 0x20 MUL ADD MLOAD SWAP2 POP POP SWAP2 SWAP1 POP JUMP JUMPDEST PUSH1 0x1 PUSH1 0x0 DUP2 SWAP1 SSTORE POP JUMP JUMPDEST PUSH1 0x40 MLOAD DUP1 PUSH2 0x140 ADD PUSH1 0x40 MSTORE DUP1 PUSH1 0xA SWAP1 PUSH1 0x20 DUP3 MUL DUP1 CALLDATASIZE DUP4 CALLDATACOPY DUP1 DUP3 ADD SWAP2 POP POP SWAP1 POP POP SWAP1 JUMP JUMPDEST PUSH1 0x40 MLOAD DUP1 PUSH2 0x140 ADD PUSH1 0x40 MSTORE DUP1 PUSH1 0xA SWAP1 PUSH1 0x20 DUP3 MUL DUP1 CALLDATASIZE DUP4 CALLDATACOPY DUP1 DUP3 ADD SWAP2 POP POP SWAP1 POP POP SWAP1 JUMP JUMPDEST PUSH1 0x0 DUP2 SWAP1 POP SWAP2 SWAP1 POP JUMP JUMPDEST PUSH2 0xE5F DUP2 PUSH2 0xE4C JUMP JUMPDEST DUP3 MSTORE POP POP JUMP JUMPDEST PUSH1 0x0 PUSH1 0x20 DUP3 ADD SWAP1 POP PUSH2 0xE7A PUSH1 0x0 DUP4 ADD DUP5 PUSH2 0xE56 JUMP JUMPDEST SWAP3 SWAP2 POP POP JUMP JUMPDEST PUSH1 0x0 PUSH1 0x40 MLOAD SWAP1 POP SWAP1 JUMP JUMPDEST PUSH1 0x0 DUP1 REVERT JUMPDEST PUSH2 0xE98 DUP2 PUSH2 0xE4C JUMP JUMPDEST DUP2 EQ PUSH2 0xEA3 JUMPI PUSH1 0x0 DUP1 REVERT JUMPDEST POP JUMP JUMPDEST PUSH1 0x0 DUP2 CALLDATALOAD SWAP1 POP PUSH2 0xEB5 DUP2 PUSH2 0xE8F JUMP JUMPDEST SWAP3 SWAP2 POP POP JUMP JUMPDEST PUSH1 0x0 PUSH1 0x20 DUP3 DUP5 SUB SLT ISZERO PUSH2 0xED1 JUMPI PUSH2 0xED0 PUSH2 0xE8A JUMP JUMPDEST JUMPDEST PUSH1 0x0 PUSH2 0xEDF DUP5 DUP3 DUP6 ADD PUSH2 0xEA6 JUMP JUMPDEST SWAP2 POP POP SWAP3 SWAP2 POP POP JUMP JUMPDEST PUSH1 0x0 DUP2 ISZERO ISZERO SWAP1 POP SWAP2 SWAP1 POP JUMP JUMPDEST PUSH2 0xEFD DUP2 PUSH2 0xEE8 JUMP JUMPDEST DUP3 MSTORE POP POP JUMP JUMPDEST PUSH1 0x0 PUSH1 0x20 DUP3 ADD SWAP1 POP PUSH2 0xF18 PUSH1 0x0 DUP4 ADD DUP5 PUSH2 0xEF4 JUMP JUMPDEST SWAP3 SWAP2 POP POP JUMP JUMPDEST PUSH1 0x0 PUSH20 0xFFFFFFFFFFFFFFFFFFFFFFFFFFFFFFFFFFFFFFFF DUP3 AND SWAP1 POP SWAP2 SWAP1 POP JUMP JUMPDEST PUSH1 0x0 PUSH2 0xF49 DUP3 PUSH2 0xF1E JUMP JUMPDEST SWAP1 POP SWAP2 SWAP1 POP JUMP JUMPDEST PUSH2 0xF59 DUP2 PUSH2 0xF3E JUMP JUMPDEST DUP3 MSTORE POP POP JUMP JUMPDEST PUSH1 0x0 PUSH1 0x20 DUP3 ADD SWAP1 POP PUSH2 0xF74 PUSH1 0x0 DUP4 ADD DUP5 PUSH2 0xF50 JUMP JUMPDEST SWAP3 SWAP2 POP POP JUMP JUMPDEST PUSH1 0x0 PUSH1 0xFF DUP3 AND SWAP1 POP SWAP2 SWAP1 POP JUMP JUMPDEST PUSH2 0xF90 DUP2 PUSH2 0xF7A JUMP JUMPDEST DUP3 MSTORE POP POP JUMP JUMPDEST PUSH1 0x0 PUSH1 0x20 DUP3 ADD SWAP1 POP PUSH2 0xFAB PUSH1 0x0 DUP4 ADD DUP5 PUSH2 0xF87 JUMP JUMPDEST SWAP3 SWAP2 POP POP JUMP JUMPDEST PUSH1 0x0 DUP1 REVERT JUMPDEST PUSH1 0x0 PUSH1 0x1F NOT PUSH1 0x1F DUP4 ADD AND SWAP1 POP SWAP2 SWAP1 POP JUMP JUMPDEST PUSH32 0x4E487B7100000000000000000000000000000000000000000000000000000000 PUSH1 0x0 MSTORE PUSH1 0x41 PUSH1 0x4 MSTORE PUSH1 0x24 PUSH1 0x0 REVERT JUMPDEST PUSH2 0xFFF DUP3 PUSH2 0xFB6 JUMP JUMPDEST DUP2 ADD DUP2 DUP2 LT PUSH8 0xFFFFFFFFFFFFFFFF DUP3 GT OR ISZERO PUSH2 0x101E JUMPI PUSH2 0x101D PUSH2 0xFC7 JUMP JUMPDEST JUMPDEST DUP1 PUSH1 0x40 MSTORE POP POP POP JUMP JUMPDEST PUSH1 0x0 PUSH2 0x1031 PUSH2 0xE80 JUMP JUMPDEST SWAP1 POP PUSH2 0x103D DUP3 DUP3 PUSH2 0xFF6 JUMP JUMPDEST SWAP2 SWAP1 POP JUMP JUMPDEST PUSH1 0x0 PUSH8 0xFFFFFFFFFFFFFFFF DUP3 GT ISZERO PUSH2 0x105D JUMPI PUSH2 0x105C PUSH2 0xFC7 JUMP JUMPDEST JUMPDEST PUSH1 0x20 DUP3 MUL SWAP1 POP SWAP2 SWAP1 POP JUMP JUMPDEST PUSH1 0x0 DUP1 REVERT JUMPDEST PUSH1 0x0 PUSH2 0x1080 PUSH2 0x107B DUP5 PUSH2 0x1042 JUMP JUMPDEST PUSH2 0x1027 JUMP JUMPDEST SWAP1 POP DUP1 PUSH1 0x20 DUP5 MUL DUP4 ADD DUP6 DUP2 GT ISZERO PUSH2 0x109A JUMPI PUSH2 0x1099 PUSH2 0x1068 JUMP JUMPDEST JUMPDEST DUP4 JUMPDEST DUP2 DUP2 LT ISZERO PUSH2 0x10C3 JUMPI DUP1 PUSH2 0x10AF DUP9 DUP3 PUSH2 0xEA6 JUMP JUMPDEST DUP5 MSTORE PUSH1 0x20 DUP5 ADD SWAP4 POP POP PUSH1 0x20 DUP2 ADD SWAP1 POP PUSH2 0x109C JUMP JUMPDEST POP POP POP SWAP4 SWAP3 POP POP POP JUMP JUMPDEST PUSH1 0x0 DUP3 PUSH1 0x1F DUP4 ADD SLT PUSH2 0x10E2 JUMPI PUSH2 0x10E1 PUSH2 0xFB1 JUMP JUMPDEST JUMPDEST PUSH1 0x2 PUSH2 0x10EF DUP5 DUP3 DUP6 PUSH2 0x106D JUMP JUMPDEST SWAP2 POP POP SWAP3 SWAP2 POP POP JUMP JUMPDEST PUSH1 0x0 PUSH8 0xFFFFFFFFFFFFFFFF DUP3 GT ISZERO PUSH2 0x1113 JUMPI PUSH2 0x1112 PUSH2 0xFC7 JUMP JUMPDEST JUMPDEST PUSH1 0x20 DUP3 MUL SWAP1 POP SWAP2 SWAP1 POP JUMP JUMPDEST PUSH1 0x0 PUSH2 0x1131 PUSH2 0x112C DUP5 PUSH2 0x10F8 JUMP JUMPDEST PUSH2 0x1027 JUMP JUMPDEST SWAP1 POP DUP1 PUSH1 0x40 DUP5 MUL DUP4 ADD DUP6 DUP2 GT ISZERO PUSH2 0x114B JUMPI PUSH2 0x114A PUSH2 0x1068 JUMP JUMPDEST JUMPDEST DUP4 JUMPDEST DUP2 DUP2 LT ISZERO PUSH2 0x1174 JUMPI DUP1 PUSH2 0x1160 DUP9 DUP3 PUSH2 0x10CD JUMP JUMPDEST DUP5 MSTORE PUSH1 0x20 DUP5 ADD SWAP4 POP POP PUSH1 0x40 DUP2 ADD SWAP1 POP PUSH2 0x114D JUMP JUMPDEST POP POP POP SWAP4 SWAP3 POP POP POP JUMP JUMPDEST PUSH1 0x0 DUP3 PUSH1 0x1F DUP4 ADD SLT PUSH2 0x1193 JUMPI PUSH2 0x1192 PUSH2 0xFB1 JUMP JUMPDEST JUMPDEST PUSH1 0x2 PUSH2 0x11A0 DUP5 DUP3 DUP6 PUSH2 0x111E JUMP JUMPDEST SWAP2 POP POP SWAP3 SWAP2 POP POP JUMP JUMPDEST PUSH1 0x0 DUP1 PUSH1 0x0 DUP1 PUSH2 0x140 DUP6 DUP8 SUB SLT ISZERO PUSH2 0x11C4 JUMPI PUSH2 0x11C3 PUSH2 0xE8A JUMP JUMPDEST JUMPDEST PUSH1 0x0 PUSH2 0x11D2 DUP8 DUP3 DUP9 ADD PUSH2 0x10CD JUMP JUMPDEST SWAP5 POP POP PUSH1 0x40 PUSH2 0x11E3 DUP8 DUP3 DUP9 ADD PUSH2 0x117E JUMP JUMPDEST SWAP4 POP POP PUSH1 0xC0 PUSH2 0x11F4 DUP8 DUP3 DUP9 ADD PUSH2 0x10CD JUMP JUMPDEST SWAP3 POP POP PUSH2 0x100 PUSH2 0x1206 DUP8 DUP3 DUP9 ADD PUSH2 0x10CD JUMP JUMPDEST SWAP2 POP POP SWAP3 SWAP6 SWAP2 SWAP5 POP SWAP3 POP JUMP JUMPDEST PUSH2 0x121B DUP2 PUSH2 0xF7A JUMP JUMPDEST DUP2 EQ PUSH2 0x1226 JUMPI PUSH1 0x0 DUP1 REVERT JUMPDEST POP JUMP JUMPDEST PUSH1 0x0 DUP2 CALLDATALOAD SWAP1 POP PUSH2 0x1238 DUP2 PUSH2 0x1212 JUMP JUMPDEST SWAP3 SWAP2 POP POP JUMP JUMPDEST PUSH1 0x0 PUSH1 0x20 DUP3 DUP5 SUB SLT ISZERO PUSH2 0x1254 JUMPI PUSH2 0x1253 PUSH2 0xE8A JUMP JUMPDEST JUMPDEST PUSH1 0x0 PUSH2 0x1262 DUP5 DUP3 DUP6 ADD PUSH2 0x1229 JUMP JUMPDEST SWAP2 POP POP SWAP3 SWAP2 POP POP JUMP JUMPDEST PUSH1 0x0 DUP2 SWAP1 POP SWAP2 SWAP1 POP JUMP JUMPDEST PUSH1 0x0 PUSH2 0x1290 PUSH2 0x128B PUSH2 0x1286 DUP5 PUSH2 0xF1E JUMP JUMPDEST PUSH2 0x126B JUMP JUMPDEST PUSH2 0xF1E JUMP JUMPDEST SWAP1 POP SWAP2 SWAP1 POP JUMP JUMPDEST PUSH1 0x0 PUSH2 0x12A2 DUP3 PUSH2 0x1275 JUMP JUMPDEST SWAP1 POP SWAP2 SWAP1 POP JUMP JUMPDEST PUSH1 0x0 PUSH2 0x12B4 DUP3 PUSH2 0x1297 JUMP JUMPDEST SWAP1 POP SWAP2 SWAP1 POP JUMP JUMPDEST PUSH2 0x12C4 DUP2 PUSH2 0x12A9 JUMP JUMPDEST DUP3 MSTORE POP POP JUMP JUMPDEST PUSH1 0x0 PUSH1 0x20 DUP3 ADD SWAP1 POP PUSH2 0x12DF PUSH1 0x0 DUP4 ADD DUP5 PUSH2 0x12BB JUMP JUMPDEST SWAP3 SWAP2 POP POP JUMP JUMPDEST PUSH32 0x4E487B7100000000000000000000000000000000000000000000000000000000 PUSH1 0x0 MSTORE PUSH1 0x11 PUSH1 0x4 MSTORE PUSH1 0x24 PUSH1 0x0 REVERT JUMPDEST PUSH1 0x0 DUP2 PUSH1 0x1 SHR SWAP1 POP SWAP2 SWAP1 POP JUMP JUMPDEST PUSH1 0x0 DUP1 DUP3 SWAP2 POP DUP4 SWAP1 POP JUMPDEST PUSH1 0x1 DUP6 GT ISZERO PUSH2 0x136B JUMPI DUP1 DUP7 DIV DUP2 GT ISZERO PUSH2 0x1347 JUMPI PUSH2 0x1346 PUSH2 0x12E5 JUMP JUMPDEST JUMPDEST PUSH1 0x1 DUP6 AND ISZERO PUSH2 0x1356 JUMPI DUP1 DUP3 MUL SWAP2 POP JUMPDEST DUP1 DUP2 MUL SWAP1 POP PUSH2 0x1364 DUP6 PUSH2 0x1314 JUMP JUMPDEST SWAP5 POP PUSH2 0x132B JUMP JUMPDEST SWAP5 POP SWAP5 SWAP3 POP POP POP JUMP JUMPDEST PUSH1 0x0 DUP3 PUSH2 0x1384 JUMPI PUSH1 0x1 SWAP1 POP PUSH2 0x1440 JUMP JUMPDEST DUP2 PUSH2 0x1392 JUMPI PUSH1 0x0 SWAP1 POP PUSH2 0x1440 JUMP JUMPDEST DUP2 PUSH1 0x1 DUP2 EQ PUSH2 0x13A8 JUMPI PUSH1 0x2 DUP2 EQ PUSH2 0x13B2 JUMPI PUSH2 0x13E1 JUMP JUMPDEST PUSH1 0x1 SWAP2 POP POP PUSH2 0x1440 JUMP JUMPDEST PUSH1 0xFF DUP5 GT ISZERO PUSH2 0x13C4 JUMPI PUSH2 0x13C3 PUSH2 0x12E5 JUMP JUMPDEST JUMPDEST DUP4 PUSH1 0x2 EXP SWAP2 POP DUP5 DUP3 GT ISZERO PUSH2 0x13DB JUMPI PUSH2 0x13DA PUSH2 0x12E5 JUMP JUMPDEST JUMPDEST POP PUSH2 0x1440 JUMP JUMPDEST POP PUSH1 0x20 DUP4 LT PUSH2 0x133 DUP4 LT AND PUSH1 0x4E DUP5 LT PUSH1 0xB DUP5 LT AND OR ISZERO PUSH2 0x1416 JUMPI DUP3 DUP3 EXP SWAP1 POP DUP4 DUP2 GT ISZERO PUSH2 0x1411 JUMPI PUSH2 0x1410 PUSH2 0x12E5 JUMP JUMPDEST JUMPDEST PUSH2 0x1440 JUMP JUMPDEST PUSH2 0x1423 DUP5 DUP5 DUP5 PUSH1 0x1 PUSH2 0x1321 JUMP JUMPDEST SWAP3 POP SWAP1 POP DUP2 DUP5 DIV DUP2 GT ISZERO PUSH2 0x143A JUMPI PUSH2 0x1439 PUSH2 0x12E5 JUMP JUMPDEST JUMPDEST DUP2 DUP2 MUL SWAP1 POP JUMPDEST SWAP4 SWAP3 POP POP POP JUMP JUMPDEST PUSH1 0x0 PUSH2 0x1452 DUP3 PUSH2 0xE4C JUMP JUMPDEST SWAP2 POP PUSH2 0x145D DUP4 PUSH2 0xF7A JUMP JUMPDEST SWAP3 POP PUSH2 0x148A PUSH32 0xFFFFFFFFFFFFFFFFFFFFFFFFFFFFFFFFFFFFFFFFFFFFFFFFFFFFFFFFFFFFFFFF DUP5 DUP5 PUSH2 0x1374 JUMP JUMPDEST SWAP1 POP SWAP3 SWAP2 POP POP JUMP JUMPDEST PUSH1 0x0 PUSH2 0x149D DUP3 PUSH2 0xE4C JUMP JUMPDEST SWAP2 POP PUSH2 0x14A8 DUP4 PUSH2 0xE4C JUMP JUMPDEST SWAP3 POP DUP3 DUP3 SUB SWAP1 POP DUP2 DUP2 GT ISZERO PUSH2 0x14C0 JUMPI PUSH2 0x14BF PUSH2 0x12E5 JUMP JUMPDEST JUMPDEST SWAP3 SWAP2 POP POP JUMP JUMPDEST PUSH32 0x4E487B7100000000000000000000000000000000000000000000000000000000 PUSH1 0x0 MSTORE PUSH1 0x12 PUSH1 0x4 MSTORE PUSH1 0x24 PUSH1 0x0 REVERT JUMPDEST PUSH1 0x0 PUSH2 0x1500 DUP3 PUSH2 0xE4C JUMP JUMPDEST SWAP2 POP PUSH2 0x150B DUP4 PUSH2 0xE4C JUMP JUMPDEST SWAP3 POP DUP3 PUSH2 0x151B JUMPI PUSH2 0x151A PUSH2 0x14C6 JUMP JUMPDEST JUMPDEST DUP3 DUP3 MOD SWAP1 POP SWAP3 SWAP2 POP POP JUMP JUMPDEST PUSH32 0x4E487B7100000000000000000000000000000000000000000000000000000000 PUSH1 0x0 MSTORE PUSH1 0x32 PUSH1 0x4 MSTORE PUSH1 0x24 PUSH1 0x0 REVERT JUMPDEST PUSH1 0x0 DUP2 MLOAD SWAP1 POP SWAP2 SWAP1 POP JUMP JUMPDEST PUSH1 0x0 DUP3 DUP3 MSTORE PUSH1 0x20 DUP3 ADD SWAP1 POP SWAP3 SWAP2 POP POP JUMP JUMPDEST PUSH1 0x0 DUP2 SWAP1 POP PUSH1 0x20 DUP3 ADD SWAP1 POP SWAP2 SWAP1 POP JUMP JUMPDEST PUSH2 0x158A DUP2 PUSH2 0xE4C JUMP JUMPDEST DUP3 MSTORE POP POP JUMP JUMPDEST PUSH1 0x0 PUSH2 0x159C DUP4 DUP4 PUSH2 0x1581 JUMP JUMPDEST PUSH1 0x20 DUP4 ADD SWAP1 POP SWAP3 SWAP2 POP POP JUMP JUMPDEST PUSH1 0x0 PUSH1 0x20 DUP3 ADD SWAP1 POP SWAP2 SWAP1 POP JUMP JUMPDEST PUSH1 0x0 PUSH2 0x15C0 DUP3 PUSH2 0x1555 JUMP JUMPDEST PUSH2 0x15CA DUP2 DUP6 PUSH2 0x1560 JUMP JUMPDEST SWAP4 POP PUSH2 0x15D5 DUP4 PUSH2 0x1571 JUMP JUMPDEST DUP1 PUSH1 0x0 JUMPDEST DUP4 DUP2 LT ISZERO PUSH2 0x1606 JUMPI DUP2 MLOAD PUSH2 0x15ED DUP9 DUP3 PUSH2 0x1590 JUMP JUMPDEST SWAP8 POP PUSH2 0x15F8 DUP4 PUSH2 0x15A8 JUMP JUMPDEST SWAP3 POP POP PUSH1 0x1 DUP2 ADD SWAP1 POP PUSH2 0x15D9 JUMP JUMPDEST POP DUP6 SWAP4 POP POP POP POP SWAP3 SWAP2 POP POP JUMP JUMPDEST PUSH1 0x0 PUSH1 0x40 DUP3 ADD SWAP1 POP DUP2 DUP2 SUB PUSH1 0x0 DUP4 ADD MSTORE PUSH2 0x162D DUP2 DUP6 PUSH2 0x15B5 JUMP JUMPDEST SWAP1 POP PUSH2 0x163C PUSH1 0x20 DUP4 ADD DUP5 PUSH2 0xE56 JUMP JUMPDEST SWAP4 SWAP3 POP POP POP JUMP JUMPDEST PUSH1 0x0 DUP2 MLOAD SWAP1 POP PUSH2 0x1652 DUP2 PUSH2 0xE8F JUMP JUMPDEST SWAP3 SWAP2 POP POP JUMP JUMPDEST PUSH1 0x0 PUSH1 0x20 DUP3 DUP5 SUB SLT ISZERO PUSH2 0x166E JUMPI PUSH2 0x166D PUSH2 0xE8A JUMP JUMPDEST JUMPDEST PUSH1 0x0 PUSH2 0x167C DUP5 DUP3 DUP6 ADD PUSH2 0x1643 JUMP JUMPDEST SWAP2 POP POP SWAP3 SWAP2 POP POP JUMP JUMPDEST PUSH1 0x0 PUSH2 0x1690 DUP3 PUSH2 0xE4C JUMP JUMPDEST SWAP2 POP PUSH2 0x169B DUP4 PUSH2 0xE4C JUMP JUMPDEST SWAP3 POP DUP3 PUSH2 0x16AB JUMPI PUSH2 0x16AA PUSH2 0x14C6 JUMP JUMPDEST JUMPDEST DUP3 DUP3 DIV SWAP1 POP SWAP3 SWAP2 POP POP JUMP JUMPDEST PUSH1 0x0 PUSH2 0x16C1 DUP3 PUSH2 0xF7A JUMP JUMPDEST SWAP2 POP PUSH1 0xFF DUP3 SUB PUSH2 0x16D4 JUMPI PUSH2 0x16D3 PUSH2 0x12E5 JUMP JUMPDEST JUMPDEST PUSH1 0x1 DUP3 ADD SWAP1 POP SWAP2 SWAP1 POP JUMP JUMPDEST PUSH1 0x0 PUSH2 0x16EA DUP3 PUSH2 0xE4C JUMP JUMPDEST SWAP2 POP PUSH32 0xFFFFFFFFFFFFFFFFFFFFFFFFFFFFFFFFFFFFFFFFFFFFFFFFFFFFFFFFFFFFFFFF DUP3 SUB PUSH2 0x171C JUMPI PUSH2 0x171B PUSH2 0x12E5 JUMP JUMPDEST JUMPDEST PUSH1 0x1 DUP3 ADD SWAP1 POP SWAP2 SWAP1 POP JUMP JUMPDEST PUSH1 0x0 PUSH1 0xA SWAP1 POP SWAP2 SWAP1 POP JUMP JUMPDEST PUSH1 0x0 DUP2 SWAP1 POP SWAP3 SWAP2 POP POP JUMP JUMPDEST PUSH1 0x0 DUP2 SWAP1 POP SWAP2 SWAP1 POP JUMP JUMPDEST PUSH1 0x0 PUSH1 0x20 DUP3 ADD SWAP1 POP SWAP2 SWAP1 POP JUMP JUMPDEST PUSH2 0x175D DUP2 PUSH2 0x1727 JUMP JUMPDEST PUSH2 0x1767 DUP2 DUP5 PUSH2 0x1732 JUMP JUMPDEST SWAP3 POP PUSH2 0x1772 DUP3 PUSH2 0x173D JUMP JUMPDEST DUP1 PUSH1 0x0 JUMPDEST DUP4 DUP2 LT ISZERO PUSH2 0x17A3 JUMPI DUP2 MLOAD PUSH2 0x178A DUP8 DUP3 PUSH2 0x1590 JUMP JUMPDEST SWAP7 POP PUSH2 0x1795 DUP4 PUSH2 0x1747 JUMP JUMPDEST SWAP3 POP POP PUSH1 0x1 DUP2 ADD SWAP1 POP PUSH2 0x1776 JUMP JUMPDEST POP POP POP POP POP POP JUMP JUMPDEST PUSH1 0x0 PUSH1 0xA SWAP1 POP SWAP2 SWAP1 POP JUMP JUMPDEST PUSH1 0x0 DUP2 SWAP1 POP SWAP3 SWAP2 POP POP JUMP JUMPDEST PUSH1 0x0 DUP2 SWAP1 POP SWAP2 SWAP1 POP JUMP JUMPDEST PUSH2 0x17D4 DUP2 PUSH2 0xF7A JUMP JUMPDEST DUP3 MSTORE POP POP JUMP JUMPDEST PUSH1 0x0 PUSH2 0x17E6 DUP4 DUP4 PUSH2 0x17CB JUMP JUMPDEST PUSH1 0x20 DUP4 ADD SWAP1 POP SWAP3 SWAP2 POP POP JUMP JUMPDEST PUSH1 0x0 PUSH1 0x20 DUP3 ADD SWAP1 POP SWAP2 SWAP1 POP JUMP JUMPDEST PUSH2 0x1808 DUP2 PUSH2 0x17AB JUMP JUMPDEST PUSH2 0x1812 DUP2 DUP5 PUSH2 0x17B6 JUMP JUMPDEST SWAP3 POP PUSH2 0x181D DUP3 PUSH2 0x17C1 JUMP JUMPDEST DUP1 PUSH1 0x0 JUMPDEST DUP4 DUP2 LT ISZERO PUSH2 0x184E JUMPI DUP2 MLOAD PUSH2 0x1835 DUP8 DUP3 PUSH2 0x17DA JUMP JUMPDEST SWAP7 POP PUSH2 0x1840 DUP4 PUSH2 0x17F2 JUMP JUMPDEST SWAP3 POP POP PUSH1 0x1 DUP2 ADD SWAP1 POP PUSH2 0x1821 JUMP JUMPDEST POP POP POP POP POP POP JUMP JUMPDEST PUSH1 0x0 PUSH2 0x2A0 DUP3 ADD SWAP1 POP PUSH2 0x186C PUSH1 0x0 DUP4 ADD DUP7 PUSH2 0xE56 JUMP JUMPDEST PUSH2 0x1879 PUSH1 0x20 DUP4 ADD DUP6 PUSH2 0x1754 JUMP JUMPDEST PUSH2 0x1887 PUSH2 0x160 DUP4 ADD DUP5 PUSH2 0x17FF JUMP JUMPDEST SWAP5 SWAP4 POP POP POP POP JUMP JUMPDEST PUSH1 0x0 PUSH1 0x2 SWAP1 POP SWAP2 SWAP1 POP JUMP JUMPDEST PUSH1 0x0 DUP2 SWAP1 POP SWAP3 SWAP2 POP POP JUMP JUMPDEST PUSH1 0x0 DUP2 SWAP1 POP SWAP2 SWAP1 POP JUMP JUMPDEST PUSH1 0x0 PUSH1 0x20 DUP3 ADD SWAP1 POP SWAP2 SWAP1 POP JUMP JUMPDEST PUSH2 0x18C5 DUP2 PUSH2 0x188F JUMP JUMPDEST PUSH2 0x18CF DUP2 DUP5 PUSH2 0x189A JUMP JUMPDEST SWAP3 POP PUSH2 0x18DA DUP3 PUSH2 0x18A5 JUMP JUMPDEST DUP1 PUSH1 0x0 JUMPDEST DUP4 DUP2 LT ISZERO PUSH2 0x190B JUMPI DUP2 MLOAD PUSH2 0x18F2 DUP8 DUP3 PUSH2 0x1590 JUMP JUMPDEST SWAP7 POP PUSH2 0x18FD DUP4 PUSH2 0x18AF JUMP JUMPDEST SWAP3 POP POP PUSH1 0x1 DUP2 ADD SWAP1 POP PUSH2 0x18DE JUMP JUMPDEST POP POP POP POP POP POP JUMP JUMPDEST PUSH1 0x0 PUSH1 0x2 SWAP1 POP SWAP2 SWAP1 POP JUMP JUMPDEST PUSH1 0x0 DUP2 SWAP1 POP SWAP3 SWAP2 POP POP JUMP JUMPDEST PUSH1 0x0 DUP2 SWAP1 POP SWAP2 SWAP1 POP JUMP JUMPDEST PUSH1 0x0 DUP2 SWAP1 POP SWAP3 SWAP2 POP POP JUMP JUMPDEST PUSH2 0x1947 DUP2 PUSH2 0x188F JUMP JUMPDEST PUSH2 0x1951 DUP2 DUP5 PUSH2 0x1933 JUMP JUMPDEST SWAP3 POP PUSH2 0x195C DUP3 PUSH2 0x18A5 JUMP JUMPDEST DUP1 PUSH1 0x0 JUMPDEST DUP4 DUP2 LT ISZERO PUSH2 0x198D JUMPI DUP2 MLOAD PUSH2 0x1974 DUP8 DUP3 PUSH2 0x1590 JUMP JUMPDEST SWAP7 POP PUSH2 0x197F DUP4 PUSH2 0x18AF JUMP JUMPDEST SWAP3 POP POP PUSH1 0x1 DUP2 ADD SWAP1 POP PUSH2 0x1960 JUMP JUMPDEST POP POP POP POP POP POP JUMP JUMPDEST PUSH1 0x0 PUSH2 0x19A1 DUP4 DUP4 PUSH2 0x193E JUMP JUMPDEST PUSH1 0x40 DUP4 ADD SWAP1 POP SWAP3 SWAP2 POP POP JUMP JUMPDEST PUSH1 0x0 PUSH1 0x20 DUP3 ADD SWAP1 POP SWAP2 SWAP1 POP JUMP JUMPDEST PUSH2 0x19C3 DUP2 PUSH2 0x1913 JUMP JUMPDEST PUSH2 0x19CD DUP2 DUP5 PUSH2 0x191E JUMP JUMPDEST SWAP3 POP PUSH2 0x19D8 DUP3 PUSH2 0x1929 JUMP JUMPDEST DUP1 PUSH1 0x0 JUMPDEST DUP4 DUP2 LT ISZERO PUSH2 0x1A09 JUMPI DUP2 MLOAD PUSH2 0x19F0 DUP8 DUP3 PUSH2 0x1995 JUMP JUMPDEST SWAP7 POP PUSH2 0x19FB DUP4 PUSH2 0x19AD JUMP JUMPDEST SWAP3 POP POP PUSH1 0x1 DUP2 ADD SWAP1 POP PUSH2 0x19DC JUMP JUMPDEST POP POP POP POP POP POP JUMP JUMPDEST PUSH1 0x0 PUSH1 0x3 SWAP1 POP SWAP2 SWAP1 POP JUMP JUMPDEST PUSH1 0x0 DUP2 SWAP1 POP SWAP3 SWAP2 POP POP JUMP JUMPDEST PUSH1 0x0 DUP2 SWAP1 POP SWAP2 SWAP1 POP JUMP JUMPDEST PUSH1 0x0 PUSH1 0x20 DUP3 ADD SWAP1 POP SWAP2 SWAP1 POP JUMP JUMPDEST PUSH2 0x1A47 DUP2 PUSH2 0x1A11 JUMP JUMPDEST PUSH2 0x1A51 DUP2 DUP5 PUSH2 0x1A1C JUMP JUMPDEST SWAP3 POP PUSH2 0x1A5C DUP3 PUSH2 0x1A27 JUMP JUMPDEST DUP1 PUSH1 0x0 JUMPDEST DUP4 DUP2 LT ISZERO PUSH2 0x1A8D JUMPI DUP2 MLOAD PUSH2 0x1A74 DUP8 DUP3 PUSH2 0x1590 JUMP JUMPDEST SWAP7 POP PUSH2 0x1A7F DUP4 PUSH2 0x1A31 JUMP JUMPDEST SWAP3 POP POP PUSH1 0x1 DUP2 ADD SWAP1 POP PUSH2 0x1A60 JUMP JUMPDEST POP POP POP POP POP POP JUMP JUMPDEST PUSH1 0x0 PUSH2 0x160 DUP3 ADD SWAP1 POP PUSH2 0x1AAB PUSH1 0x0 DUP4 ADD DUP8 PUSH2 0x18BC JUMP JUMPDEST PUSH2 0x1AB8 PUSH1 0x40 DUP4 ADD DUP7 PUSH2 0x19BA JUMP JUMPDEST PUSH2 0x1AC5 PUSH1 0xC0 DUP4 ADD DUP6 PUSH2 0x18BC JUMP JUMPDEST PUSH2 0x1AD3 PUSH2 0x100 DUP4 ADD DUP5 PUSH2 0x1A3E JUMP JUMPDEST SWAP6 SWAP5 POP POP POP POP POP JUMP JUMPDEST PUSH1 0x0 DUP2 MLOAD SWAP1 POP SWAP2 SWAP1 POP JUMP JUMPDEST PUSH1 0x0 DUP2 SWAP1 POP SWAP3 SWAP2 POP POP JUMP JUMPDEST PUSH1 0x0 JUMPDEST DUP4 DUP2 LT ISZERO PUSH2 0x1B10 JUMPI DUP1 DUP3 ADD MLOAD DUP2 DUP5 ADD MSTORE PUSH1 0x20 DUP2 ADD SWAP1 POP PUSH2 0x1AF5 JUMP JUMPDEST PUSH1 0x0 DUP5 DUP5 ADD MSTORE POP POP POP POP JUMP JUMPDEST PUSH1 0x0 PUSH2 0x1B27 DUP3 PUSH2 0x1ADC JUMP JUMPDEST PUSH2 0x1B31 DUP2 DUP6 PUSH2 0x1AE7 JUMP JUMPDEST SWAP4 POP PUSH2 0x1B41 DUP2 DUP6 PUSH1 0x20 DUP7 ADD PUSH2 0x1AF2 JUMP JUMPDEST DUP1 DUP5 ADD SWAP2 POP POP SWAP3 SWAP2 POP POP JUMP JUMPDEST PUSH1 0x0 PUSH2 0x1B59 DUP3 DUP5 PUSH2 0x1B1C JUMP JUMPDEST SWAP2 POP DUP2 SWAP1 POP SWAP3 SWAP2 POP POP JUMP JUMPDEST POP JUMP JUMPDEST PUSH1 0x0 PUSH2 0x1B74 PUSH1 0x0 DUP4 PUSH2 0x1AE7 JUMP JUMPDEST SWAP2 POP PUSH2 0x1B7F DUP3 PUSH2 0x1B64 JUMP JUMPDEST PUSH1 0x0 DUP3 ADD SWAP1 POP SWAP2 SWAP1 POP JUMP JUMPDEST PUSH1 0x0 PUSH2 0x1B95 DUP3 PUSH2 0x1B67 JUMP JUMPDEST SWAP2 POP DUP2 SWAP1 POP SWAP2 SWAP1 POP JUMP JUMPDEST PUSH1 0x0 PUSH1 0x40 DUP3 ADD SWAP1 POP PUSH2 0x1BB4 PUSH1 0x0 DUP4 ADD DUP6 PUSH2 0xF50 JUMP JUMPDEST PUSH2 0x1BC1 PUSH1 0x20 DUP4 ADD DUP5 PUSH2 0xE56 JUMP JUMPDEST SWAP4 SWAP3 POP POP POP JUMP INVALID LOG2 PUSH5 0x6970667358 0x22 SLT KECCAK256 0xE5 OR PUSH14 0x6481EA43745DA49C88699254C1AC 0xFB 0x22 SWAP15 0xA7 DUP3 0xC2 LOG2 CALLVALUE 0xF 0xB9 KECCAK256 0xA7 0x1E 0xF6 DUP6 PUSH5 0x736F6C6343 STOP ADDMOD EQ STOP CALLER "},"gasEstimates":{"creation":{"codeDepositCost":"1433200","executionCost":"infinite","totalCost":"infinite"},"external":{"commitments(uint256)":"2863","denomination()":"2518","deposit(uint256)":"infinite","hasher()":"infinite","knownRoots(uint256)":"2819","lastLevelHash(uint8)":"2859","nextLeafIndex()":"2430","nullifiers(uint256)":"2862","treeLevel()":"2543","verifier()":"2559","withdraw(uint256[2],uint256[2][2],uint256[2],uint256[2])":"infinite"},"internal":{"levelDefaults(uint256)":"infinite"}},"methodIdentifiers":{"commitments(uint256)":"49ce8997","denomination()":"8bca6d16","deposit(uint256)":"b6b55f25","hasher()":"ed33639f","knownRoots(uint256)":"12ad7381","lastLevelHash(uint8)":"d5400047","nextLeafIndex()":"0be4f422","nullifiers(uint256)":"d21e82ab","treeLevel()":"b8e79564","verifier()":"2b7ac3f3","withdraw(uint256[2],uint256[2][2],uint256[2],uint256[2])":"c78784d7"}},"storageLayout":{"storage":[{"astId":10,"contract":"src/Tornado.sol:Tornado","label":"_status","offset":0,"slot":"0","type":"t_uint256"},{"astId":332,"contract":"src/Tornado.sol:Tornado","label":"hasher","offset":0,"slot":"1","type":"t_contract(Hasher)259"},{"astId":334,"contract":"src/Tornado.sol:Tornado","label":"verifier","offset":0,"slot":"2","type":"t_address"},{"astId":337,"contract":"src/Tornado.sol:Tornado","label":"treeLevel","offset":20,"slot":"2","type":"t_uint8"},{"astId":340,"contract":"src/Tornado.sol:Tornado","label":"denomination","offset":0,"slot":"3","type":"t_uint256"},{"astId":342,"contract":"src/Tornado.sol:Tornado","label":"nextLeafIndex","offset":0,"slot":"4","type":"t_uint256"},{"astId":346,"contract":"src/Tornado.sol:Tornado","label":"knownRoots","offset":0,"slot":"5","type":"t_mapping(t_uint256,t_bool)"},{"astId":350,"contract":"src/Tornado.sol:Tornado","label":"lastLevelHash","offset":0,"slot":"6","type":"t_mapping(t_uint8,t_uint256)"},{"astId":354,"contract":"src/Tornado.sol:Tornado","label":"nullifiers","offset":0,"slot":"7","type":"t_mapping(t_uint256,t_bool)"},{"astId":358,"contract":"src/Tornado.sol:Tornado","label":"commitments","offset":0,"slot":"8","type":"t_mapping(t_uint256,t_bool)"}],"types":{"t_address":{"encoding":"inplace","label":"address","numberOfBytes":"20"},"t_bool":{"encoding":"inplace","label":"bool","numberOfBytes":"1"},"t_contract(Hasher)259":{"encoding":"inplace","label":"contract Hasher","numberOfBytes":"20"},"t_mapping(t_uint256,t_bool)":{"encoding":"mapping","key":"t_uint256","label":"mapping(uint256 => bool)","numberOfBytes":"32","value":"t_bool"},"t_mapping(t_uint8,t_uint256)":{"encoding":"mapping","key":"t_uint8","label":"mapping(uint8 => uint256)","numberOfBytes":"32","value":"t_uint256"},"t_uint256":{"encoding":"inplace","label":"uint256","numberOfBytes":"32"},"t_uint8":{"encoding":"inplace","label":"uint8","numberOfBytes":"1"}}},"userdoc":{"kind":"user","methods":{},"version":1}}}}