{"src/Verifier.sol":{"Groth16Verifier":{"abi":[{"inputs":[{"internalType":"uint256[2]","name":"_pA","type":"uint256[2]"},{"internalType":"uint256[2][2]","name":"_pB","type":"uint256[2][2]"},{"internalType":"uint256[2]","name":"_pC","type":"uint256[2]"},{"internalType":"uint256[3]","name":"_pubSignals","type":"uint256[3]"}],"name":"verifyProof","outputs":[{"internalType":"bool","name":"","type":"bool"}],"stateMutability":"view","type":"function"}],"devdoc":{"kind":"dev","methods":{},"version":1},"evm":{"bytecode":{"linkReferences":{},"object":"608060405234801561001057600080fd5b506106c7806100206000396000f3fe608060405234801561001057600080fd5b506004361061002b5760003560e01c806311479fea14610030575b600080fd5b61004a600480360381019061004591906105f2565b610060565b6040516100579190610676565b60405180910390f35b600061052c565b7f30644e72e131a029b85045b68181585d97816a916871ca8d3c208c16d87cfd478110610098576000805260206000f35b50565b600060405183815284602082015285604082015260408160608360076107d05a03fa9150816100ce576000805260206000f35b825160408201526020830151606082015260408360808360066107d05a03fa9150816100fe576000805260206000f35b505050505050565b600060808601600087017eae2cb5311105dd4d7323d4648ee19970b27cba3cc5cf82bbe7913860b324d081527f15b2f98a89f684001e80829ac9d9b679299f7d5e79d2ca1f16ad1c2994ec208d60208201526101a860008801357f14dcc4eb9ae05612ce719eb7ce0d3294b273a12bdcd0a44d81b66babe90a42eb7f0dc99a6a0bd3e27ce9eef72dbf01e2a5a98546c4cb2d2170ee378497c5d45da58461009b565b6101f860208801357f18b616adfaf87409a119223c28b9b3671245a4a0ea83aa6d5548015249d9b69c7f16f42da29bf0a4f4cefc42b8c58000cbfdf6865d277ed859506711550d6fc40e8461009b565b61024860408801357f16b5fb56a30e926fb4626bb6d581c28b1c93648a7259821ee6f6431dd14c29b57f07893c34b1786d58c97c31dc0a2979568ae9f3dd79b71fa0be3df06d4dc236e78461009b565b833582527f30644e72e131a029b85045b68181585d97816a916871ca8d3c208c16d87cfd4760208501357f30644e72e131a029b85045b68181585d97816a916871ca8d3c208c16d87cfd4703066020830152843560408301526020850135606083015260408501356080830152606085013560a08301527f046693f8c0f8c36a4554e851f2dae6395a7d44aea01383d5ec1456164f771b8460c08301527f26a3c60148b732fce0f2fedb98997496b1c8cde8b41db4a9f0d738446c93734660e08301527f28a29fe212cd32c59aabe100218306fd214c0c9ff2486f1a26390aec205023bc6101008301527f1781ec35acce284f39f346ae3f9cc76e49aa1e7a3d17d5511105eecdc92d33f16101208301527f0d1e67046ba2359f23206d6388d7280676dcfbcbc926c52d72180b208d7765de6101408301527f1815fca714aa77b27b8bf0c7d629132b9b2199d0ee60906cfd5e0e6f3fce1df9610160830152600088015161018083015260206000018801516101a08301527f198e9393920d483a7260bfb731fb5d25f1aa493335a9e71297e485b7aef312c26101c08301527f1800deef121f1e76426a00665e5c4479674322d4f75edadd46debd5cd992f6ed6101e08301527f090689d0585ff075ec9e99ad690c3395bc4b313370b38ef355acdadcd122975b6102008301527f12c85ea5db8c6deb4aab71808dcb408fe3d1e7690c43d37b4ce6cc0166fa7daa610220830152853561024083015260208601356102608301527f2e9b6a6c63d7d75ab32f9870b0b17c4c8732eeffd3a8e166435d34d0512529d86102808301527f18f6a68a526c1418e39af1bdf03a94664608929a3812290edb3625a54c408f0f6102a08301527f14086e806ed834620f7b18cd77c1257750ca18c270e57a8dca3206d3f1914e1f6102c08301527f05cf0015e88119a90812b8dcfa44d97c2a1e2fa532aa7afcdecb9a43bd81b3186102e08301526020826103008460086107d05a03fa82518116935050505095945050505050565b60405161038081016040526105446000840135610067565b6105516020840135610067565b61055e6040840135610067565b61056b6060840135610067565b610578818486888a610106565b8060005260206000f35b600080fd5b600080fd5b6000819050826020600202820111156105a8576105a7610587565b5b92915050565b6000819050826040600202820111156105ca576105c9610587565b5b92915050565b6000819050826020600302820111156105ec576105eb610587565b5b92915050565b600080600080610160858703121561060d5761060c610582565b5b600061061b8782880161058c565b945050604061062c878288016105ae565b93505060c061063d8782880161058c565b92505061010061064f878288016105d0565b91505092959194509250565b60008115159050919050565b6106708161065b565b82525050565b600060208201905061068b6000830184610667565b9291505056fea2646970667358221220450e3606ac1bcd4d7f500eaa74ae7793634d10a4d41b1e9d7ded5d464f644d1e64736f6c63430008140033","opcodes":"PUSH1 0x80 PUSH1 0x40 MSTORE CALLVALUE DUP1 ISZERO PUSH2 0x10 JUMPI PUSH1 0x0 DUP1 REVERT JUMPDEST POP PUSH2 0x6C7 DUP1 PUSH2 0x20 PUSH1 0x0 CODECOPY PUSH1 0x0 RETURN INVALID PUSH1 0x80 PUSH1 0x40 MSTORE CALLVALUE DUP1 ISZERO PUSH2 0x10 JUMPI PUSH1 0x0 DUP1 REVERT JUMPDEST POP PUSH1 0x4 CALLDATASIZE LT PUSH2 0x2B JUMPI PUSH1 0x0 CALLDATALOAD PUSH1 0xE0 SHR DUP1 PUSH4 0x11479FEA EQ PUSH2 0x30 JUMPI JUMPDEST PUSH1 0x0 DUP1 REVERT JUMPDEST PUSH2 0x4A PUSH1 0x4 DUP1 CALLDATASIZE SUB DUP2 ADD SWAP1 PUSH2 0x45 SWAP2 SWAP1 PUSH2 0x5F2 JUMP JUMPDEST PUSH2 0x60 JUMP JUMPDEST PUSH1 0x40 MLOAD PUSH2 0x57 SWAP2 SWAP1 PUSH2 0x676 JUMP JUMPDEST PUSH1 0x40 MLOAD DUP1 SWAP2 SUB SWAP1 RETURN JUMPDEST PUSH1 0x0 PUSH2 0x52C JUMP JUMPDEST PUSH32 0x30644E72E131A029B85045B68181585D97816A916871CA8D3C208C16D87CFD47 DUP2 LT PUSH2 0x98 JUMPI PUSH1 0x0 DUP1 MSTORE PUSH1 0x20 PUSH1 0x0 RETURN JUMPDEST POP JUMP JUMPDEST PUSH1 0x0 PUSH1 0x40 MLOAD DUP4 DUP2 MSTORE DUP5 PUSH1 0x20 DUP3 ADD MSTORE DUP6 PUSH1 0x40 DUP3 ADD MSTORE PUSH1 0x40 DUP2 PUSH1 0x60 DUP4 PUSH1 0x7 PUSH2 0x7D0 GAS SUB STATICCALL SWAP2 POP DUP2 PUSH2 0xCE JUMPI PUSH1 0x0 DUP1 MSTORE PUSH1 0x20 PUSH1 0x0 RETURN JUMPDEST DUP3 MLOAD PUSH1 0x40 DUP3 ADD MSTORE PUSH1 0x20 DUP4 ADD MLOAD PUSH1 0x60 DUP3 ADD MSTORE PUSH1 0x40 DUP4 PUSH1 0x80 DUP4 PUSH1 0x6 PUSH2 0x7D0 GAS SUB STATICCALL SWAP2 POP DUP2 PUSH2 0xFE JUMPI PUSH1 0x0 DUP1 MSTORE PUSH1 0x20 PUSH1 0x0 RETURN JUMPDEST POP POP POP POP POP POP JUMP JUMPDEST PUSH1 0x0 PUSH1 0x80 DUP7 ADD PUSH1 0x0 DUP8 ADD PUSH31 0xAE2CB5311105DD4D7323D4648EE19970B27CBA3CC5CF82BBE7913860B324D0 DUP2 MSTORE PUSH32 0x15B2F98A89F684001E80829AC9D9B679299F7D5E79D2CA1F16AD1C2994EC208D PUSH1 0x20 DUP3 ADD MSTORE PUSH2 0x1A8 PUSH1 0x0 DUP9 ADD CALLDATALOAD PUSH32 0x14DCC4EB9AE05612CE719EB7CE0D3294B273A12BDCD0A44D81B66BABE90A42EB PUSH32 0xDC99A6A0BD3E27CE9EEF72DBF01E2A5A98546C4CB2D2170EE378497C5D45DA5 DUP5 PUSH2 0x9B JUMP JUMPDEST PUSH2 0x1F8 PUSH1 0x20 DUP9 ADD CALLDATALOAD PUSH32 0x18B616ADFAF87409A119223C28B9B3671245A4A0EA83AA6D5548015249D9B69C PUSH32 0x16F42DA29BF0A4F4CEFC42B8C58000CBFDF6865D277ED859506711550D6FC40E DUP5 PUSH2 0x9B JUMP JUMPDEST PUSH2 0x248 PUSH1 0x40 DUP9 ADD CALLDATALOAD PUSH32 0x16B5FB56A30E926FB4626BB6D581C28B1C93648A7259821EE6F6431DD14C29B5 PUSH32 0x7893C34B1786D58C97C31DC0A2979568AE9F3DD79B71FA0BE3DF06D4DC236E7 DUP5 PUSH2 0x9B JUMP JUMPDEST DUP4 CALLDATALOAD DUP3 MSTORE PUSH32 0x30644E72E131A029B85045B68181585D97816A916871CA8D3C208C16D87CFD47 PUSH1 0x20 DUP6 ADD CALLDATALOAD PUSH32 0x30644E72E131A029B85045B68181585D97816A916871CA8D3C208C16D87CFD47 SUB MOD PUSH1 0x20 DUP4 ADD MSTORE DUP5 CALLDATALOAD PUSH1 0x40 DUP4 ADD MSTORE PUSH1 0x20 DUP6 ADD CALLDATALOAD PUSH1 0x60 DUP4 ADD MSTORE PUSH1 0x40 DUP6 ADD CALLDATALOAD PUSH1 0x80 DUP4 ADD MSTORE PUSH1 0x60 DUP6 ADD CALLDATALOAD PUSH1 0xA0 DUP4 ADD MSTORE PUSH32 0x46693F8C0F8C36A4554E851F2DAE6395A7D44AEA01383D5EC1456164F771B84 PUSH1 0xC0 DUP4 ADD MSTORE PUSH32 0x26A3C60148B732FCE0F2FEDB98997496B1C8CDE8B41DB4A9F0D738446C937346 PUSH1 0xE0 DUP4 ADD MSTORE PUSH32 0x28A29FE212CD32C59AABE100218306FD214C0C9FF2486F1A26390AEC205023BC PUSH2 0x100 DUP4 ADD MSTORE PUSH32 0x1781EC35ACCE284F39F346AE3F9CC76E49AA1E7A3D17D5511105EECDC92D33F1 PUSH2 0x120 DUP4 ADD MSTORE PUSH32 0xD1E67046BA2359F23206D6388D7280676DCFBCBC926C52D72180B208D7765DE PUSH2 0x140 DUP4 ADD MSTORE PUSH32 0x1815FCA714AA77B27B8BF0C7D629132B9B2199D0EE60906CFD5E0E6F3FCE1DF9 PUSH2 0x160 DUP4 ADD MSTORE PUSH1 0x0 DUP9 ADD MLOAD PUSH2 0x180 DUP4 ADD MSTORE PUSH1 0x20 PUSH1 0x0 ADD DUP9 ADD MLOAD PUSH2 0x1A0 DUP4 ADD MSTORE PUSH32 0x198E9393920D483A7260BFB731FB5D25F1AA493335A9E71297E485B7AEF312C2 PUSH2 0x1C0 DUP4 ADD MSTORE PUSH32 0x1800DEEF121F1E76426A00665E5C4479674322D4F75EDADD46DEBD5CD992F6ED PUSH2 0x1E0 DUP4 ADD MSTORE PUSH32 0x90689D0585FF075EC9E99AD690C3395BC4B313370B38EF355ACDADCD122975B PUSH2 0x200 DUP4 ADD MSTORE PUSH32 0x12C85EA5DB8C6DEB4AAB71808DCB408FE3D1E7690C43D37B4CE6CC0166FA7DAA PUSH2 0x220 DUP4 ADD MSTORE DUP6 CALLDATALOAD PUSH2 0x240 DUP4 ADD MSTORE PUSH1 0x20 DUP7 ADD CALLDATALOAD PUSH2 0x260 DUP4 ADD MSTORE PUSH32 0x2E9B6A6C63D7D75AB32F9870B0B17C4C8732EEFFD3A8E166435D34D0512529D8 PUSH2 0x280 DUP4 ADD MSTORE PUSH32 0x18F6A68A526C1418E39AF1BDF03A94664608929A3812290EDB3625A54C408F0F PUSH2 0x2A0 DUP4 ADD MSTORE PUSH32 0x14086E806ED834620F7B18CD77C1257750CA18C270E57A8DCA3206D3F1914E1F PUSH2 0x2C0 DUP4 ADD MSTORE PUSH32 0x5CF0015E88119A90812B8DCFA44D97C2A1E2FA532AA7AFCDECB9A43BD81B318 PUSH2 0x2E0 DUP4 ADD MSTORE PUSH1 0x20 DUP3 PUSH2 0x300 DUP5 PUSH1 0x8 PUSH2 0x7D0 GAS SUB STATICCALL DUP3 MLOAD DUP2 AND SWAP4 POP POP POP POP SWAP6 SWAP5 POP POP POP POP POP JUMP JUMPDEST PUSH1 0x40 MLOAD PUSH2 0x380 DUP2 ADD PUSH1 0x40 MSTORE PUSH2 0x544 PUSH1 0x0 DUP5 ADD CALLDATALOAD PUSH2 0x67 JUMP JUMPDEST PUSH2 0x551 PUSH1 0x20 DUP5 ADD CALLDATALOAD PUSH2 0x67 JUMP JUMPDEST PUSH2 0x55E PUSH1 0x40 DUP5 ADD CALLDATALOAD PUSH2 0x67 JUMP JUMPDEST PUSH2 0x56B PUSH1 0x60 DUP5 ADD CALLDATALOAD PUSH2 0x67 JUMP JUMPDEST PUSH2 0x578 DUP2 DUP5 DUP7 DUP9 DUP11 PUSH2 0x106 JUMP JUMPDEST DUP1 PUSH1 0x0 MSTORE PUSH1 0x20 PUSH1 0x0 RETURN JUMPDEST PUSH1 0x0 DUP1 REVERT JUMPDEST PUSH1 0x0 DUP1 REVERT JUMPDEST PUSH1 0x0 DUP2 SWAP1 POP DUP3 PUSH1 0x20 PUSH1 0x2 MUL DUP3 ADD GT ISZERO PUSH2 0x5A8 JUMPI PUSH2 0x5A7 PUSH2 0x587 JUMP JUMPDEST JUMPDEST SWAP3 SWAP2 POP POP JUMP JUMPDEST PUSH1 0x0 DUP2 SWAP1 POP DUP3 PUSH1 0x40 PUSH1 0x2 MUL DUP3 ADD GT ISZERO PUSH2 0x5CA JUMPI PUSH2 0x5C9 PUSH2 0x587 JUMP JUMPDEST JUMPDEST SWAP3 SWAP2 POP POP JUMP JUMPDEST PUSH1 0x0 DUP2 SWAP1 POP DUP3 PUSH1 0x20 PUSH1 0x3 MUL DUP3 ADD GT ISZERO PUSH2 0x5EC JUMPI PUSH2 0x5EB PUSH2 0x587 JUMP JUMPDEST JUMPDEST SWAP3 SWAP2 POP POP JUMP JUMPDEST PUSH1 0x0 DUP1 PUSH1 0x0 DUP1 PUSH2 0x160 DUP6 DUP8 SUB SLT ISZERO PUSH2 0x60D JUMPI PUSH2 0x60C PUSH2 0x582 JUMP JUMPDEST JUMPDEST PUSH1 0x0 PUSH2 0x61B DUP8 DUP3 DUP9 ADD PUSH2 0x58C JUMP JUMPDEST SWAP5 POP POP PUSH1 0x40 PUSH2 0x62C DUP8 DUP3 DUP9 ADD PUSH2 0x5AE JUMP JUMPDEST SWAP4 POP POP PUSH1 0xC0 PUSH2 0x63D DUP8 DUP3 DUP9 ADD PUSH2 0x58C JUMP JUMPDEST SWAP3 POP POP PUSH2 0x100 PUSH2 0x64F DUP8 DUP3 DUP9 ADD PUSH2 0x5D0 JUMP JUMPDEST SWAP2 POP POP SWAP3 SWAP6 SWAP2 SWAP5 POP SWAP3 POP JUMP JUMPDEST PUSH1 0x0 DUP2 ISZERO ISZERO SWAP1 POP SWAP2 SWAP1 POP JUMP JUMPDEST PUSH2 0x670 DUP2 PUSH2 0x65B JUMP JUMPDEST DUP3 MSTORE POP POP JUMP JUMPDEST PUSH1 0x0 PUSH1 0x20 DUP3 ADD SWAP1 POP PUSH2 0x68B PUSH1 0x0 DUP4 ADD DUP5 PUSH2 0x667 JUMP JUMPDEST SWAP3 SWAP2 POP POP JUMP INVALID LOG2 PUSH5 0x6970667358 0x22 SLT KECCAK256 GASLIMIT 0xE CALLDATASIZE MOD 0xAC SHL 0xCD 0x4D PUSH32 0x500EAA74AE7793634D10A4D41B1E9D7DED5D464F644D1E64736F6C6343000814 STOP CALLER "},"gasEstimates":{"creation":{"codeDepositCost":"347000","executionCost":"386","totalCost":"347386"},"external":{"verifyProof(uint256[2],uint256[2][2],uint256[2],uint256[3])":"infinite"}},"methodIdentifiers":{"verifyProof(uint256[2],uint256[2][2],uint256[2],uint256[3])":"11479fea"}},"storageLayout":{"storage":[],"types":null},"userdoc":{"kind":"user","methods":{},"version":1}}}}