{
  "address": "0x14d81cA00046c863D72b6a0e299dA243F08C999e",
  "abi": [
    {
      "inputs": [
        {
          "internalType": "uint256[2]",
          "name": "_pA",
          "type": "uint256[2]"
        },
        {
          "internalType": "uint256[2][2]",
          "name": "_pB",
          "type": "uint256[2][2]"
        },
        {
          "internalType": "uint256[2]",
          "name": "_pC",
          "type": "uint256[2]"
        },
        {
          "internalType": "uint256[3]",
          "name": "_pubSignals",
          "type": "uint256[3]"
        }
      ],
      "name": "verifyProof",
      "outputs": [
        {
          "internalType": "bool",
          "name": "",
          "type": "bool"
        }
      ],
      "stateMutability": "view",
      "type": "function"
    }
  ],
  "transactionHash": "0x919c3d45cd0c34c56342411ca2d1caf9ac5211ed7a0aab5c95087c66537d22d2",
  "args": [],
  "numDeployments": 1,
  "solcInputHash": "1b4072aafd2258e407ae208877268c40",
  "bytecode": "0x608060405234801561001057600080fd5b506106c7806100206000396000f3fe608060405234801561001057600080fd5b506004361061002b5760003560e01c806311479fea14610030575b600080fd5b61004a600480360381019061004591906105f2565b610060565b6040516100579190610676565b60405180910390f35b600061052c565b7f30644e72e131a029b85045b68181585d97816a916871ca8d3c208c16d87cfd478110610098576000805260206000f35b50565b600060405183815284602082015285604082015260408160608360076107d05a03fa9150816100ce576000805260206000f35b825160408201526020830151606082015260408360808360066107d05a03fa9150816100fe576000805260206000f35b505050505050565b600060808601600087017eae2cb5311105dd4d7323d4648ee19970b27cba3cc5cf82bbe7913860b324d081527f15b2f98a89f684001e80829ac9d9b679299f7d5e79d2ca1f16ad1c2994ec208d60208201526101a860008801357f14dcc4eb9ae05612ce719eb7ce0d3294b273a12bdcd0a44d81b66babe90a42eb7f0dc99a6a0bd3e27ce9eef72dbf01e2a5a98546c4cb2d2170ee378497c5d45da58461009b565b6101f860208801357f18b616adfaf87409a119223c28b9b3671245a4a0ea83aa6d5548015249d9b69c7f16f42da29bf0a4f4cefc42b8c58000cbfdf6865d277ed859506711550d6fc40e8461009b565b61024860408801357f16b5fb56a30e926fb4626bb6d581c28b1c93648a7259821ee6f6431dd14c29b57f07893c34b1786d58c97c31dc0a2979568ae9f3dd79b71fa0be3df06d4dc236e78461009b565b833582527f30644e72e131a029b85045b68181585d97816a916871ca8d3c208c16d87cfd4760208501357f30644e72e131a029b85045b68181585d97816a916871ca8d3c208c16d87cfd4703066020830152843560408301526020850135606083015260408501356080830152606085013560a08301527f046693f8c0f8c36a4554e851f2dae6395a7d44aea01383d5ec1456164f771b8460c08301527f26a3c60148b732fce0f2fedb98997496b1c8cde8b41db4a9f0d738446c93734660e08301527f28a29fe212cd32c59aabe100218306fd214c0c9ff2486f1a26390aec205023bc6101008301527f1781ec35acce284f39f346ae3f9cc76e49aa1e7a3d17d5511105eecdc92d33f16101208301527f0d1e67046ba2359f23206d6388d7280676dcfbcbc926c52d72180b208d7765de6101408301527f1815fca714aa77b27b8bf0c7d629132b9b2199d0ee60906cfd5e0e6f3fce1df9610160830152600088015161018083015260206000018801516101a08301527f198e9393920d483a7260bfb731fb5d25f1aa493335a9e71297e485b7aef312c26101c08301527f1800deef121f1e76426a00665e5c4479674322d4f75edadd46debd5cd992f6ed6101e08301527f090689d0585ff075ec9e99ad690c3395bc4b313370b38ef355acdadcd122975b6102008301527f12c85ea5db8c6deb4aab71808dcb408fe3d1e7690c43d37b4ce6cc0166fa7daa610220830152853561024083015260208601356102608301527f2e9b6a6c63d7d75ab32f9870b0b17c4c8732eeffd3a8e166435d34d0512529d86102808301527f18f6a68a526c1418e39af1bdf03a94664608929a3812290edb3625a54c408f0f6102a08301527f14086e806ed834620f7b18cd77c1257750ca18c270e57a8dca3206d3f1914e1f6102c08301527f05cf0015e88119a90812b8dcfa44d97c2a1e2fa532aa7afcdecb9a43bd81b3186102e08301526020826103008460086107d05a03fa82518116935050505095945050505050565b60405161038081016040526105446000840135610067565b6105516020840135610067565b61055e6040840135610067565b61056b6060840135610067565b610578818486888a610106565b8060005260206000f35b600080fd5b600080fd5b6000819050826020600202820111156105a8576105a7610587565b5b92915050565b6000819050826040600202820111156105ca576105c9610587565b5b92915050565b6000819050826020600302820111156105ec576105eb610587565b5b92915050565b600080600080610160858703121561060d5761060c610582565b5b600061061b8782880161058c565b945050604061062c878288016105ae565b93505060c061063d8782880161058c565b92505061010061064f878288016105d0565b91505092959194509250565b60008115159050919050565b6106708161065b565b82525050565b600060208201905061068b6000830184610667565b9291505056fea2646970667358221220450e3606ac1bcd4d7f500eaa74ae7793634d10a4d41b1e9d7ded5d464f644d1e64736f6c63430008140033",
  "devdoc": {
    "kind": "dev",
    "methods": {},
    "version": 1
  },
  "userdoc": {
    "kind": "user",
    "methods": {},
    "version": 1
  },
  "storageLayout": {
    "storage": [],
    "types": null
  }
}