{
  "_format": "hh-sol-artifact-1",
  "contractName": "Tornado",
  "sourceName": "src/Tornado.sol",
  "abi": [
    {
      "inputs": [
        {
          "internalType": "address",
          "name": "_hasher",
          "type": "address"
        },
        {
          "internalType": "address",
          "name": "_verifier",
          "type": "address"
        }
      ],
      "stateMutability": "nonpayable",
      "type": "constructor"
    },
    {
      "inputs": [
        {
          "internalType": "uint256",
          "name": "commitment",
          "type": "uint256"
        }
      ],
      "name": "CommitmentAlreadyRegistered",
      "type": "error"
    },
    {
      "inputs": [
        {
          "internalType": "uint256",
          "name": "index",
          "type": "uint256"
        }
      ],
      "name": "IndexOutOfBound",
      "type": "error"
    },
    {
      "inputs": [],
      "name": "InvalidProof",
      "type": "error"
    },
    {
      "inputs": [],
      "name": "InvalidRoot",
      "type": "error"
    },
    {
      "inputs": [],
      "name": "MerkleTreeFull",
      "type": "error"
    },
    {
      "inputs": [],
      "name": "NullifierAlreadyUsed",
      "type": "error"
    },
    {
      "inputs": [],
      "name": "PaymentFailed",
      "type": "error"
    },
    {
      "inputs": [],
      "name": "ReentrancyGuardReentrantCall",
      "type": "error"
    },
    {
      "inputs": [
        {
          "internalType": "uint256",
          "name": "amount",
          "type": "uint256"
        }
      ],
      "name": "WrongAmountDeposited",
      "type": "error"
    },
    {
      "anonymous": false,
      "inputs": [
        {
          "indexed": false,
          "internalType": "uint256",
          "name": "root",
          "type": "uint256"
        },
        {
          "indexed": false,
          "internalType": "uint256[10]",
          "name": "hashPairings",
          "type": "uint256[10]"
        },
        {
          "indexed": false,
          "internalType": "uint8[10]",
          "name": "pairDirections",
          "type": "uint8[10]"
        }
      ],
      "name": "Deposit",
      "type": "event"
    },
    {
      "anonymous": false,
      "inputs": [
        {
          "indexed": false,
          "internalType": "address",
          "name": "to",
          "type": "address"
        },
        {
          "indexed": false,
          "internalType": "uint256",
          "name": "nullifierHash",
          "type": "uint256"
        }
      ],
      "name": "Withdrawal",
      "type": "event"
    },
    {
      "inputs": [
        {
          "internalType": "uint256",
          "name": "commitment",
          "type": "uint256"
        }
      ],
      "name": "commitments",
      "outputs": [
        {
          "internalType": "bool",
          "name": "isRegistered",
          "type": "bool"
        }
      ],
      "stateMutability": "view",
      "type": "function"
    },
    {
      "inputs": [],
      "name": "denomination",
      "outputs": [
        {
          "internalType": "uint256",
          "name": "",
          "type": "uint256"
        }
      ],
      "stateMutability": "view",
      "type": "function"
    },
    {
      "inputs": [
        {
          "internalType": "uint256",
          "name": "_commitment",
          "type": "uint256"
        }
      ],
      "name": "deposit",
      "outputs": [],
      "stateMutability": "payable",
      "type": "function"
    },
    {
      "inputs": [],
      "name": "hasher",
      "outputs": [
        {
          "internalType": "contract Hasher",
          "name": "",
          "type": "address"
        }
      ],
      "stateMutability": "view",
      "type": "function"
    },
    {
      "inputs": [
        {
          "internalType": "uint256",
          "name": "root",
          "type": "uint256"
        }
      ],
      "name": "knownRoots",
      "outputs": [
        {
          "internalType": "bool",
          "name": "isKnown",
          "type": "bool"
        }
      ],
      "stateMutability": "view",
      "type": "function"
    },
    {
      "inputs": [
        {
          "internalType": "uint8",
          "name": "level",
          "type": "uint8"
        }
      ],
      "name": "lastLevelHash",
      "outputs": [
        {
          "internalType": "uint256",
          "name": "levelHash",
          "type": "uint256"
        }
      ],
      "stateMutability": "view",
      "type": "function"
    },
    {
      "inputs": [],
      "name": "nextLeafIndex",
      "outputs": [
        {
          "internalType": "uint256",
          "name": "",
          "type": "uint256"
        }
      ],
      "stateMutability": "view",
      "type": "function"
    },
    {
      "inputs": [
        {
          "internalType": "uint256",
          "name": "nullifier",
          "type": "uint256"
        }
      ],
      "name": "nullifiers",
      "outputs": [
        {
          "internalType": "bool",
          "name": "hasBeenUsed",
          "type": "bool"
        }
      ],
      "stateMutability": "view",
      "type": "function"
    },
    {
      "inputs": [],
      "name": "treeLevel",
      "outputs": [
        {
          "internalType": "uint8",
          "name": "",
          "type": "uint8"
        }
      ],
      "stateMutability": "view",
      "type": "function"
    },
    {
      "inputs": [],
      "name": "verifier",
      "outputs": [
        {
          "internalType": "address",
          "name": "",
          "type": "address"
        }
      ],
      "stateMutability": "view",
      "type": "function"
    },
    {
      "inputs": [
        {
          "internalType": "uint256[2]",
          "name": "a",
          "type": "uint256[2]"
        },
        {
          "internalType": "uint256[2][2]",
          "name": "b",
          "type": "uint256[2][2]"
        },
        {
          "internalType": "uint256[2]",
          "name": "c",
          "type": "uint256[2]"
        },
        {
          "internalType": "uint256[2]",
          "name": "input",
          "type": "uint256[2]"
        }
      ],
      "name": "withdraw",
      "outputs": [],
      "stateMutability": "nonpayable",
      "type": "function"
    }
  ],
  "bytecode": "0x6080604052600a600260146101000a81548160ff021916908360ff16021790555067016345785d8a00006003553480156200003957600080fd5b5060405162001db038038062001db083398181016040528101906200005f91906200015b565b600160008190555081600160006101000a81548173ffffffffffffffffffffffffffffffffffffffff021916908373ffffffffffffffffffffffffffffffffffffffff16021790555080600260006101000a81548173ffffffffffffffffffffffffffffffffffffffff021916908373ffffffffffffffffffffffffffffffffffffffff1602179055505050620001a2565b600080fd5b600073ffffffffffffffffffffffffffffffffffffffff82169050919050565b60006200012382620000f6565b9050919050565b620001358162000116565b81146200014157600080fd5b50565b60008151905062000155816200012a565b92915050565b60008060408385031215620001755762000174620000f1565b5b6000620001858582860162000144565b9250506020620001988582860162000144565b9150509250929050565b611bfe80620001b26000396000f3fe60806040526004361061009c5760003560e01c8063b6b55f2511610064578063b6b55f251461019c578063b8e79564146101b8578063c78784d7146101e3578063d21e82ab1461020c578063d540004714610249578063ed33639f146102865761009c565b80630be4f422146100a157806312ad7381146100cc5780632b7ac3f31461010957806349ce8997146101345780638bca6d1614610171575b600080fd5b3480156100ad57600080fd5b506100b66102b1565b6040516100c39190610e65565b60405180910390f35b3480156100d857600080fd5b506100f360048036038101906100ee9190610ebb565b6102b7565b6040516101009190610f03565b60405180910390f35b34801561011557600080fd5b5061011e6102d7565b60405161012b9190610f5f565b60405180910390f35b34801561014057600080fd5b5061015b60048036038101906101569190610ebb565b6102fd565b6040516101689190610f03565b60405180910390f35b34801561017d57600080fd5b5061018661031d565b6040516101939190610e65565b60405180910390f35b6101b660048036038101906101b19190610ebb565b610323565b005b3480156101c457600080fd5b506101cd6107bd565b6040516101da9190610f96565b60405180910390f35b3480156101ef57600080fd5b5061020a600480360381019061020591906111a9565b6107d0565b005b34801561021857600080fd5b50610233600480360381019061022e9190610ebb565b610b66565b6040516102409190610f03565b60405180910390f35b34801561025557600080fd5b50610270600480360381019061026b919061123e565b610b86565b60405161027d9190610e65565b60405180910390f35b34801561029257600080fd5b5061029b610b9e565b6040516102a891906112ca565b60405180910390f35b60045481565b60056020528060005260406000206000915054906101000a900460ff1681565b600260009054906101000a900473ffffffffffffffffffffffffffffffffffffffff1681565b60086020528060005260406000206000915054906101000a900460ff1681565b60035481565b61032b610bc4565b600354341461037157346040517f172624de0000000000000000000000000000000000000000000000000000000081526004016103689190610e65565b60405180910390fd5b6008600082815260200190815260200160002060009054906101000a900460ff16156103d457806040517f758b55390000000000000000000000000000000000000000000000000000000081526004016103cb9190610e65565b60405180910390fd5b6001600260149054906101000a900460ff1660026103f29190611447565b6103fc9190611492565b6004541115610437576040517fef5ccf6600000000000000000000000000000000000000000000000000000000815260040160405180910390fd5b6000610441610e06565b610449610e29565b6000600454905060008590506000806000600267ffffffffffffffff81111561047557610474610fc7565b5b6040519080825280602002602001820160405280156104a35781602001602082028036833780820191505090505b50905060005b600260149054906101000a900460ff1660ff168160ff1610156106fd578460066000600260149054906101000a900460ff1660ff1660ff16815260200190815260200160002081905550600060028761050291906114f5565b03610571578492506105168160ff16610c0a565b93506105248160ff16610c0a565b888260ff16600a811061053a57610539611526565b5b6020020181815250506000878260ff16600a811061055b5761055a611526565b5b602002019060ff16908160ff16815250506105f3565b600660008260ff1660ff168152602001908152602001600020549250849350600660008260ff1660ff16815260200190815260200160002054888260ff16600a81106105c0576105bf611526565b5b6020020181815250506001878260ff16600a81106105e1576105e0611526565b5b602002019060ff16908160ff16815250505b828260008151811061060857610607611526565b5b602002602001018181525050838260018151811061062957610628611526565b5b6020026020010181815250506000600160009054906101000a900473ffffffffffffffffffffffffffffffffffffffff1673ffffffffffffffffffffffffffffffffffffffff16632357940f848d6040518363ffffffff1660e01b8152600401610694929190611613565b602060405180830381865afa1580156106b1573d6000803e3d6000fd5b505050506040513d601f19601f820116820180604052508101906106d59190611658565b90508095506002876106e79190611685565b96505080806106f5906116b6565b9150506104a9565b508397506001600560008a815260200190815260200160002060006101000a81548160ff02191690831515021790555060046000815461073c906116df565b919050819055506001600860008b815260200190815260200160002060006101000a81548160ff0219169083151502179055507fe6ab8667cb740d6c65a4ad321c031eb42f6c5085d5753238d1b2e1e370c134838888886040516107a293929190611856565b60405180910390a150505050505050506107ba610dfc565b50565b600260149054906101000a900460ff1681565b6107d8610bc4565b6000816000600281106107ee576107ed611526565b5b6020020151905060008260016002811061080b5761080a611526565b5b602002015190506005600083815260200190815260200160002060009054906101000a900460ff16610869576040517f504570e300000000000000000000000000000000000000000000000000000000815260040160405180910390fd5b6007600082815260200190815260200160002060009054906101000a900460ff16156108c1576040517fcad2ae0200000000000000000000000000000000000000000000000000000000815260040160405180910390fd5b6000600260009054906101000a900473ffffffffffffffffffffffffffffffffffffffff1673ffffffffffffffffffffffffffffffffffffffff1687878760405180606001604052808881526020018781526020013373ffffffffffffffffffffffffffffffffffffffff168152506040516024016109439493929190611a95565b6040516020818303038152906040527f11479fea000000000000000000000000000000000000000000000000000000007bffffffffffffffffffffffffffffffffffffffffffffffffffffffff19166020820180517bffffffffffffffffffffffffffffffffffffffffffffffffffffffff83818316178352505050506040516109cd9190611b4d565b6000604051808303816000865af19150503d8060008114610a0a576040519150601f19603f3d011682016040523d82523d6000602084013e610a0f565b606091505b5050905080610a4a576040517f09bde33900000000000000000000000000000000000000000000000000000000815260040160405180910390fd5b60016007600084815260200190815260200160002060006101000a81548160ff02191690831515021790555060003373ffffffffffffffffffffffffffffffffffffffff16600354604051610a9e90611b8a565b60006040518083038185875af1925050503d8060008114610adb576040519150601f19603f3d011682016040523d82523d6000602084013e610ae0565b606091505b5050905080610b1b576040517ff499da2000000000000000000000000000000000000000000000000000000000815260040160405180910390fd5b7f7fcf532c15f0a6db0bd6d0e038bea71d30d808c7d98cb3bf7268a95bf5081b653384604051610b4c929190611b9f565b60405180910390a150505050610b60610dfc565b50505050565b60076020528060005260406000206000915054906101000a900460ff1681565b60066020528060005260406000206000915090505481565b600160009054906101000a900473ffffffffffffffffffffffffffffffffffffffff1681565b600260005403610c00576040517f3ee5aeb500000000000000000000000000000000000000000000000000000000815260040160405180910390fd5b6002600081905550565b60006009821115610c5257816040517f696ae7e4000000000000000000000000000000000000000000000000000000008152600401610c499190610e65565b60405180910390fd5b60006040518061014001604052807f1952870011f8830de55c2491b3afa717413f52441bf1fcd3136fb7db58fb09a581526020017f301b795fb7344f3bf046234240a5b66b895524cbcf47cf4be534e117a176b60181526020017f06313472f32745f4a521938f01c60cc112d03546cb00a6014607c4d1d985be8a81526020017fc0e7c514ac37d3720b1811f4ba3af0175987a80987688a44422d8724e8a1b56281526020017f239370c99c1b403ec0799e0e65a43bf2af3172b3a9a27ec4fe877137f579a76a81526020017ff3ce4c667c8f9d139ec60c5ed39d42d9cd3b641c57005657baea83e9788ca5f881526020017f35dc57b3893c812248537f75b0d7754dc4d61e5608c15d970f21736add549f8481526020017f0868e6a8756aba8fbffbab4d2d495b88473b0beeeb86fe14a5d2c70a571a196881526020017f02c1605f06250f45141948a5224dc808254a48270efadeae1be45b4b668004cf81526020017f866271d47cfa03017c5985181022d999d84730e0e8648a5ad9805bafb866d4b881525090508083600a8110610def57610dee611526565b5b6020020151915050919050565b6001600081905550565b604051806101400160405280600a90602082028036833780820191505090505090565b604051806101400160405280600a90602082028036833780820191505090505090565b6000819050919050565b610e5f81610e4c565b82525050565b6000602082019050610e7a6000830184610e56565b92915050565b6000604051905090565b600080fd5b610e9881610e4c565b8114610ea357600080fd5b50565b600081359050610eb581610e8f565b92915050565b600060208284031215610ed157610ed0610e8a565b5b6000610edf84828501610ea6565b91505092915050565b60008115159050919050565b610efd81610ee8565b82525050565b6000602082019050610f186000830184610ef4565b92915050565b600073ffffffffffffffffffffffffffffffffffffffff82169050919050565b6000610f4982610f1e565b9050919050565b610f5981610f3e565b82525050565b6000602082019050610f746000830184610f50565b92915050565b600060ff82169050919050565b610f9081610f7a565b82525050565b6000602082019050610fab6000830184610f87565b92915050565b600080fd5b6000601f19601f8301169050919050565b7f4e487b7100000000000000000000000000000000000000000000000000000000600052604160045260246000fd5b610fff82610fb6565b810181811067ffffffffffffffff8211171561101e5761101d610fc7565b5b80604052505050565b6000611031610e80565b905061103d8282610ff6565b919050565b600067ffffffffffffffff82111561105d5761105c610fc7565b5b602082029050919050565b600080fd5b600061108061107b84611042565b611027565b9050806020840283018581111561109a57611099611068565b5b835b818110156110c357806110af8882610ea6565b84526020840193505060208101905061109c565b5050509392505050565b600082601f8301126110e2576110e1610fb1565b5b60026110ef84828561106d565b91505092915050565b600067ffffffffffffffff82111561111357611112610fc7565b5b602082029050919050565b600061113161112c846110f8565b611027565b9050806040840283018581111561114b5761114a611068565b5b835b81811015611174578061116088826110cd565b84526020840193505060408101905061114d565b5050509392505050565b600082601f83011261119357611192610fb1565b5b60026111a084828561111e565b91505092915050565b60008060008061014085870312156111c4576111c3610e8a565b5b60006111d2878288016110cd565b94505060406111e38782880161117e565b93505060c06111f4878288016110cd565b925050610100611206878288016110cd565b91505092959194509250565b61121b81610f7a565b811461122657600080fd5b50565b60008135905061123881611212565b92915050565b60006020828403121561125457611253610e8a565b5b600061126284828501611229565b91505092915050565b6000819050919050565b600061129061128b61128684610f1e565b61126b565b610f1e565b9050919050565b60006112a282611275565b9050919050565b60006112b482611297565b9050919050565b6112c4816112a9565b82525050565b60006020820190506112df60008301846112bb565b92915050565b7f4e487b7100000000000000000000000000000000000000000000000000000000600052601160045260246000fd5b60008160011c9050919050565b6000808291508390505b600185111561136b57808604811115611347576113466112e5565b5b60018516156113565780820291505b808102905061136485611314565b945061132b565b94509492505050565b6000826113845760019050611440565b816113925760009050611440565b81600181146113a857600281146113b2576113e1565b6001915050611440565b60ff8411156113c4576113c36112e5565b5b8360020a9150848211156113db576113da6112e5565b5b50611440565b5060208310610133831016604e8410600b84101617156114165782820a905083811115611411576114106112e5565b5b611440565b6114238484846001611321565b9250905081840481111561143a576114396112e5565b5b81810290505b9392505050565b600061145282610e4c565b915061145d83610f7a565b925061148a7fffffffffffffffffffffffffffffffffffffffffffffffffffffffffffffffff8484611374565b905092915050565b600061149d82610e4c565b91506114a883610e4c565b92508282039050818111156114c0576114bf6112e5565b5b92915050565b7f4e487b7100000000000000000000000000000000000000000000000000000000600052601260045260246000fd5b600061150082610e4c565b915061150b83610e4c565b92508261151b5761151a6114c6565b5b828206905092915050565b7f4e487b7100000000000000000000000000000000000000000000000000000000600052603260045260246000fd5b600081519050919050565b600082825260208201905092915050565b6000819050602082019050919050565b61158a81610e4c565b82525050565b600061159c8383611581565b60208301905092915050565b6000602082019050919050565b60006115c082611555565b6115ca8185611560565b93506115d583611571565b8060005b838110156116065781516115ed8882611590565b97506115f8836115a8565b9250506001810190506115d9565b5085935050505092915050565b6000604082019050818103600083015261162d81856115b5565b905061163c6020830184610e56565b9392505050565b60008151905061165281610e8f565b92915050565b60006020828403121561166e5761166d610e8a565b5b600061167c84828501611643565b91505092915050565b600061169082610e4c565b915061169b83610e4c565b9250826116ab576116aa6114c6565b5b828204905092915050565b60006116c182610f7a565b915060ff82036116d4576116d36112e5565b5b600182019050919050565b60006116ea82610e4c565b91507fffffffffffffffffffffffffffffffffffffffffffffffffffffffffffffffff820361171c5761171b6112e5565b5b600182019050919050565b6000600a9050919050565b600081905092915050565b6000819050919050565b6000602082019050919050565b61175d81611727565b6117678184611732565b92506117728261173d565b8060005b838110156117a357815161178a8782611590565b965061179583611747565b925050600181019050611776565b505050505050565b6000600a9050919050565b600081905092915050565b6000819050919050565b6117d481610f7a565b82525050565b60006117e683836117cb565b60208301905092915050565b6000602082019050919050565b611808816117ab565b61181281846117b6565b925061181d826117c1565b8060005b8381101561184e57815161183587826117da565b9650611840836117f2565b925050600181019050611821565b505050505050565b60006102a08201905061186c6000830186610e56565b6118796020830185611754565b6118876101608301846117ff565b949350505050565b600060029050919050565b600081905092915050565b6000819050919050565b6000602082019050919050565b6118c58161188f565b6118cf818461189a565b92506118da826118a5565b8060005b8381101561190b5781516118f28782611590565b96506118fd836118af565b9250506001810190506118de565b505050505050565b600060029050919050565b600081905092915050565b6000819050919050565b600081905092915050565b6119478161188f565b6119518184611933565b925061195c826118a5565b8060005b8381101561198d5781516119748782611590565b965061197f836118af565b925050600181019050611960565b505050505050565b60006119a1838361193e565b60408301905092915050565b6000602082019050919050565b6119c381611913565b6119cd818461191e565b92506119d882611929565b8060005b83811015611a095781516119f08782611995565b96506119fb836119ad565b9250506001810190506119dc565b505050505050565b600060039050919050565b600081905092915050565b6000819050919050565b6000602082019050919050565b611a4781611a11565b611a518184611a1c565b9250611a5c82611a27565b8060005b83811015611a8d578151611a748782611590565b9650611a7f83611a31565b925050600181019050611a60565b505050505050565b600061016082019050611aab60008301876118bc565b611ab860408301866119ba565b611ac560c08301856118bc565b611ad3610100830184611a3e565b95945050505050565b600081519050919050565b600081905092915050565b60005b83811015611b10578082015181840152602081019050611af5565b60008484015250505050565b6000611b2782611adc565b611b318185611ae7565b9350611b41818560208601611af2565b80840191505092915050565b6000611b598284611b1c565b915081905092915050565b50565b6000611b74600083611ae7565b9150611b7f82611b64565b600082019050919050565b6000611b9582611b67565b9150819050919050565b6000604082019050611bb46000830185610f50565b611bc16020830184610e56565b939250505056fea2646970667358221220e5176d6481ea43745da49c88699254c1acfb229ea782c2a2340fb920a71ef68564736f6c63430008140033",
  "linkReferences": {},
  "deployedLinkReferences": {}
}