{
  "_format": "hh-sol-artifact-1",
  "contractName": "Tornado",
  "sourceName": "src/Tornado.sol",
  "abi": [
    {
      "inputs": [
        {
          "internalType": "address",
          "name": "_hasher",
          "type": "address"
        },
        {
          "internalType": "address",
          "name": "_verifier",
          "type": "address"
        },
        {
          "internalType": "address payable",
          "name": "_relayer",
          "type": "address"
        },
        {
          "internalType": "uint256",
          "name": "_loanPercent",
          "type": "uint256"
        },
        {
          "internalType": "address payable",
          "name": "_weth",
          "type": "address"
        }
      ],
      "stateMutability": "nonpayable",
      "type": "constructor"
    },
    {
      "inputs": [
        {
          "internalType": "uint256",
          "name": "commitment",
          "type": "uint256"
        }
      ],
      "name": "CommitmentAlreadyRegistered",
      "type": "error"
    },
    {
      "inputs": [
        {
          "internalType": "uint256",
          "name": "index",
          "type": "uint256"
        }
      ],
      "name": "IndexOutOfBound",
      "type": "error"
    },
    {
      "inputs": [],
      "name": "InvalidProof",
      "type": "error"
    },
    {
      "inputs": [],
      "name": "InvalidRoot",
      "type": "error"
    },
    {
      "inputs": [],
      "name": "MerkleTreeFull",
      "type": "error"
    },
    {
      "inputs": [],
      "name": "NullifierAlreadyUsed",
      "type": "error"
    },
    {
      "inputs": [],
      "name": "PaymentFailed",
      "type": "error"
    },
    {
      "inputs": [],
      "name": "ReentrancyGuardReentrantCall",
      "type": "error"
    },
    {
      "inputs": [
        {
          "internalType": "uint256",
          "name": "amount",
          "type": "uint256"
        }
      ],
      "name": "WrongAmountDeposited",
      "type": "error"
    },
    {
      "anonymous": false,
      "inputs": [
        {
          "indexed": false,
          "internalType": "uint256",
          "name": "root",
          "type": "uint256"
        },
        {
          "indexed": false,
          "internalType": "uint256[10]",
          "name": "hashPairings",
          "type": "uint256[10]"
        },
        {
          "indexed": false,
          "internalType": "uint8[10]",
          "name": "pairDirections",
          "type": "uint8[10]"
        }
      ],
      "name": "Deposit",
      "type": "event"
    },
    {
      "anonymous": false,
      "inputs": [
        {
          "indexed": true,
          "internalType": "address",
          "name": "target",
          "type": "address"
        },
        {
          "indexed": false,
          "internalType": "address",
          "name": "initiator",
          "type": "address"
        },
        {
          "indexed": false,
          "internalType": "uint256",
          "name": "amount",
          "type": "uint256"
        },
        {
          "indexed": false,
          "internalType": "uint256",
          "name": "premium",
          "type": "uint256"
        }
      ],
      "name": "FlashLoanEvent",
      "type": "event"
    },
    {
      "anonymous": false,
      "inputs": [
        {
          "indexed": false,
          "internalType": "address",
          "name": "to",
          "type": "address"
        },
        {
          "indexed": false,
          "internalType": "uint256",
          "name": "nullifierHash",
          "type": "uint256"
        }
      ],
      "name": "Withdrawal",
      "type": "event"
    },
    {
      "inputs": [
        {
          "internalType": "uint256",
          "name": "commitment",
          "type": "uint256"
        }
      ],
      "name": "commitments",
      "outputs": [
        {
          "internalType": "bool",
          "name": "isRegistered",
          "type": "bool"
        }
      ],
      "stateMutability": "view",
      "type": "function"
    },
    {
      "inputs": [],
      "name": "denomination",
      "outputs": [
        {
          "internalType": "uint256",
          "name": "",
          "type": "uint256"
        }
      ],
      "stateMutability": "view",
      "type": "function"
    },
    {
      "inputs": [
        {
          "internalType": "uint256",
          "name": "_commitment",
          "type": "uint256"
        }
      ],
      "name": "deposit",
      "outputs": [],
      "stateMutability": "payable",
      "type": "function"
    },
    {
      "inputs": [
        {
          "internalType": "address payable",
          "name": "receiverAddress",
          "type": "address"
        },
        {
          "internalType": "uint256",
          "name": "amount",
          "type": "uint256"
        }
      ],
      "name": "executeFlashLoanSimple",
      "outputs": [],
      "stateMutability": "nonpayable",
      "type": "function"
    },
    {
      "inputs": [],
      "name": "hasher",
      "outputs": [
        {
          "internalType": "contract Hasher",
          "name": "",
          "type": "address"
        }
      ],
      "stateMutability": "view",
      "type": "function"
    },
    {
      "inputs": [
        {
          "internalType": "uint256",
          "name": "root",
          "type": "uint256"
        }
      ],
      "name": "knownRoots",
      "outputs": [
        {
          "internalType": "bool",
          "name": "isKnown",
          "type": "bool"
        }
      ],
      "stateMutability": "view",
      "type": "function"
    },
    {
      "inputs": [
        {
          "internalType": "uint8",
          "name": "level",
          "type": "uint8"
        }
      ],
      "name": "lastLevelHash",
      "outputs": [
        {
          "internalType": "uint256",
          "name": "levelHash",
          "type": "uint256"
        }
      ],
      "stateMutability": "view",
      "type": "function"
    },
    {
      "inputs": [],
      "name": "nextLeafIndex",
      "outputs": [
        {
          "internalType": "uint256",
          "name": "",
          "type": "uint256"
        }
      ],
      "stateMutability": "view",
      "type": "function"
    },
    {
      "inputs": [
        {
          "internalType": "uint256",
          "name": "nullifier",
          "type": "uint256"
        }
      ],
      "name": "nullifiers",
      "outputs": [
        {
          "internalType": "bool",
          "name": "hasBeenUsed",
          "type": "bool"
        }
      ],
      "stateMutability": "view",
      "type": "function"
    },
    {
      "inputs": [],
      "name": "treeLevel",
      "outputs": [
        {
          "internalType": "uint8",
          "name": "",
          "type": "uint8"
        }
      ],
      "stateMutability": "view",
      "type": "function"
    },
    {
      "inputs": [],
      "name": "verifier",
      "outputs": [
        {
          "internalType": "address",
          "name": "",
          "type": "address"
        }
      ],
      "stateMutability": "view",
      "type": "function"
    },
    {
      "inputs": [
        {
          "internalType": "uint256[2]",
          "name": "a",
          "type": "uint256[2]"
        },
        {
          "internalType": "uint256[2][2]",
          "name": "b",
          "type": "uint256[2][2]"
        },
        {
          "internalType": "uint256[2]",
          "name": "c",
          "type": "uint256[2]"
        },
        {
          "internalType": "uint256[2]",
          "name": "input",
          "type": "uint256[2]"
        }
      ],
      "name": "withdraw",
      "outputs": [],
      "stateMutability": "nonpayable",
      "type": "function"
    },
    {
      "stateMutability": "payable",
      "type": "receive"
    }
  ],
  "bytecode": "0x6080604052600a600260146101000a81548160ff021916908360ff16021790555067016345785d8a00006003553480156200003957600080fd5b50604051620024803803806200248083398181016040528101906200005f919062000267565b600160008190555084600160006101000a81548173ffffffffffffffffffffffffffffffffffffffff021916908373ffffffffffffffffffffffffffffffffffffffff16021790555083600260006101000a81548173ffffffffffffffffffffffffffffffffffffffff021916908373ffffffffffffffffffffffffffffffffffffffff1602179055508160058190555082600660006101000a81548173ffffffffffffffffffffffffffffffffffffffff021916908373ffffffffffffffffffffffffffffffffffffffff16021790555080600760006101000a81548173ffffffffffffffffffffffffffffffffffffffff021916908373ffffffffffffffffffffffffffffffffffffffff1602179055505050505050620002ef565b600080fd5b600073ffffffffffffffffffffffffffffffffffffffff82169050919050565b6000620001af8262000182565b9050919050565b620001c181620001a2565b8114620001cd57600080fd5b50565b600081519050620001e181620001b6565b92915050565b6000620001f48262000182565b9050919050565b6200020681620001e7565b81146200021257600080fd5b50565b6000815190506200022681620001fb565b92915050565b6000819050919050565b62000241816200022c565b81146200024d57600080fd5b50565b600081519050620002618162000236565b92915050565b600080600080600060a086880312156200028657620002856200017d565b5b60006200029688828901620001d0565b9550506020620002a988828901620001d0565b9450506040620002bc8882890162000215565b9350506060620002cf8882890162000250565b9250506080620002e28882890162000215565b9150509295509295909350565b61218180620002ff6000396000f3fe6080604052600436106100ab5760003560e01c8063b8e7956411610064578063b8e79564146101ce578063c78784d7146101f9578063cc98136e14610222578063d21e82ab1461024b578063d540004714610288578063ed33639f146102c5576100b2565b80630be4f422146100b757806312ad7381146100e25780632b7ac3f31461011f57806349ce89971461014a5780638bca6d1614610187578063b6b55f25146101b2576100b2565b366100b257005b600080fd5b3480156100c357600080fd5b506100cc6102f0565b6040516100d991906111ee565b60405180910390f35b3480156100ee57600080fd5b5061010960048036038101906101049190611244565b6102f6565b604051610116919061128c565b60405180910390f35b34801561012b57600080fd5b50610134610316565b60405161014191906112e8565b60405180910390f35b34801561015657600080fd5b50610171600480360381019061016c9190611244565b61033c565b60405161017e919061128c565b60405180910390f35b34801561019357600080fd5b5061019c61035c565b6040516101a991906111ee565b60405180910390f35b6101cc60048036038101906101c79190611244565b610362565b005b3480156101da57600080fd5b506101e36107fc565b6040516101f0919061131f565b60405180910390f35b34801561020557600080fd5b50610220600480360381019061021b9190611532565b61080f565b005b34801561022e57600080fd5b50610249600480360381019061024491906115d9565b610ba5565b005b34801561025757600080fd5b50610272600480360381019061026d9190611244565b610eef565b60405161027f919061128c565b60405180910390f35b34801561029457600080fd5b506102af60048036038101906102aa9190611645565b610f0f565b6040516102bc91906111ee565b60405180910390f35b3480156102d157600080fd5b506102da610f27565b6040516102e791906116d1565b60405180910390f35b60045481565b60086020528060005260406000206000915054906101000a900460ff1681565b600260009054906101000a900473ffffffffffffffffffffffffffffffffffffffff1681565b600b6020528060005260406000206000915054906101000a900460ff1681565b60035481565b61036a610f4d565b60035434146103b057346040517f172624de0000000000000000000000000000000000000000000000000000000081526004016103a791906111ee565b60405180910390fd5b600b600082815260200190815260200160002060009054906101000a900460ff161561041357806040517f758b553900000000000000000000000000000000000000000000000000000000815260040161040a91906111ee565b60405180910390fd5b6001600260149054906101000a900460ff166002610431919061184e565b61043b9190611899565b6004541115610476576040517fef5ccf6600000000000000000000000000000000000000000000000000000000815260040160405180910390fd5b600061048061118f565b6104886111b2565b6000600454905060008590506000806000600267ffffffffffffffff8111156104b4576104b3611350565b5b6040519080825280602002602001820160405280156104e25781602001602082028036833780820191505090505b50905060005b600260149054906101000a900460ff1660ff168160ff16101561073c578460096000600260149054906101000a900460ff1660ff1660ff16815260200190815260200160002081905550600060028761054191906118fc565b036105b0578492506105558160ff16610f93565b93506105638160ff16610f93565b888260ff16600a81106105795761057861192d565b5b6020020181815250506000878260ff16600a811061059a5761059961192d565b5b602002019060ff16908160ff1681525050610632565b600960008260ff1660ff168152602001908152602001600020549250849350600960008260ff1660ff16815260200190815260200160002054888260ff16600a81106105ff576105fe61192d565b5b6020020181815250506001878260ff16600a81106106205761061f61192d565b5b602002019060ff16908160ff16815250505b82826000815181106106475761064661192d565b5b60200260200101818152505083826001815181106106685761066761192d565b5b6020026020010181815250506000600160009054906101000a900473ffffffffffffffffffffffffffffffffffffffff1673ffffffffffffffffffffffffffffffffffffffff16632357940f848d6040518363ffffffff1660e01b81526004016106d3929190611a1a565b602060405180830381865afa1580156106f0573d6000803e3d6000fd5b505050506040513d601f19601f820116820180604052508101906107149190611a5f565b90508095506002876107269190611a8c565b965050808061073490611abd565b9150506104e8565b508397506001600860008a815260200190815260200160002060006101000a81548160ff02191690831515021790555060046000815461077b90611ae6565b919050819055506001600b60008b815260200190815260200160002060006101000a81548160ff0219169083151502179055507fe6ab8667cb740d6c65a4ad321c031eb42f6c5085d5753238d1b2e1e370c134838888886040516107e193929190611c5d565b60405180910390a150505050505050506107f9611185565b50565b600260149054906101000a900460ff1681565b610817610f4d565b60008160006002811061082d5761082c61192d565b5b6020020151905060008260016002811061084a5761084961192d565b5b602002015190506008600083815260200190815260200160002060009054906101000a900460ff166108a8576040517f504570e300000000000000000000000000000000000000000000000000000000815260040160405180910390fd5b600a600082815260200190815260200160002060009054906101000a900460ff1615610900576040517fcad2ae0200000000000000000000000000000000000000000000000000000000815260040160405180910390fd5b6000600260009054906101000a900473ffffffffffffffffffffffffffffffffffffffff1673ffffffffffffffffffffffffffffffffffffffff1687878760405180606001604052808881526020018781526020013373ffffffffffffffffffffffffffffffffffffffff168152506040516024016109829493929190611e9c565b6040516020818303038152906040527f11479fea000000000000000000000000000000000000000000000000000000007bffffffffffffffffffffffffffffffffffffffffffffffffffffffff19166020820180517bffffffffffffffffffffffffffffffffffffffffffffffffffffffff8381831617835250505050604051610a0c9190611f54565b6000604051808303816000865af19150503d8060008114610a49576040519150601f19603f3d011682016040523d82523d6000602084013e610a4e565b606091505b5050905080610a89576040517f09bde33900000000000000000000000000000000000000000000000000000000815260040160405180910390fd5b6001600a600084815260200190815260200160002060006101000a81548160ff02191690831515021790555060003373ffffffffffffffffffffffffffffffffffffffff16600354604051610add90611f91565b60006040518083038185875af1925050503d8060008114610b1a576040519150601f19603f3d011682016040523d82523d6000602084013e610b1f565b606091505b5050905080610b5a576040517ff499da2000000000000000000000000000000000000000000000000000000000815260040160405180910390fd5b7f7fcf532c15f0a6db0bd6d0e038bea71d30d808c7d98cb3bf7268a95bf5081b653384604051610b8b929190611fa6565b60405180910390a150505050610b9f611185565b50505050565b600082905060006005549050600760009054906101000a900473ffffffffffffffffffffffffffffffffffffffff1673ffffffffffffffffffffffffffffffffffffffff1663d0e30db0846040518263ffffffff1660e01b81526004016000604051808303818588803b158015610c1b57600080fd5b505af1158015610c2f573d6000803e3d6000fd5b5050505050600760009054906101000a900473ffffffffffffffffffffffffffffffffffffffff1673ffffffffffffffffffffffffffffffffffffffff1663a9059cbb85856040518363ffffffff1660e01b8152600401610c91929190611ff0565b6020604051808303816000875af1158015610cb0573d6000803e3d6000fd5b505050506040513d601f19601f82011682018060405250810190610cd49190612045565b508173ffffffffffffffffffffffffffffffffffffffff1663d694ca768483336040518463ffffffff1660e01b8152600401610d1293929190612072565b6020604051808303816000875af1158015610d31573d6000803e3d6000fd5b505050506040513d601f19601f82011682018060405250810190610d559190612045565b5060008184610d6491906120a9565b9050600760009054906101000a900473ffffffffffffffffffffffffffffffffffffffff1673ffffffffffffffffffffffffffffffffffffffff166323b872dd8630846040518463ffffffff1660e01b8152600401610dc5939291906120dd565b6020604051808303816000875af1158015610de4573d6000803e3d6000fd5b505050506040513d601f19601f82011682018060405250810190610e089190612045565b50600760009054906101000a900473ffffffffffffffffffffffffffffffffffffffff1673ffffffffffffffffffffffffffffffffffffffff16632e1a7d4d826040518263ffffffff1660e01b8152600401610e6491906111ee565b600060405180830381600087803b158015610e7e57600080fd5b505af1158015610e92573d6000803e3d6000fd5b505050508473ffffffffffffffffffffffffffffffffffffffff167fd9dbfec6e007ef75e4fe09acaaa24198647ca8101b9a659f7668e85e0ff7cc58338685604051610ee093929190612114565b60405180910390a25050505050565b600a6020528060005260406000206000915054906101000a900460ff1681565b60096020528060005260406000206000915090505481565b600160009054906101000a900473ffffffffffffffffffffffffffffffffffffffff1681565b600260005403610f89576040517f3ee5aeb500000000000000000000000000000000000000000000000000000000815260040160405180910390fd5b6002600081905550565b60006009821115610fdb57816040517f696ae7e4000000000000000000000000000000000000000000000000000000008152600401610fd291906111ee565b60405180910390fd5b60006040518061014001604052807f1952870011f8830de55c2491b3afa717413f52441bf1fcd3136fb7db58fb09a581526020017f301b795fb7344f3bf046234240a5b66b895524cbcf47cf4be534e117a176b60181526020017f06313472f32745f4a521938f01c60cc112d03546cb00a6014607c4d1d985be8a81526020017fc0e7c514ac37d3720b1811f4ba3af0175987a80987688a44422d8724e8a1b56281526020017f239370c99c1b403ec0799e0e65a43bf2af3172b3a9a27ec4fe877137f579a76a81526020017ff3ce4c667c8f9d139ec60c5ed39d42d9cd3b641c57005657baea83e9788ca5f881526020017f35dc57b3893c812248537f75b0d7754dc4d61e5608c15d970f21736add549f8481526020017f0868e6a8756aba8fbffbab4d2d495b88473b0beeeb86fe14a5d2c70a571a196881526020017f02c1605f06250f45141948a5224dc808254a48270efadeae1be45b4b668004cf81526020017f866271d47cfa03017c5985181022d999d84730e0e8648a5ad9805bafb866d4b881525090508083600a81106111785761117761192d565b5b6020020151915050919050565b6001600081905550565b604051806101400160405280600a90602082028036833780820191505090505090565b604051806101400160405280600a90602082028036833780820191505090505090565b6000819050919050565b6111e8816111d5565b82525050565b600060208201905061120360008301846111df565b92915050565b6000604051905090565b600080fd5b611221816111d5565b811461122c57600080fd5b50565b60008135905061123e81611218565b92915050565b60006020828403121561125a57611259611213565b5b60006112688482850161122f565b91505092915050565b60008115159050919050565b61128681611271565b82525050565b60006020820190506112a1600083018461127d565b92915050565b600073ffffffffffffffffffffffffffffffffffffffff82169050919050565b60006112d2826112a7565b9050919050565b6112e2816112c7565b82525050565b60006020820190506112fd60008301846112d9565b92915050565b600060ff82169050919050565b61131981611303565b82525050565b60006020820190506113346000830184611310565b92915050565b600080fd5b6000601f19601f8301169050919050565b7f4e487b7100000000000000000000000000000000000000000000000000000000600052604160045260246000fd5b6113888261133f565b810181811067ffffffffffffffff821117156113a7576113a6611350565b5b80604052505050565b60006113ba611209565b90506113c6828261137f565b919050565b600067ffffffffffffffff8211156113e6576113e5611350565b5b602082029050919050565b600080fd5b6000611409611404846113cb565b6113b0565b90508060208402830185811115611423576114226113f1565b5b835b8181101561144c5780611438888261122f565b845260208401935050602081019050611425565b5050509392505050565b600082601f83011261146b5761146a61133a565b5b60026114788482856113f6565b91505092915050565b600067ffffffffffffffff82111561149c5761149b611350565b5b602082029050919050565b60006114ba6114b584611481565b6113b0565b905080604084028301858111156114d4576114d36113f1565b5b835b818110156114fd57806114e98882611456565b8452602084019350506040810190506114d6565b5050509392505050565b600082601f83011261151c5761151b61133a565b5b60026115298482856114a7565b91505092915050565b600080600080610140858703121561154d5761154c611213565b5b600061155b87828801611456565b945050604061156c87828801611507565b93505060c061157d87828801611456565b92505061010061158f87828801611456565b91505092959194509250565b60006115a6826112a7565b9050919050565b6115b68161159b565b81146115c157600080fd5b50565b6000813590506115d3816115ad565b92915050565b600080604083850312156115f0576115ef611213565b5b60006115fe858286016115c4565b925050602061160f8582860161122f565b9150509250929050565b61162281611303565b811461162d57600080fd5b50565b60008135905061163f81611619565b92915050565b60006020828403121561165b5761165a611213565b5b600061166984828501611630565b91505092915050565b6000819050919050565b600061169761169261168d846112a7565b611672565b6112a7565b9050919050565b60006116a98261167c565b9050919050565b60006116bb8261169e565b9050919050565b6116cb816116b0565b82525050565b60006020820190506116e660008301846116c2565b92915050565b7f4e487b7100000000000000000000000000000000000000000000000000000000600052601160045260246000fd5b60008160011c9050919050565b6000808291508390505b60018511156117725780860481111561174e5761174d6116ec565b5b600185161561175d5780820291505b808102905061176b8561171b565b9450611732565b94509492505050565b60008261178b5760019050611847565b816117995760009050611847565b81600181146117af57600281146117b9576117e8565b6001915050611847565b60ff8411156117cb576117ca6116ec565b5b8360020a9150848211156117e2576117e16116ec565b5b50611847565b5060208310610133831016604e8410600b841016171561181d5782820a905083811115611818576118176116ec565b5b611847565b61182a8484846001611728565b92509050818404811115611841576118406116ec565b5b81810290505b9392505050565b6000611859826111d5565b915061186483611303565b92506118917fffffffffffffffffffffffffffffffffffffffffffffffffffffffffffffffff848461177b565b905092915050565b60006118a4826111d5565b91506118af836111d5565b92508282039050818111156118c7576118c66116ec565b5b92915050565b7f4e487b7100000000000000000000000000000000000000000000000000000000600052601260045260246000fd5b6000611907826111d5565b9150611912836111d5565b925082611922576119216118cd565b5b828206905092915050565b7f4e487b7100000000000000000000000000000000000000000000000000000000600052603260045260246000fd5b600081519050919050565b600082825260208201905092915050565b6000819050602082019050919050565b611991816111d5565b82525050565b60006119a38383611988565b60208301905092915050565b6000602082019050919050565b60006119c78261195c565b6119d18185611967565b93506119dc83611978565b8060005b83811015611a0d5781516119f48882611997565b97506119ff836119af565b9250506001810190506119e0565b5085935050505092915050565b60006040820190508181036000830152611a3481856119bc565b9050611a4360208301846111df565b9392505050565b600081519050611a5981611218565b92915050565b600060208284031215611a7557611a74611213565b5b6000611a8384828501611a4a565b91505092915050565b6000611a97826111d5565b9150611aa2836111d5565b925082611ab257611ab16118cd565b5b828204905092915050565b6000611ac882611303565b915060ff8203611adb57611ada6116ec565b5b600182019050919050565b6000611af1826111d5565b91507fffffffffffffffffffffffffffffffffffffffffffffffffffffffffffffffff8203611b2357611b226116ec565b5b600182019050919050565b6000600a9050919050565b600081905092915050565b6000819050919050565b6000602082019050919050565b611b6481611b2e565b611b6e8184611b39565b9250611b7982611b44565b8060005b83811015611baa578151611b918782611997565b9650611b9c83611b4e565b925050600181019050611b7d565b505050505050565b6000600a9050919050565b600081905092915050565b6000819050919050565b611bdb81611303565b82525050565b6000611bed8383611bd2565b60208301905092915050565b6000602082019050919050565b611c0f81611bb2565b611c198184611bbd565b9250611c2482611bc8565b8060005b83811015611c55578151611c3c8782611be1565b9650611c4783611bf9565b925050600181019050611c28565b505050505050565b60006102a082019050611c7360008301866111df565b611c806020830185611b5b565b611c8e610160830184611c06565b949350505050565b600060029050919050565b600081905092915050565b6000819050919050565b6000602082019050919050565b611ccc81611c96565b611cd68184611ca1565b9250611ce182611cac565b8060005b83811015611d12578151611cf98782611997565b9650611d0483611cb6565b925050600181019050611ce5565b505050505050565b600060029050919050565b600081905092915050565b6000819050919050565b600081905092915050565b611d4e81611c96565b611d588184611d3a565b9250611d6382611cac565b8060005b83811015611d94578151611d7b8782611997565b9650611d8683611cb6565b925050600181019050611d67565b505050505050565b6000611da88383611d45565b60408301905092915050565b6000602082019050919050565b611dca81611d1a565b611dd48184611d25565b9250611ddf82611d30565b8060005b83811015611e10578151611df78782611d9c565b9650611e0283611db4565b925050600181019050611de3565b505050505050565b600060039050919050565b600081905092915050565b6000819050919050565b6000602082019050919050565b611e4e81611e18565b611e588184611e23565b9250611e6382611e2e565b8060005b83811015611e94578151611e7b8782611997565b9650611e8683611e38565b925050600181019050611e67565b505050505050565b600061016082019050611eb26000830187611cc3565b611ebf6040830186611dc1565b611ecc60c0830185611cc3565b611eda610100830184611e45565b95945050505050565b600081519050919050565b600081905092915050565b60005b83811015611f17578082015181840152602081019050611efc565b60008484015250505050565b6000611f2e82611ee3565b611f388185611eee565b9350611f48818560208601611ef9565b80840191505092915050565b6000611f608284611f23565b915081905092915050565b50565b6000611f7b600083611eee565b9150611f8682611f6b565b600082019050919050565b6000611f9c82611f6e565b9150819050919050565b6000604082019050611fbb60008301856112d9565b611fc860208301846111df565b9392505050565b6000611fda8261169e565b9050919050565b611fea81611fcf565b82525050565b60006040820190506120056000830185611fe1565b61201260208301846111df565b9392505050565b61202281611271565b811461202d57600080fd5b50565b60008151905061203f81612019565b92915050565b60006020828403121561205b5761205a611213565b5b600061206984828501612030565b91505092915050565b600060608201905061208760008301866111df565b61209460208301856111df565b6120a160408301846112d9565b949350505050565b60006120b4826111d5565b91506120bf836111d5565b92508282019050808211156120d7576120d66116ec565b5b92915050565b60006060820190506120f26000830186611fe1565b6120ff60208301856112d9565b61210c60408301846111df565b949350505050565b600060608201905061212960008301866112d9565b61213660208301856111df565b61214360408301846111df565b94935050505056fea264697066735822122079a8d0e735d52324a81aaa3f07c76d2d5b988608b64c43456e264da94b9f92c264736f6c63430008140033",
  "linkReferences": {},
  "deployedLinkReferences": {}
}