{
  "_format": "hh-sol-artifact-1",
  "contractName": "Tornado",
  "sourceName": "src/Tornado.sol",
  "abi": [
    {
      "inputs": [
        {
          "internalType": "address",
          "name": "_hasher",
          "type": "address"
        },
        {
          "internalType": "address",
          "name": "_verifier",
          "type": "address"
        },
        {
          "internalType": "address payable",
          "name": "_relayer",
          "type": "address"
        },
        {
          "internalType": "uint256",
          "name": "_loanPercent",
          "type": "uint256"
        },
        {
          "internalType": "address payable",
          "name": "_weth",
          "type": "address"
        }
      ],
      "stateMutability": "nonpayable",
      "type": "constructor"
    },
    {
      "inputs": [
        {
          "internalType": "uint256",
          "name": "commitment",
          "type": "uint256"
        }
      ],
      "name": "CommitmentAlreadyRegistered",
      "type": "error"
    },
    {
      "inputs": [
        {
          "internalType": "uint256",
          "name": "index",
          "type": "uint256"
        }
      ],
      "name": "IndexOutOfBound",
      "type": "error"
    },
    {
      "inputs": [],
      "name": "InvalidProof",
      "type": "error"
    },
    {
      "inputs": [],
      "name": "InvalidRoot",
      "type": "error"
    },
    {
      "inputs": [],
      "name": "MerkleTreeFull",
      "type": "error"
    },
    {
      "inputs": [],
      "name": "NullifierAlreadyUsed",
      "type": "error"
    },
    {
      "inputs": [],
      "name": "PaymentFailed",
      "type": "error"
    },
    {
      "inputs": [],
      "name": "ReentrancyGuardReentrantCall",
      "type": "error"
    },
    {
      "inputs": [
        {
          "internalType": "uint256",
          "name": "amount",
          "type": "uint256"
        }
      ],
      "name": "WrongAmountDeposited",
      "type": "error"
    },
    {
      "anonymous": false,
      "inputs": [
        {
          "indexed": false,
          "internalType": "uint256",
          "name": "root",
          "type": "uint256"
        },
        {
          "indexed": false,
          "internalType": "uint256[10]",
          "name": "hashPairings",
          "type": "uint256[10]"
        },
        {
          "indexed": false,
          "internalType": "uint8[10]",
          "name": "pairDirections",
          "type": "uint8[10]"
        }
      ],
      "name": "Deposit",
      "type": "event"
    },
    {
      "anonymous": false,
      "inputs": [
        {
          "indexed": true,
          "internalType": "address",
          "name": "target",
          "type": "address"
        },
        {
          "indexed": false,
          "internalType": "address",
          "name": "initiator",
          "type": "address"
        },
        {
          "indexed": false,
          "internalType": "uint256",
          "name": "amount",
          "type": "uint256"
        },
        {
          "indexed": false,
          "internalType": "uint256",
          "name": "premium",
          "type": "uint256"
        }
      ],
      "name": "FlashLoanEvent",
      "type": "event"
    },
    {
      "anonymous": false,
      "inputs": [
        {
          "indexed": false,
          "internalType": "address",
          "name": "to",
          "type": "address"
        },
        {
          "indexed": false,
          "internalType": "uint256",
          "name": "nullifierHash",
          "type": "uint256"
        }
      ],
      "name": "Withdrawal",
      "type": "event"
    },
    {
      "inputs": [
        {
          "internalType": "uint256",
          "name": "commitment",
          "type": "uint256"
        }
      ],
      "name": "commitments",
      "outputs": [
        {
          "internalType": "bool",
          "name": "isRegistered",
          "type": "bool"
        }
      ],
      "stateMutability": "view",
      "type": "function"
    },
    {
      "inputs": [],
      "name": "denomination",
      "outputs": [
        {
          "internalType": "uint256",
          "name": "",
          "type": "uint256"
        }
      ],
      "stateMutability": "view",
      "type": "function"
    },
    {
      "inputs": [
        {
          "internalType": "uint256",
          "name": "_commitment",
          "type": "uint256"
        }
      ],
      "name": "deposit",
      "outputs": [],
      "stateMutability": "payable",
      "type": "function"
    },
    {
      "inputs": [
        {
          "internalType": "address payable",
          "name": "receiverAddress",
          "type": "address"
        },
        {
          "internalType": "uint256",
          "name": "amount",
          "type": "uint256"
        }
      ],
      "name": "executeFlashLoanSimple",
      "outputs": [],
      "stateMutability": "nonpayable",
      "type": "function"
    },
    {
      "inputs": [],
      "name": "hasher",
      "outputs": [
        {
          "internalType": "contract Hasher",
          "name": "",
          "type": "address"
        }
      ],
      "stateMutability": "view",
      "type": "function"
    },
    {
      "inputs": [
        {
          "internalType": "uint256",
          "name": "root",
          "type": "uint256"
        }
      ],
      "name": "knownRoots",
      "outputs": [
        {
          "internalType": "bool",
          "name": "isKnown",
          "type": "bool"
        }
      ],
      "stateMutability": "view",
      "type": "function"
    },
    {
      "inputs": [
        {
          "internalType": "uint8",
          "name": "level",
          "type": "uint8"
        }
      ],
      "name": "lastLevelHash",
      "outputs": [
        {
          "internalType": "uint256",
          "name": "levelHash",
          "type": "uint256"
        }
      ],
      "stateMutability": "view",
      "type": "function"
    },
    {
      "inputs": [],
      "name": "nextLeafIndex",
      "outputs": [
        {
          "internalType": "uint256",
          "name": "",
          "type": "uint256"
        }
      ],
      "stateMutability": "view",
      "type": "function"
    },
    {
      "inputs": [
        {
          "internalType": "uint256",
          "name": "nullifier",
          "type": "uint256"
        }
      ],
      "name": "nullifiers",
      "outputs": [
        {
          "internalType": "bool",
          "name": "hasBeenUsed",
          "type": "bool"
        }
      ],
      "stateMutability": "view",
      "type": "function"
    },
    {
      "inputs": [],
      "name": "treeLevel",
      "outputs": [
        {
          "internalType": "uint8",
          "name": "",
          "type": "uint8"
        }
      ],
      "stateMutability": "view",
      "type": "function"
    },
    {
      "inputs": [],
      "name": "verifier",
      "outputs": [
        {
          "internalType": "address",
          "name": "",
          "type": "address"
        }
      ],
      "stateMutability": "view",
      "type": "function"
    },
    {
      "inputs": [
        {
          "internalType": "uint256[2]",
          "name": "a",
          "type": "uint256[2]"
        },
        {
          "internalType": "uint256[2][2]",
          "name": "b",
          "type": "uint256[2][2]"
        },
        {
          "internalType": "uint256[2]",
          "name": "c",
          "type": "uint256[2]"
        },
        {
          "internalType": "uint256[2]",
          "name": "input",
          "type": "uint256[2]"
        }
      ],
      "name": "withdraw",
      "outputs": [],
      "stateMutability": "nonpayable",
      "type": "function"
    }
  ],
  "bytecode": "0x6080604052600a600260146101000a81548160ff021916908360ff16021790555067016345785d8a00006003553480156200003957600080fd5b50604051620025bf380380620025bf83398181016040528101906200005f919062000267565b600160008190555084600160006101000a81548173ffffffffffffffffffffffffffffffffffffffff021916908373ffffffffffffffffffffffffffffffffffffffff16021790555083600260006101000a81548173ffffffffffffffffffffffffffffffffffffffff021916908373ffffffffffffffffffffffffffffffffffffffff1602179055508160058190555082600660006101000a81548173ffffffffffffffffffffffffffffffffffffffff021916908373ffffffffffffffffffffffffffffffffffffffff16021790555080600760006101000a81548173ffffffffffffffffffffffffffffffffffffffff021916908373ffffffffffffffffffffffffffffffffffffffff1602179055505050505050620002ef565b600080fd5b600073ffffffffffffffffffffffffffffffffffffffff82169050919050565b6000620001af8262000182565b9050919050565b620001c181620001a2565b8114620001cd57600080fd5b50565b600081519050620001e181620001b6565b92915050565b6000620001f48262000182565b9050919050565b6200020681620001e7565b81146200021257600080fd5b50565b6000815190506200022681620001fb565b92915050565b6000819050919050565b62000241816200022c565b81146200024d57600080fd5b50565b600081519050620002618162000236565b92915050565b600080600080600060a086880312156200028657620002856200017d565b5b60006200029688828901620001d0565b9550506020620002a988828901620001d0565b9450506040620002bc8882890162000215565b9350506060620002cf8882890162000250565b9250506080620002e28882890162000215565b9150509295509295909350565b6122c080620002ff6000396000f3fe6080604052600436106100a75760003560e01c8063b8e7956411610064578063b8e79564146101c3578063c78784d7146101ee578063cc98136e14610217578063d21e82ab14610240578063d54000471461027d578063ed33639f146102ba576100a7565b80630be4f422146100ac57806312ad7381146100d75780632b7ac3f31461011457806349ce89971461013f5780638bca6d161461017c578063b6b55f25146101a7575b600080fd5b3480156100b857600080fd5b506100c16102e5565b6040516100ce919061128a565b60405180910390f35b3480156100e357600080fd5b506100fe60048036038101906100f991906112e0565b6102eb565b60405161010b9190611328565b60405180910390f35b34801561012057600080fd5b5061012961030b565b6040516101369190611384565b60405180910390f35b34801561014b57600080fd5b50610166600480360381019061016191906112e0565b610331565b6040516101739190611328565b60405180910390f35b34801561018857600080fd5b50610191610351565b60405161019e919061128a565b60405180910390f35b6101c160048036038101906101bc91906112e0565b610357565b005b3480156101cf57600080fd5b506101d86107f1565b6040516101e591906113bb565b60405180910390f35b3480156101fa57600080fd5b50610215600480360381019061021091906115ce565b610804565b005b34801561022357600080fd5b5061023e60048036038101906102399190611675565b610b9a565b005b34801561024c57600080fd5b50610267600480360381019061026291906112e0565b610f8b565b6040516102749190611328565b60405180910390f35b34801561028957600080fd5b506102a4600480360381019061029f91906116e1565b610fab565b6040516102b1919061128a565b60405180910390f35b3480156102c657600080fd5b506102cf610fc3565b6040516102dc919061176d565b60405180910390f35b60045481565b60086020528060005260406000206000915054906101000a900460ff1681565b600260009054906101000a900473ffffffffffffffffffffffffffffffffffffffff1681565b600b6020528060005260406000206000915054906101000a900460ff1681565b60035481565b61035f610fe9565b60035434146103a557346040517f172624de00000000000000000000000000000000000000000000000000000000815260040161039c919061128a565b60405180910390fd5b600b600082815260200190815260200160002060009054906101000a900460ff161561040857806040517f758b55390000000000000000000000000000000000000000000000000000000081526004016103ff919061128a565b60405180910390fd5b6001600260149054906101000a900460ff16600261042691906118ea565b6104309190611935565b600454111561046b576040517fef5ccf6600000000000000000000000000000000000000000000000000000000815260040160405180910390fd5b600061047561122b565b61047d61124e565b6000600454905060008590506000806000600267ffffffffffffffff8111156104a9576104a86113ec565b5b6040519080825280602002602001820160405280156104d75781602001602082028036833780820191505090505b50905060005b600260149054906101000a900460ff1660ff168160ff161015610731578460096000600260149054906101000a900460ff1660ff1660ff1681526020019081526020016000208190555060006002876105369190611998565b036105a55784925061054a8160ff1661102f565b93506105588160ff1661102f565b888260ff16600a811061056e5761056d6119c9565b5b6020020181815250506000878260ff16600a811061058f5761058e6119c9565b5b602002019060ff16908160ff1681525050610627565b600960008260ff1660ff168152602001908152602001600020549250849350600960008260ff1660ff16815260200190815260200160002054888260ff16600a81106105f4576105f36119c9565b5b6020020181815250506001878260ff16600a8110610615576106146119c9565b5b602002019060ff16908160ff16815250505b828260008151811061063c5761063b6119c9565b5b602002602001018181525050838260018151811061065d5761065c6119c9565b5b6020026020010181815250506000600160009054906101000a900473ffffffffffffffffffffffffffffffffffffffff1673ffffffffffffffffffffffffffffffffffffffff16632357940f848d6040518363ffffffff1660e01b81526004016106c8929190611ab6565b602060405180830381865afa1580156106e5573d6000803e3d6000fd5b505050506040513d601f19601f820116820180604052508101906107099190611afb565b905080955060028761071b9190611b28565b965050808061072990611b59565b9150506104dd565b508397506001600860008a815260200190815260200160002060006101000a81548160ff02191690831515021790555060046000815461077090611b82565b919050819055506001600b60008b815260200190815260200160002060006101000a81548160ff0219169083151502179055507fe6ab8667cb740d6c65a4ad321c031eb42f6c5085d5753238d1b2e1e370c134838888886040516107d693929190611cf9565b60405180910390a150505050505050506107ee611221565b50565b600260149054906101000a900460ff1681565b61080c610fe9565b600081600060028110610822576108216119c9565b5b6020020151905060008260016002811061083f5761083e6119c9565b5b602002015190506008600083815260200190815260200160002060009054906101000a900460ff1661089d576040517f504570e300000000000000000000000000000000000000000000000000000000815260040160405180910390fd5b600a600082815260200190815260200160002060009054906101000a900460ff16156108f5576040517fcad2ae0200000000000000000000000000000000000000000000000000000000815260040160405180910390fd5b6000600260009054906101000a900473ffffffffffffffffffffffffffffffffffffffff1673ffffffffffffffffffffffffffffffffffffffff1687878760405180606001604052808881526020018781526020013373ffffffffffffffffffffffffffffffffffffffff168152506040516024016109779493929190611f38565b6040516020818303038152906040527f11479fea000000000000000000000000000000000000000000000000000000007bffffffffffffffffffffffffffffffffffffffffffffffffffffffff19166020820180517bffffffffffffffffffffffffffffffffffffffffffffffffffffffff8381831617835250505050604051610a019190611ff0565b6000604051808303816000865af19150503d8060008114610a3e576040519150601f19603f3d011682016040523d82523d6000602084013e610a43565b606091505b5050905080610a7e576040517f09bde33900000000000000000000000000000000000000000000000000000000815260040160405180910390fd5b6001600a600084815260200190815260200160002060006101000a81548160ff02191690831515021790555060003373ffffffffffffffffffffffffffffffffffffffff16600354604051610ad29061202d565b60006040518083038185875af1925050503d8060008114610b0f576040519150601f19603f3d011682016040523d82523d6000602084013e610b14565b606091505b5050905080610b4f576040517ff499da2000000000000000000000000000000000000000000000000000000000815260040160405180910390fd5b7f7fcf532c15f0a6db0bd6d0e038bea71d30d808c7d98cb3bf7268a95bf5081b653384604051610b80929190612042565b60405180910390a150505050610b94611221565b50505050565b600082905060006005549050600760009054906101000a900473ffffffffffffffffffffffffffffffffffffffff1673ffffffffffffffffffffffffffffffffffffffff1663d0e30db0846040518263ffffffff1660e01b81526004016000604051808303818588803b158015610c1057600080fd5b505af1158015610c24573d6000803e3d6000fd5b5050505050600760009054906101000a900473ffffffffffffffffffffffffffffffffffffffff1673ffffffffffffffffffffffffffffffffffffffff1663a9059cbb85856040518363ffffffff1660e01b8152600401610c8692919061208c565b6020604051808303816000875af1158015610ca5573d6000803e3d6000fd5b505050506040513d601f19601f82011682018060405250810190610cc991906120e1565b508173ffffffffffffffffffffffffffffffffffffffff1663d694ca768483336040518463ffffffff1660e01b8152600401610d079392919061210e565b6020604051808303816000875af1158015610d26573d6000803e3d6000fd5b505050506040513d601f19601f82011682018060405250810190610d4a91906120e1565b610d89576040517f08c379a0000000000000000000000000000000000000000000000000000000008152600401610d80906121c8565b60405180910390fd5b60008184610d9791906121e8565b9050600760009054906101000a900473ffffffffffffffffffffffffffffffffffffffff1673ffffffffffffffffffffffffffffffffffffffff166323b872dd8630846040518463ffffffff1660e01b8152600401610df89392919061221c565b6020604051808303816000875af1158015610e17573d6000803e3d6000fd5b505050506040513d601f19601f82011682018060405250810190610e3b91906120e1565b50600760009054906101000a900473ffffffffffffffffffffffffffffffffffffffff1673ffffffffffffffffffffffffffffffffffffffff16632e1a7d4d826040518263ffffffff1660e01b8152600401610e97919061128a565b600060405180830381600087803b158015610eb157600080fd5b505af1158015610ec5573d6000803e3d6000fd5b50505050600660009054906101000a900473ffffffffffffffffffffffffffffffffffffffff1673ffffffffffffffffffffffffffffffffffffffff166108fc839081150290604051600060405180830381858888f19350505050158015610f31573d6000803e3d6000fd5b508473ffffffffffffffffffffffffffffffffffffffff167fd9dbfec6e007ef75e4fe09acaaa24198647ca8101b9a659f7668e85e0ff7cc58338685604051610f7c93929190612253565b60405180910390a25050505050565b600a6020528060005260406000206000915054906101000a900460ff1681565b60096020528060005260406000206000915090505481565b600160009054906101000a900473ffffffffffffffffffffffffffffffffffffffff1681565b600260005403611025576040517f3ee5aeb500000000000000000000000000000000000000000000000000000000815260040160405180910390fd5b6002600081905550565b6000600982111561107757816040517f696ae7e400000000000000000000000000000000000000000000000000000000815260040161106e919061128a565b60405180910390fd5b60006040518061014001604052807f1952870011f8830de55c2491b3afa717413f52441bf1fcd3136fb7db58fb09a581526020017f301b795fb7344f3bf046234240a5b66b895524cbcf47cf4be534e117a176b60181526020017f06313472f32745f4a521938f01c60cc112d03546cb00a6014607c4d1d985be8a81526020017fc0e7c514ac37d3720b1811f4ba3af0175987a80987688a44422d8724e8a1b56281526020017f239370c99c1b403ec0799e0e65a43bf2af3172b3a9a27ec4fe877137f579a76a81526020017ff3ce4c667c8f9d139ec60c5ed39d42d9cd3b641c57005657baea83e9788ca5f881526020017f35dc57b3893c812248537f75b0d7754dc4d61e5608c15d970f21736add549f8481526020017f0868e6a8756aba8fbffbab4d2d495b88473b0beeeb86fe14a5d2c70a571a196881526020017f02c1605f06250f45141948a5224dc808254a48270efadeae1be45b4b668004cf81526020017f866271d47cfa03017c5985181022d999d84730e0e8648a5ad9805bafb866d4b881525090508083600a8110611214576112136119c9565b5b6020020151915050919050565b6001600081905550565b604051806101400160405280600a90602082028036833780820191505090505090565b604051806101400160405280600a90602082028036833780820191505090505090565b6000819050919050565b61128481611271565b82525050565b600060208201905061129f600083018461127b565b92915050565b6000604051905090565b600080fd5b6112bd81611271565b81146112c857600080fd5b50565b6000813590506112da816112b4565b92915050565b6000602082840312156112f6576112f56112af565b5b6000611304848285016112cb565b91505092915050565b60008115159050919050565b6113228161130d565b82525050565b600060208201905061133d6000830184611319565b92915050565b600073ffffffffffffffffffffffffffffffffffffffff82169050919050565b600061136e82611343565b9050919050565b61137e81611363565b82525050565b60006020820190506113996000830184611375565b92915050565b600060ff82169050919050565b6113b58161139f565b82525050565b60006020820190506113d060008301846113ac565b92915050565b600080fd5b6000601f19601f8301169050919050565b7f4e487b7100000000000000000000000000000000000000000000000000000000600052604160045260246000fd5b611424826113db565b810181811067ffffffffffffffff82111715611443576114426113ec565b5b80604052505050565b60006114566112a5565b9050611462828261141b565b919050565b600067ffffffffffffffff821115611482576114816113ec565b5b602082029050919050565b600080fd5b60006114a56114a084611467565b61144c565b905080602084028301858111156114bf576114be61148d565b5b835b818110156114e857806114d488826112cb565b8452602084019350506020810190506114c1565b5050509392505050565b600082601f830112611507576115066113d6565b5b6002611514848285611492565b91505092915050565b600067ffffffffffffffff821115611538576115376113ec565b5b602082029050919050565b60006115566115518461151d565b61144c565b905080604084028301858111156115705761156f61148d565b5b835b81811015611599578061158588826114f2565b845260208401935050604081019050611572565b5050509392505050565b600082601f8301126115b8576115b76113d6565b5b60026115c5848285611543565b91505092915050565b60008060008061014085870312156115e9576115e86112af565b5b60006115f7878288016114f2565b9450506040611608878288016115a3565b93505060c0611619878288016114f2565b92505061010061162b878288016114f2565b91505092959194509250565b600061164282611343565b9050919050565b61165281611637565b811461165d57600080fd5b50565b60008135905061166f81611649565b92915050565b6000806040838503121561168c5761168b6112af565b5b600061169a85828601611660565b92505060206116ab858286016112cb565b9150509250929050565b6116be8161139f565b81146116c957600080fd5b50565b6000813590506116db816116b5565b92915050565b6000602082840312156116f7576116f66112af565b5b6000611705848285016116cc565b91505092915050565b6000819050919050565b600061173361172e61172984611343565b61170e565b611343565b9050919050565b600061174582611718565b9050919050565b60006117578261173a565b9050919050565b6117678161174c565b82525050565b6000602082019050611782600083018461175e565b92915050565b7f4e487b7100000000000000000000000000000000000000000000000000000000600052601160045260246000fd5b60008160011c9050919050565b6000808291508390505b600185111561180e578086048111156117ea576117e9611788565b5b60018516156117f95780820291505b8081029050611807856117b7565b94506117ce565b94509492505050565b60008261182757600190506118e3565b8161183557600090506118e3565b816001811461184b576002811461185557611884565b60019150506118e3565b60ff84111561186757611866611788565b5b8360020a91508482111561187e5761187d611788565b5b506118e3565b5060208310610133831016604e8410600b84101617156118b95782820a9050838111156118b4576118b3611788565b5b6118e3565b6118c684848460016117c4565b925090508184048111156118dd576118dc611788565b5b81810290505b9392505050565b60006118f582611271565b91506119008361139f565b925061192d7fffffffffffffffffffffffffffffffffffffffffffffffffffffffffffffffff8484611817565b905092915050565b600061194082611271565b915061194b83611271565b925082820390508181111561196357611962611788565b5b92915050565b7f4e487b7100000000000000000000000000000000000000000000000000000000600052601260045260246000fd5b60006119a382611271565b91506119ae83611271565b9250826119be576119bd611969565b5b828206905092915050565b7f4e487b7100000000000000000000000000000000000000000000000000000000600052603260045260246000fd5b600081519050919050565b600082825260208201905092915050565b6000819050602082019050919050565b611a2d81611271565b82525050565b6000611a3f8383611a24565b60208301905092915050565b6000602082019050919050565b6000611a63826119f8565b611a6d8185611a03565b9350611a7883611a14565b8060005b83811015611aa9578151611a908882611a33565b9750611a9b83611a4b565b925050600181019050611a7c565b5085935050505092915050565b60006040820190508181036000830152611ad08185611a58565b9050611adf602083018461127b565b9392505050565b600081519050611af5816112b4565b92915050565b600060208284031215611b1157611b106112af565b5b6000611b1f84828501611ae6565b91505092915050565b6000611b3382611271565b9150611b3e83611271565b925082611b4e57611b4d611969565b5b828204905092915050565b6000611b648261139f565b915060ff8203611b7757611b76611788565b5b600182019050919050565b6000611b8d82611271565b91507fffffffffffffffffffffffffffffffffffffffffffffffffffffffffffffffff8203611bbf57611bbe611788565b5b600182019050919050565b6000600a9050919050565b600081905092915050565b6000819050919050565b6000602082019050919050565b611c0081611bca565b611c0a8184611bd5565b9250611c1582611be0565b8060005b83811015611c46578151611c2d8782611a33565b9650611c3883611bea565b925050600181019050611c19565b505050505050565b6000600a9050919050565b600081905092915050565b6000819050919050565b611c778161139f565b82525050565b6000611c898383611c6e565b60208301905092915050565b6000602082019050919050565b611cab81611c4e565b611cb58184611c59565b9250611cc082611c64565b8060005b83811015611cf1578151611cd88782611c7d565b9650611ce383611c95565b925050600181019050611cc4565b505050505050565b60006102a082019050611d0f600083018661127b565b611d1c6020830185611bf7565b611d2a610160830184611ca2565b949350505050565b600060029050919050565b600081905092915050565b6000819050919050565b6000602082019050919050565b611d6881611d32565b611d728184611d3d565b9250611d7d82611d48565b8060005b83811015611dae578151611d958782611a33565b9650611da083611d52565b925050600181019050611d81565b505050505050565b600060029050919050565b600081905092915050565b6000819050919050565b600081905092915050565b611dea81611d32565b611df48184611dd6565b9250611dff82611d48565b8060005b83811015611e30578151611e178782611a33565b9650611e2283611d52565b925050600181019050611e03565b505050505050565b6000611e448383611de1565b60408301905092915050565b6000602082019050919050565b611e6681611db6565b611e708184611dc1565b9250611e7b82611dcc565b8060005b83811015611eac578151611e938782611e38565b9650611e9e83611e50565b925050600181019050611e7f565b505050505050565b600060039050919050565b600081905092915050565b6000819050919050565b6000602082019050919050565b611eea81611eb4565b611ef48184611ebf565b9250611eff82611eca565b8060005b83811015611f30578151611f178782611a33565b9650611f2283611ed4565b925050600181019050611f03565b505050505050565b600061016082019050611f4e6000830187611d5f565b611f5b6040830186611e5d565b611f6860c0830185611d5f565b611f76610100830184611ee1565b95945050505050565b600081519050919050565b600081905092915050565b60005b83811015611fb3578082015181840152602081019050611f98565b60008484015250505050565b6000611fca82611f7f565b611fd48185611f8a565b9350611fe4818560208601611f95565b80840191505092915050565b6000611ffc8284611fbf565b915081905092915050565b50565b6000612017600083611f8a565b915061202282612007565b600082019050919050565b60006120388261200a565b9150819050919050565b60006040820190506120576000830185611375565b612064602083018461127b565b9392505050565b60006120768261173a565b9050919050565b6120868161206b565b82525050565b60006040820190506120a1600083018561207d565b6120ae602083018461127b565b9392505050565b6120be8161130d565b81146120c957600080fd5b50565b6000815190506120db816120b5565b92915050565b6000602082840312156120f7576120f66112af565b5b6000612105848285016120cc565b91505092915050565b6000606082019050612123600083018661127b565b612130602083018561127b565b61213d6040830184611375565b949350505050565b600082825260208201905092915050565b7f494e56414c49445f464c4153484c4f414e5f4558454355544f525f524554555260008201527f4e00000000000000000000000000000000000000000000000000000000000000602082015250565b60006121b2602183612145565b91506121bd82612156565b604082019050919050565b600060208201905081810360008301526121e1816121a5565b9050919050565b60006121f382611271565b91506121fe83611271565b925082820190508082111561221657612215611788565b5b92915050565b6000606082019050612231600083018661207d565b61223e6020830185611375565b61224b604083018461127b565b949350505050565b60006060820190506122686000830186611375565b612275602083018561127b565b612282604083018461127b565b94935050505056fea26469706673582212202507d451c1f7fbee62413dae6058f9ef4362ea78d97f67022b7a9e41224407ba64736f6c63430008140033",
  "linkReferences": {},
  "deployedLinkReferences": {}
}